:020000040800F2
:10000000B809002019580008452C0008472C0008A2
:100010004B2C00084F2C0008532C00080000000057
:10002000000000000000000000000000572C000845
:10003000592C0008000000005B2C00085D2C000813
:100040003358000833580008335800083358000864
:100050003358000833580008335800083358000854
:100060003358000833580008335800083358000844
:100070003358000833580008335800083358000834
:100080003358000833580008335800083358000824
:10009000335800083358000833580008852C0008EE
:1000A0003358000833580008335800083358000804
:1000B00033580008335800083358000833580008F4
:1000C00033580008335800083358000833580008E4
:1000D00033580008335800083358000833580008D4
:1000E00033580008335800083358000833580008C4
:1000F00033580008335800083358000833580008B4
:1001000033580008335800083358000833580008A3
:100110003358000833580008335800083358000893
:100120003358000833580008335800083358000883
:100130003358000833580008335800083358000873
:100140003358000833580008335800083358000863
:100150003358000833580008335800083358000853
:100160003358000833580008335800083358000843
:100170003358000833580008335800083358000833
:10018000335800083358000800F002F800F05BF81C
:100190000AA090E8000C82448344AAF10107DA45E2
:1001A00001D100F050F8AFF2090EBAE80F0013F0D9
:1001B000010F18BFFB1A43F00103184768780000CD
:1001C00088780000103A24BF78C878C1FAD852075E
:1001D00024BF30C830C144BF04680C6070470000C1
:1001E0000023002400250026103A28BF78C1FBD840
:1001F000520728BF30C148BF0B607047662907F01F
:100200001382642905F0FA84782905F0338563297F
:1002100006F0F781732906F0FC81002070471FB5B6
:1002200007F0FDF906F026FA04000020002107F08F
:1002300069F9401C60600020002107F04DF9E06082
:100240001FBD10B510BD06F04FFB1146FFF7E7FFCD
:1002500002F02AFC06F054FD03B4FFF7F2FF03BCE2
:1002600004F08FFC32490143324A1160704770B587
:10027000002100230F22C4781CB32E4C246804F400
:10028000E064C4F5E064C4F30721C1F10404E3B2FF
:100290000A4144789C40E1B28478144021430C0721
:1002A000210E254C05786155047804F01F050124C2
:1002B000AC4005786D11AD0005F1E025C5F80041B1
:1002C00009E0047804F01F050124AC401B4D0678BA
:1002D000761145F8264070BD194A0A400243154B75
:1002E0001B1F1A60704739B1124A121D126802436F
:1002F000104B1B1D1A6006E00E4A121D1268824345
:100300000C4B1B1D1A607047042808D14FF0E021E8
:10031000096941F004014FF0E022116107E04FF05C
:10032000E021096921F004014FF0E02211617047DA
:100330000000FA050CED00E000E400E080E100E0E0
:1003400080FFFF1F10B50121080201F079F800219C
:100350004FF4807001F074F810BD30B502460020F3
:1003600000235068F84C20400D790C6844EA0524BD
:10037000204350609068F54C2040D1E903542C4351
:100380008D682C434D7944EA450420439060D06A3F
:1003900020F470000C7D641EE4B2234340EA035055
:1003A000D06230BD00210160017141718160C16086
:1003B00001610121017570470021E54A1168E54A94
:1003C0001140D0E900231A4383681A43C3681A43D3
:1003D0001143E14AC2F804137047002101604160F3
:1003E0008160C160704721B1826842F00102826081
:1003F00003E0826822F00102826070470A46002111
:100400004168D64B19401143416070474162826296
:1004100070470A460021416821F01F0111434160E5
:10042000704738B1CA49096841F40001CA4AC2F8A4
:10043000041306E0C649096821F40001C64AC2F85F
:100440000413704738B1C249096841F48001C24AB7
:10045000C2F8041306E0BE49096821F48001BE4ACF
:10046000C2F804137047F0B504460D460020002181
:10047000092D11DDE068A5F10A0606EB46070726FF
:1004800006FA07F18843A5F10A0606EB460603FAC9
:1004900006F10843E0600CE0206905EB45070726FC
:1004A00006FA07F1884305EB450603FA06F108430F
:1004B0002061072A0FDA606B561E06EB86071F269F
:1004C00006FA07F18843561E06EB860605FA06F182
:1004D0000843606322E00D2A0FDA206BD61F06EB7B
:1004E00086071F2606FA07F18843D61F06EB860605
:1004F00005FA06F10843206310E0E06AA2F10D0658
:1005000006EB86071F2606FA07F18843A2F10D06BF
:1005100006EB860605FA06F10843E062F0BD816845
:1005200041F0804181607047014600208A6802F4F2
:1005300080020AB1012000E00020704721B18268EA
:1005400042F48062826003E0826822F4806282600A
:10055000704721B1826842F00202826003E0826843
:1005600022F002028260704710B50A460021002383
:10057000416821F46041531E41EA4331416010BD9E
:1005800021B1426842F40062426003E0426822F412
:100590000062426070470146C86C80B270476C4888
:1005A000001D0068704721B1826842F48072826049
:1005B00003E0826822F480728260704721B1826811
:1005C00042F40072826003E0826822F4007282606A
:1005D000704738B15E49096841F400515E4AC2F87B
:1005E000041306E05A49096821F400515A4AC2F836
:1005F00004137047F0B5044615460020002200267B
:10060000092911DDE068A1F10A0707EB470C07276C
:1006100007FA0CF29043A1F10A0707EB470703FA28
:1006200007F21043E0600CE0206901EB410C072762
:1006300007FA0CF2904301EB410703FA07F210436B
:100640002061A06BC0F30156EF1C06F1010CA7EB73
:100650000C0707EB870C1F2707FA0CF29043EF1CDF
:1006600006F1010CA7EB0C0707EB870701FA07F26D
:100670001043A063F0BD10B50A4600210023816B32
:1006800021F44011531E41EA0351816310BD08B5A6
:10069000002300930090009B0B440093009B1A6082
:1006A00008BD0A460021816821F470211143816050
:1006B00070470A460021816821F44011114381608E
:1006C0007047816841F480018160704701460020D5
:1006D0008A6802F480020AB1012000E0002070471D
:1006E00021B1426842F48062426003E0426822F431
:1006F00080624260704721B1426842F48052426099
:1007000003E0426822F480524260704708B5024616
:1007100000200090009201F12800009B18440090F6
:100720000098006880B208BD10B50B460021D9B210
:10073000012404FA01F11AB144680C43446002E058
:1007400044688C43446010BDFFFEFFFCFDF7FFC012
:1007500004230140E030FCFF00200140FFFD3FFF8B
:100760000246002013680B400BB1012000E000207E
:100770007047CA430260704770B5024600200023EC
:1007800000240B12556801268E4005EA0604156800
:100790001D4015B10CB1012000E0002070BD002209
:1007A0000A12D34303607047002044490860091DC2
:1007B0000860091D0860091D086041483F4914315F
:1007C0000860704700213D498279002A3AD00A46E4
:1007D000126803689A430B461A600A1D1268036880
:1007E0009A430B1D1A60027911440A6803681A4380
:1007F0000A60324A0832126803689A432F4B083362
:100800001A601A1D126803689A432C4B0C331A6045
:100810004279102A0ED11A1F126803681A43274B17
:1008200008331A601A1D126803681A43234B0C33ED
:100830001A600DE02149427911440A6803681A439D
:100840000A6005E0027911440A6803689A430A6065
:1008500070470021016001710C21417100218171FB
:1008600070471649103109680143144A103211606B
:10087000704701460020114A143212680A400AB13A
:10088000012000E0002070470C49143108607047D7
:10089000014600200022094B1B6803EA0102074BB6
:1008A00014331B680B4013B10AB1012000E0002093
:1008B000704702491431086070470000003C014055
:1008C000FFFF7F00FE4A1070704730B1FC49096895
:1008D00041F48071FA4A116005E0F949096821F490
:1008E0008071F74A1160704730B1F549096841F4E9
:1008F0000071F34A116005E0F149096821F40071C3
:10090000EF4A1160704730B1ED49096841F48061E8
:10091000EB4A116005E0EA49096821F48061E84A80
:1009200011607047E648006840F40060E4490860E0
:100930007047E348006840F48050E1490860704720
:10094000DF481030006800F0004028B1DD48DC4985
:10095000091D0860DC4808607047D94810300068FD
:1009600040F00040D6491031086070470820D44953
:100970000C31096801F48031B1F5803F01D10120CB
:1009800018E0CF490C31096801F0100109B10520C8
:1009900010E0CB490C31096801F0EF0109B10620E4
:1009A00008E0C7490C31096801F0020109B10720CC
:1009B00000E00820704708B508200090FFF7D6FF38
:1009C000009002E0FFF7D2FF00909DF800000128A0
:1009D000F8D09DF8000008BD70B504460A46002610
:1009E000082502B909E0012A01D1160205E0022A10
:1009F00001D1160201E04FF44076FFF7DCFF054617
:100A0000082D2DD1AE481030006820F44070AC495C
:100A100010310860084600683043086008460068E6
:100A200020F0F80008600846006844F0020108431E
:100A3000A349103108600846006840F4803008601F
:100A4000FFF7B9FF05469E481030006820F002000D
:100A50009B49103108600846006820F0F8000860E3
:100A6000284670BD30B5024600250824FFF7A3FFD5
:100A7000044602B909E0012A01D1150205E0022A63
:100A800001D1150201E04FF44075082C20D18C48AB
:100A90001030006820F44070894910310860084621
:100AA0000068284308600846006840F004000860B9
:100AB0000846006840F480300860FFF77CFF044679
:100AC0007F481030006820F004007D491031086034
:100AD000204630BD70B5064614461D460822FFF775
:100AE0006AFF0246082A1ED175481030006820F4BB
:100AF00040707349103108600846006840F4407047
:100B000008600846006840F00100086034607560C5
:100B1000FFF751FF02466A481030006820F00100DC
:100B2000674910310860104670BD30B502460C466A
:100B30000825FFF740FF0546082D1DD160481030FD
:100B4000006820F440705E49103108600846006873
:100B500040F4007008600846006840F0010008603A
:100B60001460FFF728FF054655481030006820F054
:100B70000100534910310860284630BD30B50246A7
:100B80000C460825FFF717FF0546082D1DD14C48D8
:100B90001030006820F44070494910310860084660
:100BA000006840F4807008600846006840F001006A
:100BB00008601480FFF7FFFE0546414810300068CA
:100BC00020F001003E4910310860284630BD30B5A4
:100BD00002460C460825FFF7EEFE0546082D1BD100
:100BE00037481030006820F44070354910310860F3
:100BF0000846006808600846006840F00100086088
:100C00001470FFF7D8FE05462D481030006820F01C
:100C100001002B4910310860284630BD28481430A7
:100C2000006800F0010028B1284825490831086013
:100C300027480860704722481430006840F00100DF
:100C40001F4914310860704730B502460C4608252C
:100C5000FFF7B1FE0546082D10D13CB118481630FB
:100C60000088904316491631088007E01448163072
:100C7000008891B2084312491631088030BD10B582
:100C800002460824FFF797FE0446082C02D10C48C0
:100C90001530027010BDF0B504460D46FF2608273A
:100CA000FFF789FE0746082F16D105481430007853
:100CB00000F00F0645EA060010432043004909E012
:100CC000003C024023016745AB89EFCD3B2A190860
:100CD0007F6E5D4C14310870F0BD2849097821F011
:100CE0000C01264A117011460978014311707047B2
:100CF00000B508222148007840F002001F49087022
:100D0000FFF759FE0246104600BD1C480068C0F3BC
:100D1000471070471948801C008870470020174909
:100D2000491C0978AA2901D0012000E00020704761
:100D30001248007800F00C00704739B10F4A121FBA
:100D4000126802430D4B1B1F1A6006E00B4A121F6C
:100D500012688243094B1B1F1A607047014600202E
:100D6000064A083A12680A400AB1012000E0002051
:100D7000704702490839086070470000143C02407F
:100D800010B504468C48844208D10121084600F081
:100D900000FB0021012000F0FCFA5EE0874884425D
:100DA00008D10121022000F0F4FA0021022000F015
:100DB000F0FA52E08248844208D10121042000F078
:100DC000E8FA0021042000F0E4FA46E07D4884427D
:100DD00008D10121082000F0DCFA0021082000F0F1
:100DE000D8FA3AE07848844208D10121102000F076
:100DF000D0FA0021102000F0CCFA2EE07348844293
:100E000008D10121202000F0C4FA0021202000F0A8
:100E1000C0FA22E06E48844208D10121402000F04F
:100E2000B8FA0021402000F0B4FA16E06948844284
:100E300008D10121802000F0ACFA0021802000F0D0
:100E4000A8FA0AE06448844207D10121801500F025
:100E5000A0FA0021A01500F09CFA10BDF0B50A46DA
:100E600000210023002400BF3DE0012505FA01F325
:100E7000156805EA03049C4234D105684F00032637
:100E8000BE40B543056015794E00B5400668354350
:100E900005601579012D02D01579022D16D18568CE
:100EA0004F000326BE40B543856055794E00B540DE
:100EB000866835438560456801268E40B5434560A8
:100EC000456896798E40B6B235434560C5684F0097
:100ED0000326BE40B543C560D5794E00B540C6680F
:100EE0003543C560491C1029BFD3F0BD4FF6FF71D3
:100EF00001600021017141718171C171704708B5B4
:100F00004FF480320092009A0A430092009AC26124
:100F1000C161009AC261C2690092C269009208BDB3
:100F20000246002013690B400BB1012000E00020B5
:100F300070470146086980B2704702460020536935
:100F40000B400BB1012000E00020704701464869CA
:100F500080B2704701837047418370470AB10183B3
:100F600000E0418370474161704742694A404261F5
:100F70007047F0B5002300244D07ED0E02FA05F38B
:100F8000CE1000F1200555F826504E07F70E0F261B
:100F9000BE40B543CF1000F1200646F82750CE10D2
:100FA00000F1200555F8265045EA0304CE1000F163
:100FB000200545F82640F0BD000002400004024034
:100FC00000080240000C02400010024000140240E1
:100FD00000180240001C024000200240FA4800684D
:100FE00040F00100F84908600020F7490831086026
:100FF000F5480068F5490840F3490860F448091DC0
:101000000860081F006820F48020091F0860002085
:10101000ED490C31086070470021EB4A921C1170B9
:1010200011460870704710B50146002200230020C9
:101030004A11012A02D1E44C236808E0022A03D1B4
:10104000E14C7034236802E0DF4C7434236801F013
:101050001F02012494401C400CB1012000E000203C
:1010600010BD38B5002000900024002500BF3120BD
:10107000FFF7D9FF05460098401C00900098B0F596
:10108000A06F01D0002DF2D03120FFF7CCFF08B1C6
:10109000012400E00024204638BD01460020CA4A51
:1010A000106820F0F80040EAC10010607047C9499C
:1010B000086070470021C44A703211701170012815
:1010C00002D004280AD104E00121BF4A7032117015
:1010D00005E00521BC4A7032117000E000BF00BF7E
:1010E0007047BD490860704770B5049C41EA82159D
:1010F0000126C6EB530645EA0645054345EA046565
:10110000B14E361D356070BDB24908667047820128
:1011100042EA0172AC4B84331A607047AD4988666D
:101120007047AC49C864704702460020A64B08339C
:10113000186820F0EC6042EA01031843A24B083320
:1011400018607047024600209F4B0833186820F053
:10115000784042EA010318439B4B083318607047FC
:1011600001460020984A0832106820F00300084326
:101170001060704794480830006800F00C00704719
:1011800001460020904A0832106820F0F000084321
:1011900010607047014600208B4A0832106820F426
:1011A000E05008431060704701460020864A08322C
:1011B000106820F4604040EAC10010607047F0B54C
:1011C0000021002200240225002602237E4F08373A
:1011D0003F6807F00C0121B1042905D0082937D157
:1011E00005E07E4F076036E07D4F076033E0764FC5
:1011F0003F1D3F68C7F38056734F3F1D3F6807F0A0
:101200003F036EB1764FB7FBF3F7DFF8BCC10CF1CB
:10121000040CDCF800C0CCF3881C07FB0CF40CE0D9
:101220006E4FB7FBF3F7DFF8A0C10CF1040CDCF84C
:1012300000C0CCF3881C07FB0CF4634F3F1D3F68D4
:10124000C7F301477F1C7D00B4FBF5F7076002E0A0
:10125000624F076000BF00BF5B4F08373F6807F071
:10126000F00109095F4F7A5C0768D7404760564F25
:1012700008373F6807F4E051890A5A4F7A5C47689B
:10128000D7408760504F08373F6807F46041490BEB
:10129000544F7A5C4768D740C760F0BD002100F426
:1012A0004072B2F5407F0AD1474A0832116821F4F2
:1012B000F8114D4A02401143434A08321160424A34
:1012C00070321268C0F30B031A433F4B70331A603D
:1012D000704741494439086070473F4940390860C8
:1012E000704742490860704739B1374A3032126856
:1012F0000243354B30331A6006E0334A303212680D
:101300008243314B30331A60704739B12E4A343240
:10131000126802432C4B34331A6006E02A4A3432F6
:1013200012688243284B34331A60704739B1264A19
:10133000383212680243244B38331A6006E0224ADE
:10134000383212688243204B38331A60704739B103
:101350001D4A4032126802431B4B40331A6006E0BC
:10136000194A403212688243174B40331A60704763
:1013700039B1154A443212680243134B44331A60A0
:1013800006E0114A4432126882430F4B44331A601C
:10139000704739B10C4A1032126802430A4B1033BD
:1013A0001A6006E0084A103212688243064B103376
:1013B0001A607047E1B1044A143212680243024BCA
:1013C00014331A6019E0000000380240FFFFF6FEF7
:1013D0001030002400004742800E47420024F400F1
:1013E00000127A0000000020FFFCFF0F5C01474262
:1013F0005B4A126882435A4B1A60704739B1584AA7
:10140000121D12680243564B1B1D1A6006E0544A17
:10141000121D12688243524B1B1D1A60704739B16E
:101420004F4A0C32126802434D4B0C331A6006E0EF
:101430004B4A0C3212688243494B0C331A60704796
:1014400039B1474A103212680243454B10331A60D3
:1014500006E0434A103212688243414B10331A604F
:10146000704739B13E4A3C32126802433C4B3C3330
:101470001A6006E03A4A3C3212688243384B3C33E9
:101480001A60704739B1364A403212680243344B11
:1014900040331A6006E0324A403212688243304BD1
:1014A00040331A60704739B12D4A44321268024302
:1014B0002B4B44331A6006E0294A443212688243B7
:1014C000274B44331A60704739B1254A4C321268B1
:1014D0000243234B4C331A6006E0214A4C32126817
:1014E00082431F4B4C331A60704739B11C4A50324B
:1014F000126802431A4B50331A6006E0184A503201
:1015000012688243164B50331A60704739B1144A3F
:10151000D21F12780243124BDB1F1A7006E0104AEA
:10152000D21F127882430E4BDB1F1A7070470C4893
:101530006030006840F08070094960310860704791
:1015400001460020064A083A12680A400AB1012002
:1015500000E0002070470249891F087070470000B2
:101560001438024010B50446F748844208D10121DE
:101570008014FFF765FF0021A014FFF761FF16E05C
:10158000F248844208D101210014FFF748FF0021EE
:101590002014FFF744FF0AE0ED48844207D10121FF
:1015A000C013FFF73CFF0021E013FFF738FF10BD29
:1015B00010B50022028802F441520B884C88234364
:1015C0008C882343CC8823430C8923434C892343B1
:1015D0008C892343CC8923431A430280838B4FF2A7
:1015E000FF74234083830B8A038210BD2DE9F04FE3
:1015F000002502230024012700220026944690465D
:101600009146B0F81CA04FF2400B0AEA0B0AA0F872
:101610001CA04FF0020AA0F820A0858BD1F808A0EA
:10162000BAF1020F01D100BF6CE0B1F804A0BAF129
:10163000000F01D1012700E00227DFF818A3DAF834
:1016400000A00AF4000ABAF1000F09D0DFF804A3E1
:10165000DAF800A02AF4000ADFF8F8B2CBF800A00C
:10166000DFF8F0A20AF17C0ADAF800A0CAF38818C1
:10167000DFF8E0A20AF17C0ADAF800A0CAF30279E6
:10168000DFF8D0A2AAF1040ADAF800A00AF03F0CB1
:10169000DFF8C4A2BAFBFCFA0AFB08FABAFBF9F6B7
:1016A000B1F806A0BAF5007F0ED14FEA162A0AEB70
:1016B0008A0A4FEA4A0AD1F808B0BAFBFBFA0AF1E3
:1016C000050A1FFA8AF20FE04FEA471AB6FBFAFA48
:1016D0000AEB8A0A4FEA4A0AD1F808B0BAFBFBFAC9
:1016E0000AF1050A1FFA8AF24FF00A0AB2FBFAF26F
:1016F00002F00104A2EB040ACAF34F034FF6FF7A8B
:101700000AEA0424022B01DBFF2B01DD0223002463
:10171000B1F806A04AEA040A4AEA030AA0F820A09F
:10172000B1F804A0B1F80CB04AEA0B0AB1F802B063
:101730004AEA0B0AB1F800B04AEA0B0A4AF4006A16
:101740004AEA05058583BDE8F08F002101804180CC
:101750008180C180018141818181C1810721018214
:1017600070470021018041808180C1800221816019
:1017700000218181704721B1028842F0400202803D
:1017800004E002884FF6BF731A400280704721B10F
:10179000828B42F48062828304E0828B4FF6FF33B7
:1017A0001A408283704702884FF2FF731A4002800A
:1017B00002880A4302807047B1F5804F04D1028845
:1017C00042F48042028004E002884BF6FF731A4024
:1017D000028070474FF6FF62914204D0028842F4C3
:1017E0008072028004E002884FF6FF631A40028094
:1017F000704721B1828842F00402828004E082882E
:101800004FF6FB731A408280704721B1828842F004
:101810001002828004E082884FF6EF731A408280C3
:10182000704730B500220023848B4FF240052C40D6
:10183000848302240484828B0C88B4F5007F01D059
:101840000C8814B94FF4807308E00C88B4F5407F1D
:1018500003D00C88B4F5807F00D100238C888D895B
:101860002C434D882C431C4344F400642243828360
:1018700030BD0146888970478181704721B1028857
:1018800042F40052028004E002884DF6FF731A40D1
:1018900002807047018841F4805101807047024600
:1018A0000020012901D0108B00E0908A704701468A
:1018B000088A70471AB183880B43838002E08388CB
:1018C0008B438380704730B5002400230C11012521
:1018D000A540ABB21AB185881D43858002E085889A
:1018E0009D43858030BD0246002013890B400BB11B
:1018F000012000E000207047CA4302817047F0B524
:101900000246002000240023002501F00F070126D5
:10191000BE40B4B20B1101269E40B3B2968806EACF
:1019200003051689264016B10DB1012000E0002004
:10193000F0BD10B5002201F00F040123A3409AB2BC
:10194000D343038110BD0000003001400038004047
:10195000003C00400838024000127A0010B5012116
:101960008803FFF76DFD00214FF48040FFF768FD0D
:1019700010BD1A490860704730B500228B071C0F54
:101980000F2303FA04F2154B08338C1053F824305C
:101990009343124C08348D1044F8253023468C10A4
:1019A00053F824308C07240F00FA04F423430B4C23
:1019B00008348D1044F8253030BD0949086070475F
:1019C000084908607047002004492031096801F483
:1019D000807109B1012000E000207047003801400B
:1019E000DC0027420004274210B50446FE4884422A
:1019F00008D101210846FFF723FD00210120FFF750
:101A00001FFD9DE0B4F1804F08D101210846FFF78A
:101A100006FD00210120FFF702FD91E0F34884421A
:101A200008D101210220FFF7FAFC00210220FFF774
:101A3000F6FC85E0EE48844208D101210420FFF73E
:101A4000EEFC00210420FFF7EAFC79E0E94884423B
:101A500008D101210820FFF7E2FC00210820FFF750
:101A6000DEFC6DE0E448844208D101211020FFF73C
:101A7000D6FC00211020FFF7D2FC61E0DF48844251
:101A800008D101212020FFF7CAFC00212020FFF708
:101A9000C6FC55E0DA48844208D101210220FFF754
:101AA000CFFC00210220FFF7CBFC49E0D54884425F
:101AB00009D101210804FFF7C3FC00214FF4803055
:101AC000FFF7BEFC3CE0D048844209D10121480424
:101AD000FFF7B6FC00214FF40030FFF7B1FC2FE018
:101AE000CA48844209D101218804FFF7A9FC0021DA
:101AF0004FF48020FFF7A4FC22E0C548844208D1BF
:101B000001214020FFF78BFC00214020FFF787FCDC
:101B100016E0C048844208D101218020FFF77FFCF5
:101B200000218020FFF77BFC0AE0BB48844207D1FC
:101B300001218015FFF773FC0021A015FFF76FFC52
:101B400010BD00220288A84B98420ED0AC4B9842A0
:101B50000BD0B0F1804F08D0A44B984205D0A44BD5
:101B6000984202D0A34B984204D14FF68F731A408B
:101B70004B881A43A04B984207D0A04B984204D000
:101B80004FF6FF431A400B891A4302804B68C36229
:101B90000B880385944B984202D0994B984201D10F
:101BA0008B7A03860123838270474FF0FF314160B7
:101BB000002101800181418081727047018582820C
:101BC00070470A46002101884FF68F731940114370
:101BD0000180704741627047C16270470146486AA0
:101BE00070470146088D704721B1028842F0020219
:101BF000028004E002884FF6FD731A4002807047AD
:101C000021B1028842F00402028004E002884FF60B
:101C1000FB731A400280704721B1028842F08002B3
:101C2000028004E002884FF67F731A4002807047FA
:101C300002884FF6F7731A40028002880A43028036
:101C4000704702884FF6FF431A40028002880A4319
:101C50000280704721B1028842F00102028004E054
:101C600002884FF6FE731A400280704770B5002458
:101C700000220023058C4FF6FE7635400584028C49
:101C80008388048B4FF68F752C40B51E2C400D8831
:101C90002C43751E2A408D892A434D882A43524D74
:101CA000A84202D0564DA84213D14FF6F7752A40EC
:101CB000CD892A434FF6FB752A408D882A434FF67B
:101CC000FF652B404FF6FF552B400D8A2B434D8A65
:101CD0002B43838004838D684563028470BD70B597
:101CE000002400220023058C4FF6EF763540058452
:101CF000028C8388048B48F6FF752C404FF6FF4515
:101D00002C400D884FF6FF7606EA05252C434FF64A
:101D1000DF752A408D8906EA05152A434D8806EAB3
:101D200005152A43304DA84202D0354DA8421DD199
:101D30004FF67F752A40CD894FF6FF7606EA0515E6
:101D40002A434FF6BF752A408D8806EA05152A43B7
:101D50004FF6FF352B404FF2FF752B400D8A06EAF8
:101D600085052B434D8A06EA85052B438380048332
:101D70008D688563028470BD70B500240022002345
:101D8000058C4FF6FF6635400584028C8388848B72
:101D90004FF68F752C404FF6FC752C400D882C4368
:101DA0004FF6FF552A408D894FF6FF7606EA052546
:101DB0002A434D8806EA05252A430B4DA84202D046
:101DC0000F4DA84238D14FF2FF752A40CD894FF60A
:101DD000FF7606EA05252A434FF6FF352A408D880F
:101DE00006EA05252A4319E00000014000040040EE
:101DF00000080040000C00400010004000140040AB
:101E000000040140004001400044014000480140FE
:101E100000180040001C0040002000404EF6FF75F6
:101E20002B404DF6FF752B400D8A06EA05152B4316
:101E30004D8A06EA05152B43838084838D68C5632C
:101E4000028470BD70B5002200230024058C4EF67C
:101E5000FF7635400584038C8488828B48F6FF75B5
:101E60002A404FF6FF452A400D884FF6FF7606EAD6
:101E700005252A434DF6FF752B408D8906EA053569
:101E80002B434D8806EA05352B43FE4DA84202D070
:101E9000FD4DA84208D14BF6FF752C400D8A4FF638
:101EA000FF7606EA85152C43848082838D6805645D
:101EB000038470BD00210180418081808160818127
:101EC000C18101824182704770B503460020002421
:101ED0001846183001258D40ACB21D8CA5431D84D9
:101EE00009B108290AD100EB610005684FF68F7629
:101EF000354005600568154305600FE00D1FC5F30B
:101F00004E052844056848F6FF76354005600568AB
:101F10004FF6FF7606EA02263543056070BD416341
:101F2000704781637047C1637047016470470A4618
:101F30000021018B4FF68F731940114301837047C5
:101F40000A460021018B48F6FF7319404FF6FF73D4
:101F500003EA02231943018370470A460021818B5B
:101F60004FF68F7319401143818370470A46002151
:101F7000818B48F6FF7319404FF6FF7303EA022383
:101F80001943818370470A460021018B4FF6F7738E
:101F900019401143018370470A460021018B4FF21B
:101FA000FF7319404FF6FF7303EA022319430183BD
:101FB00070470A460021818B4FF6F7731940114391
:101FC000818370470A460021818B4FF2FF731940CD
:101FD0004FF6FF7303EA02231943818370470A46D1
:101FE0000021018B4FF6FB731940114301837047A9
:101FF0000A460021018B4FF6FF3319404FF6FF735D
:1020000003EA02231943018370470A460021818BAA
:102010004FF6FB7319401143818370470A46002134
:10202000818B4FF6FF3319404FF6FF7303EA02230B
:102030001943818370470A460021018B4FF67F7355
:1020400019401143018370470A460021018BC1F3F7
:102050000E014FF6FF7303EA022319430183704711
:102060000A460021818B4FF67F731940114381830B
:1020700070470A460021818BC1F30E014FF6FF73B2
:1020800003EA02231943818370470A460021018C29
:102090004FF6FD7319401143018470470A46002131
:1020A000018C4FF6F77319401143018470470A46BB
:1020B0000021018C4FF6DF7319404FF6FF7303EADE
:1020C00002131943018470470A460021018C4FF620
:1020D0007F7319404FF6FF7303EA0213194301841B
:1020E00070470A460021018C4FF6FF5319404FF606
:1020F000FF7303EA02231943018470470A46002153
:10210000018C4FF2FF7319404FF6FF7303EA02236D
:102110001943018470470A460021018C4DF6FF7374
:1021200019404FF6FF7303EA0233194301847047E5
:1021300030B5002301248C40A3B2048C9C4304845A
:10214000048C02FA01F5ADB22C43048430BD30B5E5
:10215000002304248C40A3B2048C9C430484048C8C
:1021600002FA01F5ADB22C43048430BD828B4FF2EC
:10217000FF331A408283828B4FF6FF7303EA0123F9
:102180001A4382837047F0B50C46154600210022A1
:102190000026078C4EF6FF7C07EA0C070784818B2C
:1021A000028C4FF6FF7707EA043640F6FF473940C6
:1021B0004FF6FF7707EA052739434FF6FF7707EA1F
:1021C0000337394345F6FF773A4046F480573A43A0
:1021D00081830284F0BD828B4FF6F3731A408283B1
:1021E000828B0A4382837047F0B50C461546002166
:1021F00000220026078C4FF6FF6C07EA0C070784C5
:10220000818B028C4FF6FF7707EA04264FF60C7796
:1022100039404FF6FF7707EA03172F4339434FF250
:10222000FF573A4046F480773A4381830284F0BDF9
:10223000028B4FF2FF331A400283028B4FF6FF737B
:1022400003EA01231A4302837047F0B50C46154692
:10225000002100220026078C4FF6EF7C07EA0C07CE
:102260000784018B028C4FF6FF7707EA041640F6CD
:10227000FF4739404FF6FF7707EA033739434FF6F8
:10228000FF7703E0000001400004014007EA052752
:1022900039434FF65F773A4046F010073A430183DF
:1022A0000284F0BD028B4FF6F3731A400283028B57
:1022B0000A4302837047F0B50C4615460021002200
:1022C000068C4FF6FE773E400684018B028C4FF65B
:1022D0000C7631407E1C06EA03162E4331434FF63E
:1022E000F576324044F00106324301830284F0BDAA
:1022F00070B505460C46208850B92389A2886188AC
:102300002846FFF7D8FFE1882846FFF7CBFF25E0F6
:10231000208804280AD12389A28861882846FFF7EB
:1023200094FFE1882846FFF783FF17E020880828FC
:102330000AD12389A28861882846FFF755FFE188E2
:102340002846FFF748FF09E02389A28861882846CC
:10235000FFF719FFE1882846FFF708FF70BD00214D
:1023600001804180012181800021C180018170476D
:102370002DE9F04105460C4600260127608808B982
:10238000022600E00026A088012801D1022700E0F3
:1023900001272088A0B92389A28861882846FFF7F1
:1023A0008AFFE1882846FFF77DFF23893A463146B8
:1023B0002846FFF74AFFE1882846FFF739FF13E078
:1023C0002389A28861882846FFF73FFFE1882846D5
:1023D000FFF72EFF23893A4631462846FFF76BFF69
:1023E000E1882846FFF75EFFBDE8F0810146486BB3
:1023F00070470146886B70470146C86B70470146BD
:10240000086C70470A884B881A438B881A43CB881C
:102410001A430B891A434B891A438B891A43A0F834
:10242000442070470021018041808180C18001816A
:1024300041818181704731B1B0F8442042F40042BB
:10244000A0F8442005E0B0F84420C2F30E02A0F842
:102450004420704721B1828842F00402828004E067
:1024600082884FF6FB731A408280704721B18288C0
:1024700042F00102828004E082884FF6FE731A4027
:10248000828070471AB183890B43838102E083897C
:102490008B43838170478182704702460020138AF4
:1024A0000B400BB1012000E000207047CA430282BC
:1024B000704730B50246002000230024158A05EA43
:1024C0000103958905EA010413B10CB1012000E074
:1024D000002030BDCA430282704741EA0203A0F8DF
:1024E000483070471AB183890B43838102E08389A6
:1024F0008B438381704721B1828842F00802828039
:1025000004E082884FF6F7731A4082807047018991
:102510004FF6F8721140018170470A460021018987
:102520004FF68F73194011430181704730B504464F
:102530000D4629462046FFF7F0FF208940F00700AE
:10254000208130BD2DE9F04104460D4616461F4658
:10255000602D06D13B46012231462046FFF775FE2D
:1025600005E03B46012231462046FFF7A4FE2946FE
:102570002046FFF7D2FF208940F007002081BDE808
:10258000F08130B50C4600210189C9B24FF6FF75C4
:1025900005EA0325154325432943018130BD2DE973
:1025A000F04105460E4617469846002443463A46F3
:1025B00031462846FFF7E5FF2C894FF6F8700440B6
:1025C00044F007044FF68F70044044F070042C81EF
:1025D000BDE8F081F0B504460D4616461F463B4661
:1025E000324629462046FFF7CCFF208940F4804040
:1025F0002081F0BD82884FF68F731A4082808288D6
:102600000A438280704702894FF6F8731A400281AC
:1026100002890A430281704702894FF67F731A408C
:10262000028102890A4302817047F0B50C461546C3
:102630001E460021002200230189028B038C4FF6E5
:10264000F877394021434FF6FC473A4040F20117F2
:102650003A434FF6DD773B404FF6FF7707EA061720
:102660002F433B43018102830384F0BD21B1828863
:1026700042F08002828004E082884FF67F731A4025
:1026800082807047A0F850107047000010B50446D3
:10269000F748844208D101211020FEF7D1FE002125
:1026A0001020FEF7CDFE3EE0F248844209D1012120
:1026B0004804FEF7B4FE00214FF40030FEF7AFFEF1
:1026C00031E0ED48844209D101218804FEF7A7FEDC
:1026D00000214FF48020FEF7A2FE24E0E748844268
:1026E00009D10121C804FEF79AFE00214FF4002011
:1026F000FEF795FE17E0E248844209D10121080562
:10270000FEF78DFE00214FF48010FEF788FE0AE0F0
:10271000DC48844207D101212020FEF791FE0021F0
:102720002020FEF78DFE10BD2DE9FF4705460E4621
:102730000024A14600BFA046B08900B100BF2C8A8A
:1027400024F44054F08804432C82AC8941F20C609C
:102750008443B08831890843718908430443AC81BC
:10276000AC8A24F44074B0890443AC826846FEF716
:1027700026FDBF48854202D0C248854202D1DDF81D
:102780000C9001E0DDF80890A88900F4004040B109
:1027900009EBC90000EB091031684900B0FBF1F703
:1027A00007E009EBC90000EB091031688900B0FBB4
:1027B000F1F76420B7FBF0F004012009642101FB6C
:1027C0001078A88900F4004040B1322000EBC80026
:1027D000B0FBF1F000F00700044308E0322000EB0A
:1027E00008106421B0FBF1F000F00F0004432C81CD
:1027F000BDE8FF874FF41651016000218180C18040
:1028000001810C21418100218181704710B5024670
:102810000020108A20F470600B884C8823438C8839
:102820002343CC8823431843108210BD002101802C
:1028300041808180C180704721B1828942F4005279
:10284000828104E082894DF6FF731A4082817047CD
:10285000028B02F47F420283028B0A430283704799
:1028600021B1828942F40042828103E08289C2F36D
:102870000E028281704721B1828A42F40062828214
:1028800004E0828A4FF2FF731A4082827047C1F3DC
:1028900008028280704701468888C0F308007047AC
:1028A000028A4FF6F0731A400282028A0A430282B9
:1028B000704721B1828942F00202828104E082895C
:1028C0004FF6FD731A408281704782894FF2FF7381
:1028D0001A40828182890A4382817047028A4FF6B8
:1028E000DF731A400282028A0A430282704721B1D2
:1028F000028A42F48042028204E0028A4BF6FF73AD
:102900001A4002827047818941F00101818170473C
:1029100021B1828A42F00802828204E0828A4FF664
:10292000F7731A4082827047028BD2B20283028B05
:1029300042EA01220283704721B1828A42F02002DA
:10294000828204E0828A4FF6DF731A4082827047E7
:1029500021B1828A42F01002828204E0828A4FF61C
:10296000EF731A4082827047828A4FF6FB731A40D7
:102970008282828A0A438282704721B1828A42F02F
:102980000202828204E0828A4FF6FD731A4082823C
:1029900070471AB1838A0B43838202E0838A8B4398
:1029A00083827047F0B503460024002600250020EE
:1029B00040F66A17B94200D100BF1846C1F342146D
:1029C00001F01F06012707FA06F5012C01D10C3092
:1029D00004E0022C01D1103000E014301AB1076875
:1029E0002F43076002E00768AF430760F0BD02466F
:1029F0000020B1F5007F00D100BF13880B400BB160
:102A0000012000E00020704701F40072B2F5007F61
:102A100000D100BFCA430280704770B5024600244F
:102A200000230025002040F66A16B14200D100BF05
:102A3000C1F3421501F01F03012606FA03F3012D2D
:102A400002D19689334006E0022D02D1168A334026
:102A500001E0968A33400C12012606FA04F4168827
:102A6000344013B10CB1012000E0002070BD000023
:102A7000001001400044004000480040004C00406D
:102A8000005000400014014010B50022002340F621
:102A90006A14A14200D100BF0A1201249440A3B2DB
:102AA000DC43048010BD000000F00EF94FF400413B
:102AB0005348FEF751FA00205249087048705249B5
:102AC0000870002414E000250EE0002004EB44010F
:102AD0004E4A02EB4101485504EB44014C4A02EBDB
:102AE00041014855681CC5B2062DEEDB601CC4B21E
:102AF000062CE8DB002427E004EB4400444911F8ED
:102B0000100040F0040004EB4401414A02F81100B7
:102B10001046005D40F008001146085504EB4400E3
:102B200001EB4000407940F0010004EB440102EB6E
:102B30004101487102F11E00005D40F0020102F106
:102B40001E000155601CC4B2062CD5DB304800784D
:102B500040F002002E49087051E02E480078062807
:102B600046D2DFE800F0030F1B2D393E4FF48051B1
:102B70002348FEF7F1F93C2001F055FA01202549E0
:102B800008703BE0502001F00AFD4FF400511C4852
:102B9000FEF7E2F903201F4908702FE000F02EFF36
:102BA0001D4801681DA002F0B3FF2048016820A065
:102BB00002F0AEFF4FF480411148FEF7CDF91DE061
:102BC0004FF400410E48FEF7C7F9C82001F06BFD35
:102BD00007201049087011E040211948FEF7BCF9A0
:102BE0000CE000F00BFA80211548FEF7B5F905E07E
:102BF0004FF400410248FEF7AFF900BF00BFACE759
:102C0000000402401100002010000020EC00002011
:102C1000C80000201500002070000020464C5365BD
:102C20006E736F723A2025640A0000007400002061
:102C3000465253656E736F723A2025640A0A00008B
:102C400000080240704700BFFEE700BFFEE700BF7C
:102C5000FEE700BFFEE770477047704710B51848A1
:102C60000068401C164908600846006800F0010032
:102C700038B914480078012803D102F033FD00F080
:102C800086FB10BD10B52020FDF702FE40B1C82024
:102C900001F0F3FD00F07CFB2020FDF70AFE0DE0C3
:102CA0004FF48070FDF7F4FD40B1C82001F0E5FD60
:102CB00000F075FB4FF48070FDF7FBFD10BD0000C8
:102CC000480000201400002010B501F08DFD01F037
:102CD00007FE01F063FE4FF4165001F0ADFE02F066
:102CE000E2F902F05CFA02F0BDFA4FF48051F848C4
:102CF000FEF730F94FF40051F548FEF72BF94FF489
:102D00008041F348FEF726F94FF40041F048FEF702
:102D100021F94021EF48FEF71DF98021ED48FEF72B
:102D200019F9002002F0C5F9002002F0EFF941F294
:102D3000883001F0A2FD10BD2DE9FE4F8046894686
:102D400017469A460026B8F1000F0AD1B9F1000FD4
:102D500007D1384602F0D2F9504602F0FCF9BDE83E
:102D6000FE8F02F073FA029002F06CFA019038467E
:102D700002F0C4F9504602F0EEF90F2097FBF0F58F
:102D800081E057457FD102F0F9FAD3480068323824
:102D9000D2490968884225DAD14800683238D149D9
:102DA000096888421EDAC82E1ADDCC480068CD4971
:102DB0000968401AC8490968C94A1268891A401A3C
:102DC000192190FBF1F4AC4200DD2C4668428442AC
:102DD00000DA6C42C44804606042C449086052E0B2
:102DE000761C50E0BC4800683238BC49096888420B
:102DF0001DDAC82E19DDB9480068B7490968401ABC
:102E0000192190FBF1F414F10F0F01DA002406E010
:102E1000AC4200DD2C466842844200DA6C42B24883
:102E200004606042B14908602DE0761C2BE0AC489C
:102E300000683238AB49096888421DDAC82E19DDAE
:102E4000A8480068A6490968401A192190FBF1F4C6
:102E500014F10F0F01DA002406E0AC4200DD2C462D
:102E60006842844200DA6C4260429F4908609F4891
:102E7000046008E0761C06E00026002400209A4941
:102E800008609A49086002F0E1F90299401A00903E
:102E9000002801DB009801E0009840424045FFF621
:102EA00070AF02F0CFF90199A0EB010BBBF1000F5D
:102EB00001DB584601E0CBF100004845EFDB002084
:102EC000894908608949086000BF48E770B500205B
:102ED00002F014F9002002F03EF9FDF731FDF12077
:102EE000FDF747FF02215820FDF776FD002414E08E
:102EF00000250FE004EB44027D4B03EB4202515DE1
:102F000004EB440205EB42027A4B03EB8200FDF72F
:102F100035FE6D1C062DEDDB641C062CE8DB6E48CF
:102F2000008881B27448FDF729FE6D48008881B29F
:102F30007148001DFDF722FE7048008881B26E487E
:102F40000830FDF71BFE6E48008881B26A480C30DD
:102F5000FDF714FEFDF701FD70BD10B5002012E075
:102F600000210DE000EB400201EB4202614B13F83F
:102F7000222000EB40035E4C04EB43035A54491CEF
:102F80000629EFD3401C0628EAD310BD5A48083062
:102F9000B0F900005049086057480830B0F9000007
:102FA0004F49086054480830B0F90000544908609F
:102FB00051480830B0F9000050490860704710B51A
:102FC000002402F0DBF94F480068FA2806DD4E487D
:102FD0000068B0F5AF7F01DD44F0010441480068AE
:102FE000B0F5967F01DD44F002043C480068B0F57E
:102FF000AF7F01DD44F00804204610BD70B54FF4EA
:10300000FA6001F03AFC4FF480513148FDF7A2FF1D
:103010004FF400512E48FDF79DFF4FF480412C489E
:10302000FDF798FF4FF400412948FDF793FF402139
:103030002848FDF78FFF80212648FDF78BFF4FF4CE
:1030400080512348FDF788FF4FF480412048FDF769
:1030500083FF1E2002F052F81E2002F07CF80024AC
:103060000DE002F08BF91D480078284908551D48ED
:103070000078274908550F2001F0FFFB641CFF2C46
:10308000EFDD002002F03AF8002002F064F841F28F
:10309000883001F0F2FB0025002403E01B48005DAE
:1030A0000544641CFF2CF9DD2846E91705EB116186
:1030B0000912184A11604FF48076002434E0134955
:1030C000095D144A1268881A002825DB014624E0AD
:1030D0000004024000080240180000207800002090
:1030E0001C0000207C0000208C00002090000020AC
:1030F000C80000200000040800010408240000208B
:103100002000002070000020740000203401002006
:1031100034020020280000204142962903DDFC48AB
:10312000005D2D1A761E641CFF2CC8DD95FBF6F0A1
:10313000F84908600025002403E0F748005D0544D5
:10314000641CFF2CF9DD2846E91705EB1161091213
:10315000F24A11604FF48076002410E0EE49095DD8
:10316000EE4A1268881A002801DB014600E041425D
:10317000962903DDE848005D2D1A761E641CFF2C9D
:10318000ECDD95FBF6F0E54908604FF48051E4482A
:10319000FDF7E0FE4FF48041E148FDF7DBFE42F22F
:1031A000107001F06AFB4FF40051DD48FDF7D4FECA
:1031B0004FF40041DA48FDF7CFFE41F2883001F0CC
:1031C0005CFB00240DE002F0D9F8D6480078D04925
:1031D0000855D5480078D04908550A2001F04DFB24
:1031E000641CFF2CEFDD002001F088FF002001F0BF
:1031F000B2FF4FF4FA6001F040FB0025002403E029
:10320000C348005D0544641CFF2CF9DD2846E9171E
:1032100005EB11610912C54A11604FF48076002454
:1032200010E0BB49095DC14A1268881A002801DB19
:10323000014600E04142962903DDB548005D2D1AA4
:10324000761E641CFF2CECDD95FBF6F0B749086098
:103250000025002403E0B048005D0544641CFF2CF9
:10326000F9DD2846E91705EB11610912B04A116032
:103270004FF48076002410E0A749095DAC4A12683B
:10328000881A002801DB014600E04142962903DD4F
:10329000A148005D2D1A761E641CFF2CECDD95FB09
:1032A000F6F0A34908604FF400519D48FDF752FE27
:1032B0004FF400419A48FDF74DFE41F2883001F08D
:1032C000DCFAFFF703FEFFF761FE70BD10B502F0F8
:1032D00055F898480068B0F5967F01DD012010BDD3
:1032E0000020FCE710B502F049F893480068B0F5FB
:1032F000AF7F01DD012010BD0020FCE710B502F01A
:103300003DF888480068FA2806DD87480068B0F56F
:10331000AF7F01DD012010BD0020FCE770B5002665
:103320002BE002F02BF8854800687E490968401AB6
:10333000162190FBF1F4824800687B490968401A25
:10334000162190FBF1F5082C00DD082414F1080F7C
:1033500001DA6FF00704082D00DD082515F1080FCC
:1033600001DA6FF00705204601F0C8FE284601F09B
:10337000F2FE012001F081FA761CB6F5C87FD0DBA1
:10338000002001F0BBFE002001F0E5FE70BD70479B
:1033900010B54FF400516248FDF7DEFD10BD70B569
:1033A0000126002001F0AAFE002001F0D4FE01F069
:1033B000EDFE01F0EFFE00206249087099E101F096
:1033C00041FF044601F042FF0546002647E001F0B8
:1033D0003DFF05464FF480515148FDF7BDFD4FF4C8
:1033E00000514F48FDF7B8FD4FF480414C48FDF7C0
:1033F000B3FD4FF400414A48FDF7AEFD402152486D
:10340000FDF7AAFD80215048FDF7A6FD4FF4967008
:1034100001F033FA4FF480514148FDF79BFD4FF422
:1034200000513F48FDF796FD4FF480413C48FDF7C1
:1034300091FD4FF400413A48FDF78CFD4021424890
:10344000FDF788FD80214048FDF784FD4FF496701C
:1034500001F013FA761C0A2E01D13C4D02E0B5F5BD
:10346000FA6FB4DC00BF40F6B930844224DA0020A1
:10347000374908704FF480512948FDF76BFD4FF430
:1034800000512748FDF766FD4FF480412448FDF7C1
:1034900061FD4FF400412248FDF75CFD40212A48C0
:1034A000FDF758FD80212848FDF754FD4FF4805169
:1034B0001B48FDF751FD1CE140F6B830844249DD60
:1034C00041F28930844245DA012021490870010324
:1034D0001348FDF73FFD4FF400511148FDF73AFD49
:1034E0004FF480410E48FDF735FD4FF400410C4884
:1034F000FDF730FD40211448FDF72CFD80211248D6
:10350000FDF728FD4FF400510548FDF725FDF0E0DB
:103510003401002028000020340200202C0000206C
:1035200000040240700000207400002030000020E1
:10353000340000207C0000207800002024000020BF
:10354000200000201400002000080240A086010096
:103550001500002041F28830844227DD41F65930C1
:10356000844223DA02206C490870C1026B48FDF7DF
:10357000F1FC4FF400516948FDF7ECFC4FF4804139
:103580006648FDF7E7FC4FF400416448FDF7E2FCB4
:1035900040216348FDF7DEFC80216148FDF7DAFC3D
:1035A0004FF480415D48FDF7D7FCA2E041F658306A
:1035B000844228DD42F22930844224DA032056492D
:1035C00008704FF480515548FDF7C4FC4FF400518A
:1035D0005248FDF7BFFC4FF480415048FDF7BAFC5C
:1035E0004FF400414D48FDF7B5FC40214C48FDF734
:1035F000B1FC80214A48FDF7ADFC4FF4004147483B
:10360000FDF7AAFC75E042F22830844226DD42F63E
:10361000F920844222DA04203F49087081023F48A1
:10362000FDF798FC4FF400513C48FDF793FC4FF434
:1036300080413A48FDF78EFC4FF400413748FDF7D2
:1036400089FC40213648FDF785FC80213448FDF790
:1036500081FC40213248FDF77FFC4AE042F6F82029
:10366000844227DD43F2C920844223DA05202A4917
:1036700008704FF480512948FDF76CFC4FF400515D
:103680002648FDF767FC4FF480412448FDF762FCB3
:103690004FF400412148FDF75DFC40212048FDF733
:1036A00059FC80211E48FDF755FC80211C48FDF780
:1036B00053FC1EE00720184908704FF4805117484A
:1036C000FDF748FC4FF400511448FDF743FC4FF45C
:1036D00080411248FDF73EFC4FF400410F48FDF7D2
:1036E00039FC40210E48FDF735FC80210C48FDF7E0
:1036F00031FC0C4885427FF462AE01F047FD01F0D9
:1037000049FD002001F0FAFC002001F024FD012019
:103710000549087070BD000015000020000402403B
:1037200000080240A0860100140000202DE9F05F8F
:1037300005468A4616462C46002D07DA00231A460F
:1037400019461846FFF7F8FABDE8F09F5A2D0CDD30
:10375000A5F15A02582302FB03F102FB03F03346A2
:103760003246FFF7E9FA5A2400E02C464820C0EB25
:10377000440047F6B721484342F2107190FBF1F044
:103780005821484300FB0AF04FF4B47190FBF1F765
:10379000482000EB440047F6B721484342F210713D
:1037A00090FBF1F05821484300FB0AF04FF4B4714C
:1037B00090FBF1F8002F00DA7F42B8F1000F01DA38
:1037C000C8F1000894B16100483901FB06F000EB34
:1037D000D071491091FBF4FB6100483101FB06F008
:1037E00000EBD071491091FBF4F902E0C6F1000B37
:1037F000B1464B465A4641463846FFF79DFA334696
:10380000324600210846FFF797FA00BF9CE72DE9F2
:10381000F05F0546884616462C46002D07DA002341
:103820001A4619461846FFF787FABDE8F09F5A2D49
:103830000CDDA5F15A02582302FB03F102FB03F051
:1038400033463246FFF778FA5A2400E02C464820E7
:1038500000EB440047F6B721484342F2107190FB59
:10386000F1F05821484300FB08F04FF4B47190FB8D
:10387000F1FA4820C0EB440047F6B721484342F232
:10388000107190FBF1F05821484300FB08F04FF411
:10389000B47190FBF1FB94B16100483101FB06F07B
:1038A00000EBD071491091FBF4F76100483901FB3E
:1038B00006F000EBD071491091FBF4F902E03746B5
:1038C000C6F100094B463A4659465046FFF734FACE
:1038D0003346324600210846FFF72EFA00BFA4E720
:1038E00070B505460C4605E02346224600210846F1
:1038F000FFF722FAFFF7EAFC0028F5D005E023469F
:10390000224600210846FFF717FAFFF7DFFC0028E0
:10391000F5D1234622464FF425610846FFF70CFAFD
:10392000224629465A20FFF772FF70BD70B5054642
:103930000C4605E02346224600210846FFF7FCF925
:10394000FFF7C4FC0028F5D005E0234622460021FD
:103950000846FFF7F1F9FFF7B9FC0028F5D1234637
:1039600022464FF425610846FFF7E6F9224629462C
:103970005A20FFF7DBFE70BD2DE9F04107460E46E9
:103980003C4620490968204A1268881800EBD0712B
:103990004D10B54216DA07E0641E2D1D2B462A464F
:1039A00058210846FFF7C8F9012C01DDB542F3DBC9
:1039B000582204FB02F104FB02F02B462A46FFF7D3
:1039C000BBF915E007E0A41E6D1E2B462A46B02168
:1039D0000846FFF7B1F9022C01DDB542F3DC5822AD
:1039E00004FB02F104FB02F033463246FFF7A4F970
:1039F000BDE8F08110B5FFF791FC10BD10B5FFF7E1
:103A0000DEFA10BD5C00002060000020F0B5034627
:103A10000C4600201BE0002115E0C51A002D01DB3B
:103A20002E4600E06E420A1B002A01DB174600E02A
:103A300057423E4400EB4007DFF824C40CEB470735
:103A40007E544A1CD1B20629E7DB421CD0B20628BC
:103A5000E1DBF0BD70B502460B4600200EE0002110
:103A600008E0232400EB4005FD4E06EB45056C54B1
:103A70004C1CE1B20629F4DB441CE0B20628EEDB64
:103A8000002402EB4205F64E06EB4505EC5470BDF2
:103A900070B5002382E000207CE0002176E000EB9E
:103AA0004004F04D05EB4404645C04F01004002C69
:103AB0006AD0232200EB400405EB4404645C04F06C
:103AC00001047CB900EB4004E54D05EB44054C1CBA
:103AD0002C5D944206DA00EB4004E14D05EB440511
:103AE0004C1C2A5D00EB4004DE4D05EB4404645C95
:103AF00004F0020474B9441C04EB4404D84D05EBF3
:103B00004404645C944205DA441C04EB440405EB71
:103B10004404625C00EB4004D24D05EB4404645C59
:103B200004F004047CB900EB4004CD4D05EB4405E2
:103B30004C1E2C5D944206DA00EB4004C84D05EBA8
:103B400044054C1E2A5D00EB4004C64D05EB4404C1
:103B5000645C04F0080474B9441E04EB4404C04DD2
:103B600005EB4404645C944205DA441E04EB44040F
:103B700005EB4404625C232A06DA541C00EB400582
:103B8000B74E06EB45056C544C1CE1B2062986DBAA
:103B9000441CE0B2062880DB5C1CE3B2242BFFF659
:103BA0007AAF70BD70B500241BE0AFA001F0B0FF8C
:103BB000002510E004EB4400A94A02EB4000405D00
:103BC00004EB440205EB4202A84B98540146A8A01E
:103BD00001F09EFF6D1C062DECDBA7A001F098FF05
:103BE000641C062CE1DB70BD70B5002414E09EA0BF
:103BF00001F08EFF002509E004EB4400994A02EB36
:103C00004000415D9DA001F083FF6D1C062DF3DB9C
:103C100099A001F07DFF641C062CE8DB70BD2DE946
:103C2000FE4F06460F4600244FF480519548FDF79D
:103C300093F90020944908708A48007840F01000F9
:103C40008849087006EB460001EB4000C05D20F09B
:103C5000100006EB4601834A02EB4101C855394684
:103C60003046FFF7F7FEFFF713FF06EB46007D49EE
:103C700001EB4000C05D40F0100006EB4601794AC0
:103C800002EB4101C855FFF78DFFFFF7ADFFA046DE
:103C900007E000207D4901F8080008F1010000F06C
:103CA000FF08B8F1240FF4DB00208DF808008DF830
:103CB00009008AE19DF8080000EB4000684901EB2B
:103CC00040009DF8091010F80190494670A001F0DD
:103CD0001FFF9DF8080000EB4000624901EB400027
:103CE0009DF80910405C00F0010010BB9DF8080031
:103CF00000EB40005A4901EB40019DF80900401CCF
:103D000011F800A00AF10100814512D19DF80800C8
:103D100000EB4000534901EB40019DF80900401CB5
:103D2000085C00F0100020B151465FA001F0F0FEE9
:103D300000259DF8080000EB40004A4901EB4000D7
:103D40009DF80910405C00F0080010BB9DF80800C9
:103D5000401E00EB4000424901EB40009DF8091075
:103D6000405C00900098401C814512D19DF80800ED
:103D7000401E00EB40003B4901EB40009DF809105C
:103D8000405C00F0100020B14CA0009901F0C0FE92
:103D900003259DF8080000EB4000324901EB40008C
:103DA0009DF80910405C00F0040010BB9DF808006D
:103DB00000EB40002A4901EB40019DF80900401E3C
:103DC00011F800B00BF10100814512D19DF80800F7
:103DD00000EB4000234901EB40019DF80900401E23
:103DE000085C00F0100020B1594639A001F090FEA7
:103DF00002259DF8080000EB40001A4901EB400045
:103E00009DF80910405C00F0020030BB9DF80800EE
:103E1000401C00EB4000124901EB40009DF80910E6
:103E2000405C01902FA0019901F072FE0198401CA6
:103E3000814512D19DF80800401C00EB4000094963
:103E400001EB40009DF80910405C00F0100020B12B
:103E50002BA0019901F05CFE012529465AE00000E3
:103E6000EC000020C80000207C00000010010020B1
:103E70002534647C000000000A00000030782578BA
:103E8000207C200000040240400000203403002079
:103E900063757272656E742064697374616E6365B4
:103EA0003A2025640A000000656173745F6E6569DD
:103EB0006768626F723A2025640A00006E6F727440
:103EC000685F6E65696768626F723A2025640A00F0
:103ED000776573745F6E65696768626F723A2025F3
:103EE000640A0000736F7574685F6E656967686265
:103EF0006F72206265666F72653A2025640A000061
:103F0000736F7574685F6E65696768626F723A2077
:103F100025640A00F4A001F0FBFDA54205D10020B4
:103F2000F649F74A1278885427E0032C01D1002083
:103F300000E0601CA84205D10120F049F04A127847
:103F400088541AE00CB9032000E0601EA84205D195
:103F50000321EA48EA4A127881540EE0012C01D18B
:103F6000032003E00CB9022000E0A01EA84204D107
:103F70000221E248E24A127881542C4634B99DF875
:103F80000900401CC0B28DF8090019E0012C06D1CF
:103F90009DF80800401CC0B28DF8080010E0022C0B
:103FA00006D19DF80900401EC0B28DF8090007E057
:103FB000032C05D19DF80800401EC0B28DF8080002
:103FC000CF480078401CCE4908709DF80800B042E8
:103FD00003D19DF80900B84204D0C94800782228CE
:103FE000FFF668AE4FF48051C648FCF7B3FFC6A099
:103FF00001F08EFD4FF0000809E0C04810F80810ED
:10400000C7A001F085FD08F1010000F0FF08BC48E1
:1040100000788045F1DBAFF2A01001F079FDB848DF
:104020000078BDE8FE8F2DE9F04707464FF0000904
:1040300001260524052500210846FFF79DFC4FF4C5
:104040007A7000F01AFC00BFFFF7D8FC00F0010006
:104050000028F9D04FF48051AA48FCF77BFF00BF3D
:10406000FFF7CCFC00F001000028F9D14FF480519B
:10407000A448FCF771FF4FF4FA6000F0FEFB2946FC
:104080002046FFF7C3FC39465A20FFF775FC1E2077
:10409000A4490870A4484078401CA349487078E2BD
:1040A000D3E1FFF7ABFCA149087008460078A049AE
:1040B000097888409E490978C1F104029B49097832
:1040C0001141084300F00F009A4908700846007833
:1040D00040F0100008709448007800EB40009149CF
:1040E00001EB400090494978405C924909780843C7
:1040F0008D49097801EB41018A4A02EB41018A4A64
:1041000052788854FFF7C4FC23208B4908708948F3
:10411000007800F00100C0B98348007800EB40004F
:10412000864901EB400180484078401C085C844986
:104130000870814800780978884206DB804800785A
:104140007D49087000207F4908707A48007800F0A7
:104150000800C0B974480078401E00EB4000774961
:1041600001EB400070494978405C7749087072481B
:1041700000780978884206DD734800786E49087037
:104180000320704908706B48007800F00400C0B943
:104190006548007800EB4000684901EB4001624847
:1041A0004078401E085C69490870634800780978C7
:1041B000884206DD654800785F4908700220614941
:1041C00008705C48007800F00200C0B956480078DA
:1041D000401C00EB4000594901EB4000524949782E
:1041E000405C5B490870544800780978884206DBD7
:1041F00057480078504908700120524908705148CA
:1042000000784B490978884204D13946B420FFF739
:10421000B3FBF4E046480078032801D1002002E017
:1042200043480078401C47490978884227D13946DD
:104230005A20FFF7A1FB3D48007800F0010010B1C3
:10424000FFF7D8FB03E000210846FFF795FB642049
:1042500000F013FB3A4656210020FFF7D8FA002160
:104260000846FFF789FB39465A20FFF785FB3220C5
:1042700000F003FB334800782D490870BFE02C485C
:10428000007808B9032002E029480078401E2D4933
:10429000097888425ED139465A20FFF76DFB2348E2
:1042A000007800F0010010B1FFF7A4FB03E000214B
:1042B0000846FFF761FB642000F0DFFA3A46582118
:1042C0000020FFF733FA00210846FFF755FB394677
:1042D0005A20FFF751FB322000F0CFFA194800783E
:1042E000134908708BE000006E6578745F706F731F
:1042F0006974696F6E3A2025640A00003403002057
:1043000040000020000402407061746820696E2043
:1043100073746F726520706174683A200000000049
:1043200025642000C8000020110000203900002072
:1043300010000020380000203B000020EC0000208E
:104340003C0000203A0000203F0000203E000020FA
:104350003D000020FA480078012801D1032007E041
:10436000F748007808B9022002E0F5480078801E7E
:10437000F4490978884230D139465A20FFF7FCFACF
:10438000F148007800F0010008B1FFF733FB3A462E
:1043900058210020FFF7CAF9EB48007800F001002F
:1043A00008B1FFF727FB3A4658210020FFF7BEF976
:1043B00039465A20FFF7E0FAE1480078012801D198
:1043C000032007E0DE48007808B9022002E0DC485C
:1043D0000078801EDA49087011E00FE0C82000F074
:1043E0004CFA4FF48041D948FCF7B6FDC82000F0E4
:1043F00044FA4FF48041D548FCF7ACFDEEE7D048D5
:10440000007828B9D2484078401CD14948701CE057
:10441000CB480078012805D1CD480078401CCC4914
:10442000087012E0C6480078022805D1C8484078D4
:10443000401EC749487008E0C1480078032804D1ED
:10444000C3480078401EC2490870C1480078A042A5
:104450007FF427AEBE484078A842F9D10021084633
:10446000FFF78AFA0524052529462046FFF7D7FBE2
:104470008046B8F11F0F25DA052E23D004EB440047
:10448000B44901EB4000405D40F0100004EB4401F2
:10449000B04A02EB41014855002400252946204638
:1044A000FFF7B4FA04EB4400AA4901EB4000405D79
:1044B00020F0100004EB4401A64A02EB41014855EC
:1044C000052666E0012E23D104EB4400A14901EB4F
:1044D0004000405D40F0100004EB44019D4A02EBB7
:1044E000410148550024002529462046FFF78EFA51
:1044F00004EB4400974901EB4000405D20F01000C0
:1045000004EB4401934A02EB41014855022640E086
:10451000022E1ED100210846FFF72EFA4FF47A70C2
:1045200000F0ABF939465A20FFF726FA3A465821EF
:104530000020FFF7FBF8FFF75DFA3A46582100200C
:10454000FFF7F4F800210846FFF716FA4FF00109CB
:104550001FE0052E1DD100210846FFF70DFA4FF48C
:104560007A7000F08AF939465A20FFF705FA3A4680
:1045700058210020FFF7DAF8FFF73CFA3A465821B5
:104580000020FFF7D3F800210846FFF7F5F94FF0B8
:104590000109B9F1000F3FF483ADBDE8F08770B5B4
:1045A000054600210846FFF7E7F900BFFFF726FAA6
:1045B00000F001000028F9D04FF400516348FCF7E7
:1045C000C9FC00BFFFF71AFA00F001000028F9D17A
:1045D0004FF400515D48FCF7BFFC4FF4FA6000F067
:1045E0004CF95DA001F094FA002453E06048015DAD
:1045F000AFF2D42001F08CFA5D48005D20B10128B3
:1046000031D0032843D138E05949601C085C0128A7
:104610000FD129465A20FFF7AFF92A465A210846FA
:10462000FFF7F5F829465A20FFF7A6F9601CC4B237
:1046300018E04F49601C085C03280FD129465A2016
:10464000FFF79AF92A465A210846FFF76FF82946DC
:104650005A20FFF791F9601CC4B203E02946B42048
:10466000FFF78AF913E02A465A210020FFF7CFF816
:104670002946B420FFF780F909E02A465A21002094
:10468000FFF754F82946B420FFF776F900BF00BFC2
:10469000601CC4B2374800788442A7DB002108467A
:1046A000FFF76AF970BD70B5054600210846FFF7AF
:1046B00063F900BFFFF7A2F900F001000028F9D06C
:1046C0004FF400512148FCF745FC00BFFFF796F975
:1046D00000F001000028F9D14FF400511B48FCF70D
:1046E0003BFC42F2107000F0C8F8002460E0204863
:1046F000005D20B1012844D0032856D14BE01C496D
:10470000601C085C01280AD129465A20FFF7E8F806
:1047100029465A20FFF730F9601CC4B230E0144932
:10472000601C085C032827D129465A20FFF7FEF8B1
:1047300029465A20FFF720F9601CC4B220E000008F
:10474000100000203A000020390000200004024040
:1047500011000020C80000207061746820696E207C
:1047600072756E6E65725F72756E3A2000000000A1
:1047700034030020400000202946B420FFF7FCF855
:1047800013E02A465A210020FFF741F82946B420B9
:10479000FFF7F2F809E02A465A210020FEF7C6FF8B
:1047A0002946B420FFF7E8F800BF00BF601CC4B280
:1047B0000448007884429ADB00210846FFF7DCF8C1
:1047C00070BD00004000002010B5002807DA0A077D
:1047D000140E3E4A00F00F031B1FD45403E00A07D7
:1047E000130E3B4A135410BD10B501F0F6F801F05A
:1047F00020F9384800684FF47A71B0FBF1F4601E7C
:10480000B0F1807F01D301200FE0601E4FF0E02166
:1048100048610F214FF0FF30FFF7D6FF00204FF027
:10482000E021886107200861002008B100BFFEE791
:104830004FF44070FBF716FD0021481EFFF7C4FF40
:1048400000202549086010BD4FF0E0208069A821B4
:10485000B0FBF1F02049096801EB4102C2EBC11144
:104860004FF47A7202EBC101081A1C49086008462D
:1048700000687047184800687047174A116800BF01
:10488000154A1268521A821AFAD1704710B50346B7
:10489000FFF7DAFF044600BFFFF7D6FF001B181A28
:1048A000FAD110BD10B503460C4600BFFFF7CCFF90
:1048B000001B9842FAD310BD00B5024600BFFFF7B7
:1048C000D9FF401A9042FAD300BD000018ED00E075
:1048D00000E400E0B4000020480000204400002074
:1048E0001CB501210846FCF7FFFC01210220FCF762
:1048F000FBFC01210420FCF7F7FC01210820FCF758
:10490000F3FC41F60410009001208DF80400002013
:104910008DF8060003208DF8050000208DF80700B3
:1049200069461B48FCF79AFA4FF4704000906946BC
:104930001848FCF793FAC020009069461648FCF727
:104940008DFA6020009002208DF80700694610481B
:10495000FCF784FA4FF44060009002208DF80700C5
:1049600069460C48FCF77AFA20210948FCF7F4FA6A
:1049700040210748FCF7F0FA4FF480610548FCF746
:10498000EBFA4FF400610348FCF7E6FA1CBD0000A7
:1049900000000240000402400008024000B585B05B
:1049A00001218803FCF7E4FC01210620FCF79CFCB4
:1049B00005210120FCF7E0FF08210220FCF7DCFFC5
:1049C00000208DF808008DF80B002020019001A92F
:1049D0001748FCF743FA00208DF808008DF80B000B
:1049E0004FF48070019001A91248FCF737FA4FF498
:1049F0009070039000208DF8100008208DF81100B1
:104A000001208DF8120003A8FBF7DCFE17208DF8BB
:104A1000000001208DF8010000208DF80200012027
:104A20008DF803006846FBF722FC05B000BD0000CE
:104A3000000402400008024010B588B0044601217D
:104A40000220FCF751FC01211020FCF791FC072209
:104A50000921A548FCF78DFA07220A21A248FCF794
:104A600088FA00208DF81E0001208DF81F0002201A
:104A70008DF81C004FF4C060069002208DF81D00D8
:104A800006A99948FCF7EAF901219848FDF7E8FEE4
:104A900002940020ADF80C00ADF80E00ADF8100047
:104AA000ADF814000C20ADF812000020ADF80000A5
:104AB0004FF48060ADF802000020ADF80600ADF8BC
:104AC000040002A98948FDF72FFE69468748FDF7D3
:104AD0009DFE01218548FDF7AFFE08B010BD10B561
:104AE00088B0044601210846FCF7FEFB012148047A
:104AF000FCF72DFC072202217B48FCF73AFA07223B
:104B000003217948FCF735FA00208DF81E000120BA
:104B10008DF81F0002208DF81C000C20069002204A
:104B20008DF81D0006A97048FCF798F9012170481E
:104B3000FDF796FE02940020ADF80C00ADF80E00D3
:104B4000ADF81000ADF814000C20ADF812000020F4
:104B5000ADF800004FF48060ADF802000020ADF821
:104B60000600ADF8040002A96148FDF7DDFD6946C5
:104B70005F48FDF74BFE01215D48FDF75DFE08B083
:104B800010BD014600BF704770B504460D46E1B246
:104B90005648FDF77CFE00BF80215448FDF727FFF3
:104BA0000028F9D0204670BD014600BF4F4A128848
:104BB00002F02002002AF9D04C4A9288C2F3080081
:104BC000704710B5044600BF80214848FDF70FFF2D
:104BD0000028F9D0A1B24548FDF759FE204610BD86
:104BE00010B544A000F094FF00BF20213F48FDF71E
:104BF000FEFE0028F9D03D48FDF74DFEC0B210BDC5
:104C000010B545A000F084FF00BF20213748FDF714
:104C1000EEFE0028F9D03548FDF73DFE044621465A
:104C200045A000F075FF3148FDF735FEC0B210BD5C
:104C300010B543A000F06CFF00BF20212B48FDF70A
:104C4000D6FE0028F9D02948FDF725FEA0F1300452
:104C5000214642A000F05CFF2448FDF71CFE3038DE
:104C600010BD10B586B0044621463EA000F050FFAE
:104C700001A943A001F0C6F801A942A000F048FF35
:104C80000BE0214641A000F043FF01A93CA001F048
:104C9000B9F801A93BA000F03BFF214601A801F0B3
:104CA000D7F90028EDD106B010BD38B5044621462D
:104CB00041A000F02DFF694646A001F0A3F827A00F
:104CC000009900F025FF0BE0214643A000F020FFF3
:104CD000694640A001F096F820A0009900F018FF66
:104CE0000098A042F0D138BD000002400010014001
:104CF000004400400D0A707265737320616E792064
:104D00006B657920746F20636F6E74696E75652EA4
:104D10002E2E0D0A0D0A0000706C6561736520650A
:104D20006E746572206120636861726163746F7272
:104D30002E2E2E0D0A00000025630D0A0000000033
:104D4000706C6561736520656E74657220612064A6
:104D5000696769742E2E2E0D0A00000025640D0A65
:104D600000000000507265737320257320746F205B
:104D7000436F6E74696E75652E2E2E203A0000000A
:104D80002573000025730D0A00000000496E76614E
:104D90006C696420696E7075742C20707265737311
:104DA00020257320746F20436F6E74696E75652EB5
:104DB0002E2E203A00000000507265737320256487
:104DC00020746F20436F6E74696E75652E2E2E20D1
:104DD0003A00000025640000496E76616C69642029
:104DE000696E7075742C2070726573732025642051
:104DF000746F20436F6E74696E75652E2E2E203A87
:104E0000000000002DE9F04105464FF4804159486B
:104E1000FCF7A2F840215848FCF79EF8002416E061
:104E2000285D00EB80005549471800260CE000BFC4
:104E300002215348FCF757FD0028F9D03978504833
:104E4000FCF71AFD7F1C761C052EF0DB641C042C7D
:104E5000E6DB00BF02214A48FCF745FD0028F9D0F7
:104E600000BF80214648FCF73EFD0128F9D04021D3
:104E70004148FCF76FF8BDE8F0811CB504462346B5
:104E800040A20521684600F04FFE6846FFF7BAFFD2
:104E90001CBD00B52DED048B85B0B0EE408A18EE38
:104EA000100A02F04BFB41EC190B8DED009B37A271
:104EB000052103A800F038FE03A8FFF7A3FF05B003
:104EC000BDEC048B00BD1CB50446234631A2052170
:104ED000684600F029FE6846FFF794FF1CBD70B5D8
:104EE0000546002406E0285D18B92846FFF78AFF2A
:104EF00070BD641C032CF6DB002407E02819FFF7C3
:104F000081FF4FF47A70FFF7B8FC641CE01C285C4A
:104F10000028F3D100BFEBE710B54FF480411548EE
:104F2000FCF71AF840211448FCF716F800240BE0AF
:104F300000BF02211248FCF7D6FC0028F9D000215E
:104F40000F48FCF799FC641C142CF1DB00BF022114
:104F50000B48FCF7C8FC0028F9D000BF80210848A6
:104F6000FCF7C1FC0128F9D040210348FBF7F2FF10
:104F700010BD000000040240000802402C7600082A
:104F8000003800404525303364000000252E31668E
:104F90000000000025303464000000001CB5012131
:104FA0000420FCF7D4F94FF47070009002208DF8C3
:104FB000040003208DF8050000208DF806008DF810
:104FC000070069466848FBF749FF02220621664848
:104FD000FBF7CFFF022207216348FBF7CAFF02223B
:104FE00008216148FBF7C5FF022209215E48FBF753
:104FF000C0FF1CBD00B589B040F2E7300790032028
:10500000ADF818000020ADF82000ADF81A0006A990
:105010005648FCF796FD6020ADF804000120ADF87D
:1050200006005348008803900020ADF8100001A945
:105030004E48FCF71BFE08214C48FCF7A4FF01205A
:10504000ADF806004B480088039001A94748FCF7DB
:1050500046FE08214548FCF79FFF0120ADF80600F9
:1050600045480088039001A94048FCF785FE0821C7
:105070003E48FCF79EFF0120ADF806003F4800883F
:10508000039001A93948FCF7DDFE08213748FCF7F9
:1050900099FF01213548FCF7BFFD01213348FCF79A
:1050A000D9FD09B000BD10B5FFF778FFFFF7A2FFEB
:1050B00010BDB0F57A7F01DB40F2E73010F57A7F62
:1050C00000DC2F48002807DB284938310860002120
:1050D000264A3432116006E00021244A3832116039
:1050E0004142121F1160214938310968204A11805C
:1050F0001E49343109681F4A1180704700B50346C4
:10510000204803601846FFF7D4FF00BDB0F57A7F52
:1051100001DB40F2E73010F57A7F00DC1848002808
:1051200007DB12493C3108600021104A403211600F
:1051300006E000210D4A3C3211604142121D11600F
:105140000A493C3109680C4A118008494031096814
:105150000A4A1180704700B503460B4803601846A1
:10516000FFF7D4FF00BD000000040240000800402B
:105170005400002056000020580000205A00002053
:1051800019FCFFFF5C000020600000200020324975
:105190000860704700204FF08041486270471CB59E
:1051A00001210920FCF7D3F802208DF8040001202A
:1051B0008DF8070048F20300009069462748FBF786
:1051C0004DFE0820009069462548FBF747FE022265
:1051D00000212248FBF7CDFE022201211F48FBF7E8
:1051E000C8FE01220F211D48FBF7C3FE0122032147
:1051F0001B48FBF7BEFE4FF0FF3117482438FCF781
:10520000EBFC4FF0FF314FF08040FCF7E5FC002352
:105210001A46032110482438FDF707FA022300221A
:1052200003215807FDF701FA01210B482438FCF748
:1052300011FD01218807FCF70DFDFFF7ABFFFFF71C
:10524000A5FF1CBD04480068404270474FF08040F5
:10525000406A404270470000240C004000000240B9
:105260000004024000B58DB001210802FCF780F86F
:1052700001210846FCF738F89020019003208DF8B2
:10528000080000208DF80B0001A93848FBF7E6FD67
:1052900001210220FCF728F8032001908DF8080076
:1052A00000208DF80B0001A93148FBF7D7FD012143
:1052B0000420FCF719F82020019003208DF8080045
:1052C00000208DF80B0001A92A48FBF7C7FDFBF76A
:1052D00039F8002003904FF48030049000200590AE
:1052E0004FF47060069003A8FBF766F80020079063
:1052F0008DF820008DF8210009900B9001208DF889
:10530000300007A91C48FBF728F801211A48FBF7D1
:105310006AF840211548FBF71FFE4FF480611448DE
:10532000FBF71AFE4FF400611148FBF715FE202130
:105330000E48FBF711FE0DB000BD70B505460E46D8
:1053400014462346012231462846FBF78CF82846AE
:10535000FBF7E5F800BF02212846FBF701FA002819
:10536000F9D02846FBF717F970BD00000000024095
:1053700000040240000802400020014010B5042251
:105380000821C848FFF7D9FFC74908600422114621
:10539000C448FFF7D2FFC549086004220F21C14865
:1053A000FFF7CBFFC249086004220721BD48FFF781
:1053B000C4FFC0490860FFF747FA04464021BE48D1
:1053C000FBF7C8FD4FF48061BC48FBF7C3FD2146E5
:1053D0003220FFF767FA04220821B248FFF7ADFF39
:1053E000B1490968401AB04908604021B248FBF74A
:1053F000B3FD4FF48061B148FBF7AEFDAA480068E9
:10540000002802DA0020A849086021469620FFF70C
:1054100049FA4021A848FBF79DFD4FF48061A74859
:10542000FBF798FD2146C820FFF73CFA04221146FD
:105430009C48FFF782FF9D490968401A9B49086014
:1054400040219D48FBF788FD4FF480619B48FBF7A6
:1054500083FD96480068002802DA0020934908601E
:1054600021464FF49670FFF71DFA4FF40061934800
:10547000FBF770FD21464FF4AF70FFF713FA0422DB
:105480000F218848FFF759FF89490968401A884960
:1054900008604FF400618948FBF75EFD84480068AE
:1054A000002802DA00208249086021464FF4C870C3
:1054B000FFF7F8F920218048FBF74CFD21464FF417
:1054C000E170FFF7EFF9042207217648FFF735FF77
:1054D00078490968401A7749086020217648FBF727
:1054E0003BFD74480068002802DA0020714908601A
:1054F000214640F22620FFF7D5F96B480068704935
:10550000096848434FF47A7190FBF1F066490860EE
:10551000664800686A49096848434FF47A7190FB0D
:10552000F1F06249086062480068654909684843CB
:105530004FF47A7190FBF1F05D4908605D480068B6
:105540005F49096848434FF47A7190FBF1F059497B
:10555000086010BD70B5142500205A490860002469
:105560000AE0042203214F48FFF7E7FE5549096886
:10557000084454490860641CAC42F2DB4CF25030E1
:1055800090FBF5F04F49096848434E4908600846CA
:1055900000684D49401A4B490860084600684CF2C3
:1055A000503190FBF1F0474908600868C11700EBE3
:1055B00091718910434A1160444800681146096896
:1055C00008444249086070BD10B5042209213548DD
:1055D000FFF7B3FE3E4908600846006840F22931F3
:1055E00048434FF44B6190FBF1F03A49086010BD1D
:1055F00010B538480068B0F52F7F4ADA0020FFF771
:1056000058FD0020FFF782FD42E033A0FFF7FAFBD0
:105610004FF480512948FBF79DFC4FF40051274877
:10562000FBF798FC4FF480412448FBF793FC4FF4C0
:1056300000412248FBF78EFC40212948FBF78AFCF9
:1056400080212748FBF786FCC820FFF716F9FFF7F3
:1056500063FC4FF480511948FBF77EFC4FF4005176
:105660001648FBF779FC4FF480411448FBF774FCB3
:105670004FF400411148FBF76FFC40211848FBF73D
:105680006BFC80211648FBF767FCC820FFF7F5F894
:10569000BBE710480068FFF716FC4FF47A70FFF77D
:1056A000ECF810BD002001407000002074000020C4
:1056B000780000207C00002000000240000402402E
:1056C000640000208400002020C38A058800002098
:1056D000680000206C0000204C6261740000000033
:1056E000000802402DE9F041FFF7B0FD05463E48B5
:1056F00000682E1A3C4805603C4800683C4909682F
:105700000844841B3B480068A4EB000804EBC40079
:1057100000EB04103849096801EB80003649086045
:1057200040F24C4060430968112202FB01001C2139
:1057300001FB08064FF47A7096FBF0F62D480460E2
:105740002E48006829490968884208D0274800681F
:105750002A49086000202849086026490860FFF7A8
:1057600071FD0546264800682F1A25480560254822
:105770000068254909680844C41B24480068A4EB54
:10578000000804EBC40000EB04102149096801EB98
:1057900080001F49086040F24C40604309681122B4
:1057A00002FB01001C2101FB08074FF47A7097FBF4
:1057B000F0F71048046017480068124909688842E9
:1057C00008D010480068134908600020104908609C
:1057D0000E4908603046FFF76CFC3846FFF796FC30
:1057E000BDE8F08170470000940000205C000020BC
:1057F0008C0000209C000020A000002098000020C9
:10580000A40000206000002090000020AC000020D8
:10581000B0000020A8000020094880470948004740
:10582000FEE7FEE7FEE7FEE7FEE7FEE7FEE7FEE750
:10583000FEE7FEE704480549054A064B70470000AD
:10584000DB59000889010008B8030020B8090020CE
:10585000B8050020B80500200CB50020019000908C
:105860009F48006840F480309D49086000BF9C4814
:10587000006800F4003000900198401C01900098EE
:1058800018B90198B0F5A06FF1D19548006800F4FF
:10589000003010B10120009001E00020009000983D
:1058A000012847D18E484030006840F080508C4934
:1058B000403108608B48006840F4804089490860A6
:1058C0008748083000688649083108600846006843
:1058D00040F4004008600846006840F4A0500860AA
:1058E0008148091F0860081F006840F08070091F88
:1058F000086000BF7A48006800F000700028F9D006
:1059000040F205607949086075480830006820F069
:1059100003007349083108600846006840F002003F
:10592000086000BF6E480830006800F00C000828CE
:10593000F8D151E06A4800686D490840684908603C
:105940000846006840F00100086065484030006883
:1059500040F080506249403108606248006840F47D
:105960008040604908605E48083000685C49083142
:1059700008600846006840F4004008600846006877
:1059800040F4A05008605848091F0860081F0068CC
:1059900040F08070091F086000BF5148006800F0A7
:1059A00000700028F9D040F20560504908604C486A
:1059B0000830006820F003004949083108600846B3
:1059C000006840F00200086000BF454808300068E9
:1059D00000F00C000828F8D10CBD10B5454800684F
:1059E00040F47000434908603D48006840F0010001
:1059F0003B49086000203A4908310860384800688F
:105A00003B490840364908603B48091D0860081FAB
:105A1000006820F48020091F0860002030490C3104
:105A20000860FFF719FF4FF00060324980390860C5
:105A300010BD70B500200022022300240221284D51
:105A400008352D6805F00C0020B1042806D0082880
:105A500034D107E0294D2A4E356033E0294D284ED8
:105A600035602FE01E4D2D1D2D68C5F380541C4D53
:105A70002D1D2D6805F03F0154B1224DB5FBF1F508
:105A8000174E361D3668C6F3881605FB06F209E088
:105A90001A4DB5FBF1F5124E361D3668C6F3881661
:105AA00005FB06F20E4D2D1D2D68C5F301456D1C3D
:105AB0006B00B2FBF3F5124E356003E00F4D104E54
:105AC000356000BF00BF064D08352D68C5F30315CE
:105AD0000D4E705D0A4D2D68C540094E356070BD94
