:020000040800F2
:10000000A006002065250008811D0008831D00084A
:10001000871D00088B1D00088F1D000800000000D0
:10002000000000000000000000000000931D000818
:10003000951D000800000000971D0008991D00088C
:100040007F2500087F2500087F2500087F25000800
:100050007F2500087F2500087F2500087F250008F0
:100060007F2500087F2500087F2500087F250008E0
:100070007F2500087F2500087F2500087F250008D0
:100080007F2500087F2500087F2500087F250008C0
:100090007F2500087F2500087F250008C31D000874
:1000A0007F2500087F2500087F2500087F250008A0
:1000B0007F2500087F2500087F2500087F25000890
:1000C0007F2500087F2500087F2500087F25000880
:1000D0007F2500087F2500087F2500087F25000870
:1000E000DF1D00087F2500087F2500087F25000808
:1000F0007F2500087F2500087F2500087F25000850
:100100007F2500087F2500087F2500087F2500083F
:100110007F2500087F2500087F2500087F2500082F
:100120007F2500087F2500087F2500087F2500081F
:100130007F2500087F2500087F2500087F2500080F
:100140007F2500087F2500087F2500087F250008FF
:100150007F2500087F2500087F2500087F250008EF
:100160007F2500087F2500087F2500087F250008DF
:100170007F2500087F2500087F2500087F250008CF
:100180007F2500087F25000800F002F800F050F8F5
:100190000AA090E8000C82448344AAF10107DA45E2
:1001A00001D100F045F8AFF2090EBAE80F0013F0E4
:1001B000010F18BFFB1A43F0010318471832000063
:1001C00038320000103A24BF78C878C1FAD85207F4
:1001D00024BF30C830C144BF04680C6070470000C1
:1001E0000023002400250026103A28BF78C1FBD840
:1001F000520728BF30C148BF0B607047642902F026
:100200006383632902F01E86732902F0238600208F
:1002100070471FB503F0D0F802F04CFE0400002038
:10022000002103F0B3F8401C60601FBD10B510BD85
:1002300002F086FE1146FFF7ECFF01F05CFD03F0D3
:100240008BF803B4FFF7F2FF03BC01F066FF000078
:1002500032490143324A1160704770B500210023D2
:100260000F22C4781CB32E4C246804F4E064C4F557
:10027000E064C4F30721C1F10404E3B20A41447805
:100280009C40E1B28478144021430C07210E254C98
:1002900005786155047804F01F050124AC40057809
:1002A0006D11AD0005F1E025C5F8004109E00478C5
:1002B00004F01F050124AC401B4D0678761145F86B
:1002C000264070BD194A0A400243154B1B1F1A6095
:1002D000704739B1124A121D12680243104B1B1DA0
:1002E0001A6006E00E4A121D126882430C4B1B1D59
:1002F0001A607047042808D14FF0E021096941F0E5
:1003000004014FF0E022116107E04FF0E02109699C
:1003100021F004014FF0E022116170470000FA055E
:100320000CED00E000E400E080E100E080FFFF1F52
:10033000002044490860091D0860091D0860091D66
:10034000086041483F4914310860704700213D4929
:100350008279002A3AD00A46126803689A430B460B
:100360001A600A1D126803689A430B1D1A6002790D
:1003700011440A6803681A430A60324A0832126854
:1003800003689A432F4B08331A601A1D12680368DA
:100390009A432C4B0C331A604279102A0ED11A1F43
:1003A000126803681A43274B08331A601A1D126833
:1003B00003681A43234B0C331A600DE0214942793C
:1003C00011440A6803681A430A6005E0027911447F
:1003D0000A6803689A430A6070470021016001714E
:1003E0000C21417100218171704716491031096853
:1003F0000143144A10321160704701460020114A2F
:10040000143212680A400AB1012000E0002070474F
:100410000C49143108607047014600200022094B46
:100420001B6803EA0102074B14331B680B4013B12E
:100430000AB1012000E00020704702491431086031
:1004400070470000003C0140FFFF7F0010B50446EC
:100450008C48844208D10121084600F000FB0021AD
:10046000012000F0FCFA5EE08748844208D10121B7
:10047000022000F0F4FA0021022000F0F0FA52E02D
:100480008248844208D10121042000F0E8FA0021CA
:10049000042000F0E4FA46E07D48844208D10121BE
:1004A000082000F0DCFA0021082000F0D8FA3AE039
:1004B0007848844208D10121102000F0D0FA0021B0
:1004C000102000F0CCFA2EE07348844208D10121BC
:1004D000202000F0C4FA0021202000F0C0FA22E021
:1004E0006E48844208D10121402000F0B8FA002172
:1004F000402000F0B4FA16E06948844208D1012196
:10050000802000F0ACFA0021802000F0A8FA0AE078
:100510006448844207D10121801500F0A0FA00212F
:10052000A01500F09CFA10BDF0B50A46002100238A
:10053000002400BF3DE0012505FA01F3156805EA36
:1005400003049C4234D105684F000326BE40B543E6
:10055000056015794E00B54006683543056015798C
:10056000012D02D01579022D16D185684F00032682
:10057000BE40B543856055794E00B5408668354329
:100580008560456801268E40B5434560456896798B
:100590008E40B6B235434560C5684F000326BE4065
:1005A000B543C560D5794E00B540C6683543C560D2
:1005B000491C1029BFD3F0BD4FF6FF710160002127
:1005C000017141718171C171704708B54FF480327A
:1005D0000092009A0A430092009AC261C161009A97
:1005E000C261C2690092C269009208BD0246002041
:1005F00013690B400BB1012000E000207047014659
:10060000086980B270470246002053690B400BB165
:10061000012000E0002070470146486980B2704721
:1006200001837047418370470AB1018300E0418331
:1006300070474161704742694A4042617047F0B576
:10064000002300244D07ED0E02FA05F3CE1000F151
:10065000200555F826504E07F70E0F26BE40B5432D
:10066000CF1000F1200646F82750CE1000F12005EB
:1006700055F8265045EA0304CE1000F1200545F850
:100680002640F0BD00000240000402400008024085
:10069000000C02400010024000140240001802400A
:1006A000001C024000200240FA48006840F00100AF
:1006B000F84908600020F74908310860F5480068EB
:1006C000F5490840F3490860F448091D0860081F0F
:1006D000006820F48020091F08600020ED490C31DB
:1006E000086070470021EB4A921C11701146087097
:1006F000704710B501460022002300204A11012A4C
:1007000002D1E44C236808E0022A03D1E14C7034A2
:10071000236802E0DF4C7434236801F01F020124D7
:1007200094401C400CB1012000E0002010BD38B501
:10073000002000900024002500BF3120FFF7D9FFE2
:1007400005460098401C00900098B0F5A06F01D0BD
:10075000002DF2D03120FFF7CCFF08B1012400E0DA
:100760000024204638BD01460020CA4A106820F007
:10077000F80040EAC10010607047C949086070473E
:100780000021C44A703211701170012802D004286F
:100790000AD104E00121BF4A7032117005E0052141
:1007A000BC4A7032117000E000BF00BF7047BD4905
:1007B0000860704770B5049C41EA82150126C6EBBB
:1007C000530645EA0645054345EA0465B14E361D24
:1007D000356070BDB24908667047820142EA017215
:1007E000AC4B84331A607047AD4988667047AC499A
:1007F000C864704702460020A64B0833186820F0F2
:10080000EC6042EA01031843A24B083318607047BA
:10081000024600209F4B0833186820F0784042EAD7
:10082000010318439B4B08331860704701460020B2
:10083000984A0832106820F003000843106070479F
:1008400094480830006800F00C0070470146002012
:10085000904A0832106820F0F0000843106070479A
:10086000014600208B4A0832106820F4E05008430B
:100870001060704701460020864A0832106820F454
:10088000604040EAC10010607047F0B500210022CE
:1008900000240225002602237E4F08373F6807F018
:1008A0000C0121B1042905D0082937D105E07E4F7C
:1008B000076036E07D4F076033E0764F3F1D3F68AD
:1008C000C7F38056734F3F1D3F6807F03F036EB17B
:1008D000764FB7FBF3F7DFF8BCC10CF1040CDCF882
:1008E00000C0CCF3881C07FB0CF40CE06E4FB7FB88
:1008F000F3F7DFF8A0C10CF1040CDCF800C0CCF376
:10090000881C07FB0CF4634F3F1D3F68C7F301478A
:100910007F1C7D00B4FBF5F7076002E0624F0760C3
:1009200000BF00BF5B4F08373F6807F0F0010909BF
:100930005F4F7A5C0768D7404760564F08373F687B
:1009400007F4E051890A5A4F7A5C4768D7408760BC
:10095000504F08373F6807F46041490B544F7A5CA9
:100960004768D740C760F0BD002100F44072B2F57F
:10097000407F0AD1474A0832116821F4F8114D4AE4
:1009800002401143434A08321160424A70321268F1
:10099000C0F30B031A433F4B70331A607047414951
:1009A0004439086070473F49403908607047424900
:1009B0000860704739B1374A303212680243354B0C
:1009C00030331A6006E0334A303212688243314BCA
:1009D00030331A60704739B12E4A343212680243FC
:1009E0002C4B34331A6006E02A4A343212688243B0
:1009F000284B34331A60704739B1264A38321268AE
:100A00000243244B38331A6006E0224A3832126817
:100A10008243204B38331A60704739B11D4A403247
:100A2000126802431B4B40331A6006E0194A4032F9
:100A300012688243174B40331A60704739B1154A28
:100A4000443212680243134B44331A6006E0114AE1
:100A50004432126882430F4B44331A60704739B1F5
:100A60000C4A1032126802430A4B10331A6006E037
:100A7000084A103212688243064B10331A607047DE
:100A8000E1B1044A143212680243024B14331A6073
:100A900019E0000000380240FFFFF6FE103000248D
:100AA00000004742800E47420024F40000127A0002
:100AB00000000020FFFCFF0F5C0147425B4A126808
:100AC00082435A4B1A60704739B1584A121D126856
:100AD0000243564B1B1D1A6006E0544A121D126851
:100AE0008243524B1B1D1A60704739B14F4A0C327A
:100AF000126802434D4B0C331A6006E04B4A0C322D
:100B000012688243494B0C331A60704739B1474A27
:100B1000103212680243454B10331A6006E0434A14
:100B2000103212688243414B10331A60704739B15A
:100B30003E4A3C32126802433C4B3C331A6006E0AA
:100B40003A4A3C3212688243384B3C331A60704751
:100B500039B1364A403212680243344B40331A608E
:100B600006E0324A403212688243304B40331A600A
:100B7000704739B12D4A4432126802432B4B44333B
:100B80001A6006E0294A443212688243274B4433F4
:100B90001A60704739B1254A4C3212680243234B20
:100BA0004C331A6006E0214A4C32126882431F4BD4
:100BB0004C331A60704739B11C4A503212680243F4
:100BC0001A4B50331A6006E0184A503212688243BA
:100BD000164B50331A60704739B1144AD21F12783D
:100BE0000243124BDB1F1A7006E0104AD21F127824
:100BF00082430E4BDB1F1A7070470C486030006850
:100C000040F080700949603108607047014600205B
:100C1000064A083A12680A400AB1012000E00020A2
:100C200070470249891F087070470000143802405D
:100C300010B50446FE48844208D101210846FFF75A
:100C400065FF00210120FFF761FF9DE0B4F1804FB7
:100C500008D101210846FFF748FF00210120FFF7D6
:100C600044FF91E0F348844208D101210220FFF7BC
:100C70003CFF00210220FFF738FF85E0EE48844268
:100C800008D101210420FFF730FF00210420FFF7E5
:100C90002CFF79E0E948844208D101210820FFF7C0
:100CA00024FF00210820FFF720FF6DE0E448844284
:100CB00008D101211020FFF718FF00211020FFF7B5
:100CC00014FF61E0DF48844208D101212020FFF7B2
:100CD0000CFF00212020FFF708FF55E0DA4884428E
:100CE00008D101210220FFF711FF00210220FFF7A8
:100CF0000DFF49E0D548844209D101210804FFF7DE
:100D000005FF00214FF48030FFF700FF3CE0D048A2
:100D1000844209D101214804FFF7F8FE00214FF475
:100D20000030FFF7F3FE2FE0CA48844209D10121C9
:100D30008804FFF7EBFE00214FF48020FFF7E6FE6A
:100D400022E0C548844208D101214020FFF7CDFEB2
:100D500000214020FFF7C9FE16E0C048844208D1B8
:100D600001218020FFF7C1FE00218020FFF7BDFE9A
:100D70000AE0BB48844207D101218015FFF7B5FE88
:100D80000021A015FFF7B1FE10BD00220288A84B7C
:100D900098420ED0AC4B98420BD0B0F1804F08D0A7
:100DA000A44B984205D0A44B984202D0A34B984242
:100DB00004D14FF68F731A404B881A43A04B9842C8
:100DC00007D0A04B984204D04FF6FF431A400B893E
:100DD0001A4302804B68C3620B880385944B984288
:100DE00002D0994B984201D18B7A038601238382EA
:100DF00070474FF0FF314160002101800181418047
:100E0000817270470185828270470A4600210188FD
:100E10004FF68F731940114301807047416270474C
:100E2000C16270470146486A70470146088D7047A5
:100E300021B1028842F00202028004E002884FF6EB
:100E4000FD731A400280704721B1028842F004020B
:100E5000028004E002884FF6FB731A40028070475C
:100E600021B1028842F08002028004E002884FF63D
:100E70007F731A400280704702884FF6F7731A405A
:100E8000028002880A430280704702884FF6FF43BF
:100E90001A40028002880A430280704721B102880A
:100EA00042F00102028004E002884FF6FE731A400D
:100EB0000280704770B5002400220023058C4FF695
:100EC000FE7635400584028C8388048B4FF68F753F
:100ED0002C40B51E2C400D882C43751E2A408D8950
:100EE0002A434D882A43524DA84202D0564DA8426B
:100EF00013D14FF6F7752A40CD892A434FF6FB757B
:100F00002A408D882A434FF6FF652B404FF6FF5548
:100F10002B400D8A2B434D8A2B43838004838D689D
:100F20004563028470BD70B5002400220023058C47
:100F30004FF6EF7635400584028C8388048B48F6A3
:100F4000FF752C404FF6FF452C400D884FF6FF767D
:100F500006EA05252C434FF6DF752A408D8906EAFF
:100F600005152A434D8806EA05152A43304DA84247
:100F700002D0354DA8421DD14FF67F752A40CD894C
:100F80004FF6FF7606EA05152A434FF6BF752A404D
:100F90008D8806EA05152A434FF6FF352B404FF2A0
:100FA000FF752B400D8A06EA85052B434D8A06EA1C
:100FB00085052B43838004838D688563028470BD1F
:100FC00070B5002400220023058C4FF6FF663540E3
:100FD0000584028C8388848B4FF68F752C404FF6E6
:100FE000FC752C400D882C434FF6FF552A408D8907
:100FF0004FF6FF7606EA05252A434D8806EA0525C1
:101000002A430B4DA84202D00F4DA84238D14FF2CF
:10101000FF752A40CD894FF6FF7606EA05252A435B
:101020004FF6FF352A408D8806EA05252A4319E048
:10103000000001400004004000080040000C004097
:101040000010004000140040000401400040014036
:10105000004401400048014000180040001C0040CE
:10106000002000404EF6FF752B404DF6FF752B40DB
:101070000D8A06EA05152B434D8A06EA05152B4312
:10108000838084838D68C563028470BD70B500223F
:1010900000230024058C4EF6FF7635400584038C32
:1010A0008488828B48F6FF752A404FF6FF452A4018
:1010B0000D884FF6FF7606EA05252A434DF6FF75A3
:1010C0002B408D8906EA05352B434D8806EA053508
:1010D0002B43FE4DA84202D0FD4DA84208D14BF64D
:1010E000FF752C400D8A4FF6FF7606EA85152C43D6
:1010F000848082838D680564038470BD0021018033
:101100004180818081608181C181018241827047FB
:1011100070B50346002000241846183001258D4084
:10112000ACB21D8CA5431D8409B108290AD100EB7E
:10113000610005684FF68F763540056005681543F8
:1011400005600FE00D1FC5F34E052844056848F6FD
:10115000FF763540056005684FF6FF7606EA022601
:101160003543056070BD4163704781637047C1635B
:101170007047016470470A460021018B4FF68F7358
:1011800019401143018370470A460021018B48F63C
:10119000FF7319404FF6FF7303EA022319430183DB
:1011A00070470A460021818B4FF68F731940114317
:1011B000818370470A460021818B48F6FF731940EE
:1011C0004FF6FF7303EA02231943818370470A46EF
:1011D0000021018B4FF6F7731940114301837047CB
:1011E0000A460021018B4FF2FF7319404FF6FF733F
:1011F00003EA02231943018370470A460021818BC9
:101200004FF6F77319401143818370470A46002156
:10121000818B4FF2FF7319404FF6FF7303EA0223ED
:101220001943818370470A460021018B4FF6FB73F7
:1012300019401143018370470A460021018B4FF684
:10124000FF3319404FF6FF7303EA0223194301836A
:1012500070470A460021818B4FF6FB7319401143FA
:10126000818370470A460021818B4FF6FF33194076
:101270004FF6FF7303EA02231943818370470A463E
:101280000021018B4FF67F73194011430183704792
:101290000A460021018BC1F30E014FF6FF7303EAEA
:1012A00002231943018370470A460021818B4FF6C0
:1012B0007F7319401143818370470A460021818B57
:1012C000C1F30E014FF6FF7303EA02231943818332
:1012D00070470A460021018C4FF6FD7319401143F7
:1012E000018470470A460021018C4FF6F7731940BC
:1012F0001143018470470A460021018C4FF6DF73C9
:1013000019404FF6FF7303EA021319430184704733
:101310000A460021018C4FF67F7319404FF6FF7388
:1013200003EA02131943018470470A460021018C25
:101330004FF6FF5319404FF6FF7303EA0223194398
:10134000018470470A460021018C4FF2FF73194057
:101350004FF6FF7303EA02231943018470470A46DC
:101360000021018C4DF6FF7319404FF6FF7303EA1D
:10137000023319430184704730B5002301248C40A7
:10138000A3B2048C9C430484048C02FA01F5ADB230
:101390002C43048430BD30B5002304248C40A3B218
:1013A000048C9C430484048C02FA01F5ADB22C43F6
:1013B000048430BD828B4FF2FF331A408283828BCC
:1013C0004FF6FF7303EA01231A4382837047F0B597
:1013D0000C461546002100220026078C4EF6FF7CA5
:1013E00007EA0C070784818B028C4FF6FF7707EA28
:1013F000043640F6FF4739404FF6FF7707EA0527E6
:1014000039434FF6FF7707EA0337394345F6FF774D
:101410003A4046F480573A4381830284F0BD828B80
:101420004FF6F3731A408283828B0A43828370479C
:10143000F0B50C461546002100220026078C4FF619
:10144000FF6C07EA0C070784818B028C4FF6FF774D
:1014500007EA04264FF60C7739404FF6FF7707EA84
:1014600003172F4339434FF2FF573A4046F4807732
:101470003A4381830284F0BD028B4FF2FF331A405E
:101480000283028B4FF6FF7303EA01231A430283A0
:101490007047F0B50C461546002100220026078C47
:1014A0004FF6EF7C07EA0C070784018B028C4FF69E
:1014B000FF7707EA041640F6FF4739404FF6FF77FB
:1014C00007EA033739434FF6FF7703E00000014096
:1014D0000004014007EA052739434FF65F773A4099
:1014E00046F010073A4301830284F0BD028B4FF6A9
:1014F000F3731A400283028B0A4302837047F0B5EC
:101500000C46154600210022068C4FF6FE773E4021
:101510000684018B028C4FF60C7631407E1C06EA65
:1015200003162E4331434FF6F576324044F0010660
:10153000324301830284F0BD70B505460C46208815
:1015400050B92389A28861882846FFF7D8FFE1882F
:101550002846FFF7CBFF25E0208804280AD12389FD
:10156000A28861882846FFF794FFE1882846FFF7A4
:1015700083FF17E0208808280AD12389A288618880
:101580002846FFF755FFE1882846FFF748FF09E0A6
:101590002389A28861882846FFF719FFE188284639
:1015A000FFF708FF70BD002101804180012181808B
:1015B0000021C180018170472DE9F04105460C46AC
:1015C00000260127608808B9022600E00026A088CE
:1015D000012801D1022700E001272088A0B9238932
:1015E000A28861882846FFF78AFFE1882846FFF72E
:1015F0007DFF23893A4631462846FFF74AFFE188B6
:101600002846FFF739FF13E02389A288618828461E
:10161000FFF73FFFE1882846FFF72EFF23893A4670
:1016200031462846FFF76BFFE1882846FFF75EFF4B
:10163000BDE8F0810146486B70470146886B7047F2
:101640000146C86B70470146086C70470A884B8892
:101650001A438B881A43CB881A430B891A434B8948
:101660001A438B891A43A0F8442070470021018057
:1016700041808180C180018141818181704731B188
:10168000B0F8442042F40042A0F8442005E0B0F84D
:101690004420C2F30E02A0F84420704721B1828892
:1016A00042F00402828004E082884FF6FB731A4005
:1016B0008280704721B1828842F00102828004E07A
:1016C00082884FF6FE731A40828070471AB1838970
:1016D0000B43838102E083898B438381704781823E
:1016E000704702460020138A0B400BB1012000E036
:1016F00000207047CA430282704730B5024600207E
:1017000000230024158A05EA0103958905EA0104EE
:1017100013B10CB1012000E0002030BDCA430282A9
:10172000704741EA0203A0F8483070471AB1838934
:101730000B43838102E083898B438381704721B10E
:10174000828842F00802828004E082884FF6F773B4
:101750001A408280704701894FF6F872114001816A
:1017600070470A46002101894FF68F7319401143D3
:101770000181704730B504460D4629462046FFF7E3
:10178000F0FF208940F00700208130BD2DE9F041B5
:1017900004460D4616461F46602D06D13B460122E3
:1017A00031462046FFF775FE05E03B4601223146F3
:1017B0002046FFF7A4FE29462046FFF7D2FF2089E6
:1017C00040F007002081BDE8F08130B50C460021D3
:1017D0000189C9B24FF6FF7505EA03251543254374
:1017E0002943018130BD2DE9F04105460E461746DB
:1017F0009846002443463A4631462846FFF7E5FF1F
:101800002C894FF6F870044044F007044FF68F70AF
:10181000044044F070042C81BDE8F081F0B504462A
:101820000D4616461F463B46324629462046FFF7E0
:10183000CCFF208940F480402081F0BD82884FF6A3
:101840008F731A40828082880A438280704702899F
:101850004FF6F8731A40028102890A4302817047E9
:1018600002894FF67F731A40028102890A4302817E
:101870007047F0B50C4615461E4600210022002395
:101880000189028B038C4FF6F877394021434FF6DC
:10189000FC473A4040F201173A434FF6DD773B40B0
:1018A0004FF6FF7707EA06172F433B430181028378
:1018B0000384F0BD21B1828842F08002828004E07E
:1018C00082884FF67F731A4082807047A0F85010CC
:1018D0007047000010B50446F748844208D1012142
:1018E0001020FFF713F900211020FFF70FF93EE059
:1018F000F248844209D101214804FFF7F6F800219B
:101900004FF40030FFF7F1F831E0ED48844209D19F
:1019100001218804FFF7E9F800214FF48020FFF748
:10192000E4F824E0E748844209D10121C804FFF724
:10193000DCF800214FF40020FFF7D7F817E0E24869
:10194000844209D101210805FFF7CFF800214FF4A7
:101950008010FFF7CAF80AE0DC48844207D1012171
:101960002020FFF7D3F800212020FFF7CFF810BD8B
:101970002DE9FF4705460E460024A14600BFA046BC
:10198000B08900B100BF2C8A24F44054F08804438D
:101990002C82AC8941F20C608443B08831890843C1
:1019A000718908430443AC81AC8A24F44074B08943
:1019B0000443AC826846FEF768FFBF48854202D008
:1019C000C248854202D1DDF80C9001E0DDF80890B4
:1019D000A88900F4004040B109EBC90000EB0910F0
:1019E00031684900B0FBF1F707E009EBC90000EBF3
:1019F000091031688900B0FBF1F76420B7FBF0F003
:101A000004012009642101FB1078A88900F400403A
:101A100040B1322000EBC800B0FBF1F000F007004D
:101A2000044308E0322000EB08106421B0FBF1F021
:101A300000F00F0004432C81BDE8FF874FF41651DE
:101A4000016000218180C18001810C214181002140
:101A50008181704710B502460020108A20F4706022
:101A60000B884C8823438C882343CC88234318431A
:101A7000108210BD0021018041808180C1807047AB
:101A800021B1828942F40052828104E082894DF6BC
:101A9000FF731A4082817047028B02F47F420283F7
:101AA000028B0A430283704721B1828942F40042CB
:101AB000828103E08289C2F30E028281704721B1E4
:101AC000828A42F40062828204E0828A4FF2FF73CB
:101AD0001A4082827047C1F3080282807047014633
:101AE0008888C0F308007047028A4FF6F0731A40E6
:101AF0000282028A0A430282704721B1828942F03F
:101B00000202828104E082894FF6FD731A408281CD
:101B1000704782894FF2FF731A40828182890A439B
:101B200082817047028A4FF6DF731A400282028A6E
:101B30000A430282704721B1028A42F48042028243
:101B400004E0028A4BF6FF731A40028270478189D3
:101B500041F001018181704721B1828A42F008027F
:101B6000828204E0828A4FF6F7731A4082827047BD
:101B7000028BD2B20283028B42EA012202837047B7
:101B800021B1828A42F02002828204E0828A4FF6EA
:101B9000DF731A408282704721B1828A42F01002BC
:101BA000828204E0828A4FF6EF731A408282704785
:101BB000828A4FF6FB731A408282828A0A438282AB
:101BC000704721B1828A42F00202828204E0828A56
:101BD0004FF6FD731A40828270471AB1838A0B4315
:101BE000838202E0838A8B4383827047F0B5034689
:101BF000002400260025002040F66A17B94200D1D3
:101C000000BF1846C1F3421401F01F06012707FA6E
:101C100006F5012C01D10C3004E0022C01D110306A
:101C200000E014301AB107682F43076002E007682C
:101C3000AF430760F0BD02460020B1F5007F00D140
:101C400000BF13880B400BB1012000E0002070475B
:101C500001F40072B2F5007F00D100BFCA430280D8
:101C6000704770B50246002400230025002040F68E
:101C70006A16B14200D100BFC1F3421501F01F0343
:101C8000012606FA03F3012D02D19689334006E0BE
:101C9000022D02D1168A334001E0968A33400C129D
:101CA000012606FA04F41688344013B10CB1012061
:101CB00000E0002070BD0000001001400044004022
:101CC00000480040004C004000500040001401401B
:101CD00010B50022002340F66A14A14200D100BFD3
:101CE0000A1201249440A3B2DC43048010BD00001A
:101CF00070477047704700F099F800F013F900F052
:101D0000D2FB4FF480511C48FEF78AFC4FF400517F
:101D10001948FEF785FC4FF480411748FEF780FC18
:101D20004FF400411448FEF77BFC40211348FEF7B6
:101D300077FC80211148FEF773FC1BE04FF48051C3
:101D40000D48FEF76FFC4FF400410B48FEF76AFCAC
:101D50004FF4FA7000F0B3F84FF480510648FEF7E4
:101D60005FFC4FF400410448FEF75AFC4FF4FA7050
:101D700000F0A5F8E2E7000000040240000802407D
:101D8000704700BFFEE700BFFEE700BFFEE700BFF1
:101D9000FEE770477047704710B519480068401C4F
:101DA0001749086017480068002802DA0020164921
:101DB000086014480068401E12490860FFF798FF49
:101DC00010BD10B52020FEF727FB38B1C82000F069
:101DD00076F8FFF78EFF2020FEF72FFB10BD10B521
:101DE0004FF40050FEF718FB40B1C82000F067F830
:101DF000FFF780FF4FF40050FEF71FFB10BD0000FF
:101E000014000020280000203404004010B50028F1
:101E100007DA0A07140E3E4A00F00F031B1FD454C2
:101E200003E00A07130E3B4A135410BD10B500F02F
:101E30007AFC00F0A4FC384800684FF47A71B0FBDB
:101E4000F1F4601EB0F1807F01D301200FE0601E2D
:101E50004FF0E02148610F214FF0FF30FFF7D6FF30
:101E600000204FF0E021886107200861002008B1C0
:101E700000BFFEE74FF44070FEF7EAF90021481E6C
:101E8000FFF7C4FF00202549086010BD4FF0E02097
:101E90008069A821B0FBF1F02049096801EB4102FB
:101EA000C2EBC1114FF47A7202EBC101081A1C494E
:101EB0000860084600687047184800687047174A6D
:101EC000116800BF154A1268521A821AFAD1704777
:101ED00010B50346FFF7DAFF044600BFFFF7D6FF51
:101EE000001B181AFAD110BD10B503460C4600BFEE
:101EF000FFF7CCFF001B9842FAD310BD00B5024695
:101F000000BFFFF7D9FF401A9042FAD300BD00008E
:101F100018ED00E000E400E02C0000201400002098
:101F2000100000201CB501210846FEF743FD0121E9
:101F30000220FEF73FFD01210420FEF73BFD0121B9
:101F40000820FEF737FD41F60410009001208DF8BF
:101F5000040000208DF8060003208DF80500002005
:101F60008DF8070069461748FEF7DEFA4FF4704017
:101F7000009069461448FEF7D7FAC02000906946E1
:101F80001248FEF7D1FA8020009002208DF8070059
:101F900069460C48FEF7C8FA8220009002208DF8AE
:101FA000070069460948FEF7BFFA02210748FEF715
:101FB00039FB80210548FEF735FB80210148FEF7FB
:101FC00031FB1CBD0000024000040240000802403A
:101FD00010B588B0044601210220FEF7EBFC012178
:101FE0001020FEF72BFD07220921A548FEF727FB4D
:101FF00007220A21A248FEF722FB00208DF81E00CE
:1020000001208DF81F0002208DF81C004FF4C060E5
:10201000069002208DF81D0006A99948FEF784FA63
:1020200001219848FFF740FD02940020ADF80C0014
:10203000ADF80E00ADF81000ADF814000C20ADF8AE
:1020400012000020ADF800004FF48060ADF80200EF
:102050000020ADF80600ADF8040002A98948FFF79A
:1020600087FC69468748FFF7F5FC01218548FFF7A3
:1020700007FD08B010BD10B588B004460121084620
:10208000FEF798FC01214804FEF7C7FC0722022155
:102090007B48FEF7D4FA072203217948FEF7CFFAEE
:1020A00000208DF81E0001208DF81F0002208DF801
:1020B0001C000C20069002208DF81D0006A9704817
:1020C000FEF732FA01217048FFF7EEFC029400207F
:1020D000ADF80C00ADF80E00ADF81000ADF814002E
:1020E0000C20ADF812000020ADF800004FF4806025
:1020F000ADF802000020ADF80600ADF8040002A91A
:102100006148FFF735FC69465F48FFF7A3FC0121F2
:102110005D48FFF7B5FC08B010BD014600BF704731
:1021200070B504460D46E1B25648FFF7D4FC00BF37
:1021300080215448FFF77FFD0028F9D0204670BD6C
:10214000014600BF4F4A128802F02002002AF9D04F
:102150004C4A9288C2F30800704710B5044600BF8D
:1021600080214848FFF767FD0028F9D0A1B2454813
:10217000FFF7B1FC204610BD10B544A000F06EFB87
:1021800000BF20213F48FFF756FD0028F9D03D4809
:10219000FFF7A5FCC0B210BD10B545A000F05EFB76
:1021A00000BF20213748FFF746FD0028F9D0354809
:1021B000FFF795FC0446214645A000F04FFB31484F
:1021C000FFF78DFCC0B210BD10B543A000F046FB78
:1021D00000BF20212B48FFF72EFD0028F9D0294809
:1021E000FFF77DFCA0F13004214642A000F036FB51
:1021F0002448FFF774FC303810BD10B586B0044693
:1022000021463EA000F02AFB01A943A000F034FCC7
:1022100001A942A000F022FB0BE0214641A000F002
:102220001DFB01A93CA000F027FC01A93BA000F088
:1022300015FB214601A800F045FD0028EDD106B0B0
:1022400010BD38B50446214641A000F007FB6946A1
:1022500046A000F011FC27A0009900F0FFFA0BE067
:10226000214643A000F0FAFA694640A000F004FCC1
:1022700020A0009900F0F2FA0098A042F0D138BDF9
:102280000000024000100140004400400D0A70723E
:1022900065737320616E79206B657920746F20639C
:1022A0006F6E74696E75652E2E2E0D0A0D0A000074
:1022B000706C6561736520656E7465722061206362
:1022C0006861726163746F722E2E2E0D0A00000019
:1022D00025630D0A00000000706C65617365206560
:1022E0006E74657220612064696769742E2E2E0DEC
:1022F0000A00000025640D0A00000000507265739A
:102300007320257320746F20436F6E74696E75653A
:102310002E2E2E203A0000002573000025730D0A92
:1023200000000000496E76616C696420696E70750A
:10233000742C20707265737320257320746F204392
:102340006F6E74696E75652E2E2E203A00000000A7
:10235000507265737320256420746F20436F6E7410
:10236000696E75652E2E2E203A000000256400004F
:10237000496E76616C696420696E7075742C20708A
:102380007265737320256420746F20436F6E7469C7
:102390006E75652E2E2E203A000000001CB501211E
:1023A0000420FEF73AFB4FF47070009002208DF885
:1023B000040003208DF8050000208DF806008DF83C
:1023C000070069466048FEF7AFF8022206215E4822
:1023D000FEF735F9022207215B48FEF730F90222A9
:1023E00008215948FEF72BF9022209215648FEF729
:1023F00026F91CBD00B589B040F2E73007900320F4
:10240000ADF818000020ADF82000ADF81A0006A9BC
:102410004E48FEF7BAFC6020ADF804000120ADF88C
:1024200006004B48008803900020ADF8100001A979
:102430004648FEF73FFD08214448FEF7C8FE01204C
:10244000ADF8060043480088039001A93F48FEF715
:102450006AFD08213D48FEF7C3FE0120ADF80600E5
:102460003D480088039001A93848FEF7A9FD0821DE
:102470003648FEF7C2FE0120ADF806003748008856
:10248000039001A93148FEF701FE08212F48FEF70D
:10249000BDFE01212D48FEF7E3FC01212B48FEF78C
:1024A000FDFC09B000BD10B5FFF778FFFFF7A2FFF4
:1024B00010BDB0F57A7F01DB40F2E73010F57A7F8E
:1024C00000DC2748002807DB204934310860002160
:1024D0001E4A3832116006E000211C4A3432116075
:1024E0004142121D1160194934310968184A11809E
:1024F000164938310968174A11807047B0F57A7F5C
:1025000001DB40F2E73010F57A7F00DC1448002848
:1025100007DB0E493C31086000210C4A4032116053
:1025200006E00021094A3C3211604142121D11604F
:1025300006493C310968084A11800449403109685C
:10254000064A118070470000000402400008004065
:10255000200000202200002024000020260000206F
:1025600019FCFFFF0948804709480047FEE7FEE7DE
:10257000FEE7FEE7FEE7FEE7FEE7FEE7FEE7FEE733
:1025800004480549054A064B704700002727000804
:1025900089010008A0000020A0060020A002002061
:1025A000A00200200CB50020019000909F48006818
:1025B00040F480309D49086000BF9C48006800F4EA
:1025C000003000900198401C0190009818B90198C3
:1025D000B0F5A06FF1D19548006800F4003010B15B
:1025E0000120009001E0002000900098012847D1D0
:1025F0008E484030006840F080508C49403108607F
:102600008B48006840F4804089490860874808305A
:1026100000688649083108600846006840F40040B8
:1026200008600846006840F4A05008608148091F0F
:102630000860081F006840F08070091F086000BF34
:102640007A48006800F000700028F9D040F2056078
:102650007949086075480830006820F00300734924
:10266000083108600846006840F00200086000BFBA
:102670006E480830006800F00C000828F8D151E0DE
:102680006A4800686D490840684908600846006863
:1026900040F00100086065484030006840F080501C
:1026A0006249403108606248006840F480406049F7
:1026B00008605E48083000685C49083108600846D8
:1026C000006840F4004008600846006840F4A050EC
:1026D00008605848091F0860081F006840F08070B3
:1026E000091F086000BF5148006800F00070002812
:1026F000F9D040F20560504908604C480830006845
:1027000020F003004949083108600846006840F09D
:102710000200086000BF45480830006800F00C0067
:102720000828F8D10CBD10B54548006840F4700089
:10273000434908603D48006840F001003B4908609B
:1027400000203A4908310860384800683B49084091
:10275000364908603B48091D0860081F006820F4DE
:102760008020091F0860002030490C310860FFF705
:1027700019FF4FF0006032498039086010BD70B514
:1027800000200022022300240221284D08352D6854
:1027900005F00C0020B1042806D0082834D107E049
:1027A000294D2A4E356033E0294D284E35602FE003
:1027B0001E4D2D1D2D68C5F380541C4D2D1D2D68FB
:1027C00005F03F0154B1224DB5FBF1F5174E361D12
:1027D0003668C6F3881605FB06F209E01A4DB5FB0C
:1027E000F1F5124E361D3668C6F3881605FB06F263
:1027F0000E4D2D1D2D68C5F301456D1C6B00B2FB00
:10280000F3F5124E356003E00F4D104E356000BFFA
:1028100000BF064D08352D68C5F303150D4E705DDC
:102820000A4D2D68C540094E356070BD0038024024
:102830000070004010540007003C0240FFFFF6FE0D
:1028400088ED00E0103000240024F4002C0000206B
:1028500000127A0030000020704700000FB40449D5
:1028600010B503AA029800F0F9FA10BC5DF814FB49
:102870001800002070B50C460546012A05D02878BE
:10288000800600D5EA69002302E0012305E05B1C15
:10289000934202D2E05C0028F9D1A869E618C01A78
:1028A000A861286A184428622846AFF3008004E033
:1028B000D5E9012114F8010B9047B442F8D328461A
:1028C000AFF3008070BD00002DE9F0410646002402
:1028D00010687529314616A510D0AFF30080002886
:1028E00002DA404213A507E031688A0701D512A534
:1028F00002E0490704D511A5012401E0AFF30080EF
:1029000000210A2206F1240709E0B0FBF2FCB0FB2B
:10291000F2F302FB1C00303078541846491C0028A2
:10292000F3D123462A463046BDE8F04100F00EBA06
:10293000000000002D0000002B000000200000001F
:102940002DE9F05F894604464FF0000ADFF824B114
:10295000FB44C0F820A02046E168884700287DD0CD
:10296000252806D0D4E901219047206A401C206226
:10297000F1E700255F462046E168884720280646A3
:1029800007DB312E05D2B81910F8200C08B1054329
:10299000F1E7A80701D525F00405C4F81CA000271D
:1029A000C4F818A02A2E09D0304600F0E7FC38B34E
:1029B00004EB8708303EC8F8186019E059F8041B8A
:1029C000204604EB87029161E1688847012F0646A3
:1029D00018D1E069002820DA25F020051DE0D8F89C
:1029E000180000EB800006EB40003038C8F81800F3
:1029F0002046E1688847064600F0C0FC0028EED17A
:102A0000012F0AD02E2E08D12046E16888477F1C6E
:102A10000646022F45F02005C4DBA069002803DA32
:102A2000404245F00105A061E80701D025F01005FE
:102A3000A6B1A6F14100192802D8203645F4006558
:102A40004A463146204625604D46FDF7D7FB60B12A
:102A5000012807D0ED1D25F0070000E007E000F198
:102A6000080978E705F1040975E730467AE7206A36
:102A7000BDE8F09F6E0A00000FB400B589B00BA846
:102A80006A46009003480A9900F008FA09B05DF818
:102A900014FB00001C0000202DE9FF5F1D464FF0D5
:102AA000FF3B91464FF000085F46D5E90146A96912
:102AB00001987F1C8847296A824688470028F6D1FA
:102AC000BAF1FF3F0CD0002E24F4C06419DD60067B
:102AD00014D5BAF12B0F09D0BAF12D0F0ED103E0A6
:102AE000584604B0BDE8F09F44F48064A969019899
:102AF0007F1C8847761E8246002E02DDBAF1300F19
:102B000003D0B9F1000F26D032E0A969761E0198F2
:102B10007F1C44F400748847002E824605DDBAF11C
:102B2000780F06D0BAF1580F03D0B9F1000F10D0CA
:102B30001EE0B9F1000F02D0B9F1100F18D1A96948
:102B4000761E01987F1C24F400748847824610206A
:102B500002E0082000E00A20814609E0A96908FB9C
:102B60000908761E01987F1C44F400748847824649
:102B7000002E05DD4946504600F082F90028EDDAC6
:102B8000E96901988847A00502D46FF00100A8E721
:102B9000E00725D1600613D5600502D5C8F1000015
:102BA00000E0404629680A1D2A600968220501D50F
:102BB000087015E0220701D5088011E008600FE0D9
:102BC0002868011D29600068210502D580F8008071
:102BD00006E0210702D5A0F8008001E0C0F80080DF
:102BE00038467EE72DE9FF5F4FF00008994614460E
:102BF00046469169D2E901A7DDF838B001988847C7
:102C0000054659EA0B0005D009E0A1690198761C38
:102C100088470546216A284688470028F5D1681C60
:102C200003D05FEACA7005D015E04FF0FF3004B062
:102C3000BDE8F09F2068011D2160D0F800800AE007
:102C40005FEACA7001D108F8015BA169761C01989E
:102C50007F1E88470546002F1ADD681C18D0B9F181
:102C6000000F0DD0E81705EBD060421120F01F00D7
:102C700059F822102A1A012090400142E0D107E0C1
:102C8000BBF1000FDCD12846216A88470028D7D045
:102C9000E16901988847BBF1000F07D1002E05DDDF
:102CA0005FEACA7002D1002188F80010A068B8421B
:102CB00003DDBBF1000F03D017B16FF00100B6E7E1
:102CC0003046B4E74FF0013C50F8042B51F8043B78
:102CD0009A4221D1A2EB0C03934313EACC1317D1F0
:102CE00050F8042B51F8043B9A4215D1A2EB0C0387
:102CF000934313EACC130BD150F8042B51F8043B47
:102D00009A4209D1A2EB0C03934313EACC13DBD014
:102D10004FF00000704700BFD01A01BAB1FA81F13C
:102D200001F0180122FA01F0CB40C1F12001DBB221
:102D3000C0B2C01A2CFA01F3D11A914311EAC3119F
:102D4000E6D1704770477047704770472DE9F047EC
:102D50000D4699469246044600F12408016888060B
:102D600004D5E06921F01001216000E00120A842B3
:102D700001DD471B00E00027A1697A1902EB090079
:102D8000081AA0612078C00602D42046AFF3008064
:102D9000002608E0D4E901211AF806009047206ACD
:102DA000401C761C20624E45F4DB2078C0060AD514
:102DB0002046AFF3008006E0D4E90121302090479F
:102DC000206A401C2062381EA7F10107F4DC07E0EE
:102DD000D4E9012118F805009047206A401C2062C0
:102DE000281EA5F10105F3DC2046AFF30080207812
:102DF000000602D50220BDE8F0870120FBE70000B5
:102E000001694A1C02610878704700B58FB0CDE9AE
:102E100001310021059105497944CDE9031011469E
:102E20006846FFF78DFD0FB000BD0000E5FFFFFF16
:102E300010B5436913B1AFF3008001E0FFF71AFD4D
:102E4000012010BD127800F124010A7000224A709E
:102E50000122EDE711684FF0FF32E9E7074B70B54B
:102E60000D467B44FFF7D1FF0446284600F060F88A
:102E700010B14FF0FF3070BD204670BDBBF2FFFFB8
:102E80003A2800D2303820F02002412A01D3A2F1A2
:102E90003700884201D34FF0FF307047034B7B442B
:102EA0009361034B7B44D36100F00EB89FF2FFFFA8
:102EB0004300000000487047600000200268114491
:102EC0001378016018467047D16005497944516113
:102ED00004497944116200211161114600F05EB885
:102EE000EDFFFFFFB5000000704710B54FF0FF3455
:102EF000C1688A020FD5036B42689A420BD1014622
:102F000090F82520104600F003FA401C01D120461D
:102F100010BD002010BD11F0C00FF8D1026941684A
:102F20009142F4D90268491E521CC0E90021F0E721
:102F3000007B00F080007047004870474000002090
:102F40007546FFF7F9FFAE4605006946534620F087
:102F50000700854618B020B5FFF712FBBDE82040FA
:102F60004FF000064FF000074FF000084FF0000B45
:102F700021F00701AC46ACE8C009ACE8C009ACE8F8
:102F8000C009ACE8C0098D46704710B5044600F092
:102F9000EDF90068005D00F0010010BD2DE9F34F70
:102FA0004FF0000A0C4656468DB001200C9001F1FE
:102FB0000C000B9062690B9801219047051E2DD0E3
:102FC000252D2CD0216A8847C0B162690B98012158
:102FD0009047216A88470028F7D16269411E0B9803
:102FE000904700E0761CA1690D988847216A8847C0
:102FF0000028F7D1E1690D988847DBE7A1690D98B2
:103000008847A842074601D1761CD3E7E1690D98AD
:1030100088477F1C02D1BAF1000F6FD06BE1626963
:103020000B9800273D46394690472A2804D162690B
:103030000B98012190470125DFF8D08262690B9837
:1030400001219047A0F130010A290AD24745E5DC69
:1030500007EB870100EB4107303FDFD445F0100557
:10306000ECE7E90601D46FF000476C280AD04C2841
:1030700014D0682815D06A280DD074281CD07A285E
:103080001AD01DE062690B98012190476C2802D08C
:1030900045F0040514E045F002050DE045F020057B
:1030A0000AE062690B9801219047682802D045F038
:1030B000080505E045F4006562690B980121904719
:1030C000C4E9015765283DD019DC58287AD00CDCBA
:1030D000452837D004DC252826D041289ED131E070
:1030E00046282FD0472899D12CE05B2877D061283B
:1030F00028D063287CD0642823D15AE0F6E06F28DA
:1031000048D008DC66281DD067281BD0692821D04C
:103110006E2816D127E0702845D0732868D075280E
:1031200047D078280DD14DE0A1690D988847252812
:1031300005463FF469AFE1690D9888476D1C3FF47F
:103140006AAFD8E00D9923466A466FF00100AFF3ED
:103150000080C5E045F0400023464FF0000260606B
:10316000A80736D43EE0E8077FF447AF2068011D8A
:1031700021600068290501D506701BE7290701D5E4
:10318000068017E7A90703D5F117C0E9006111E729
:1031900006600FE745F0400023464FF008026060EC
:1031A000A80716D41EE040F60E0125EA0100606073
:1031B00016E045F0400023464FF00A026060A80781
:1031C00007D40FE045F040006060A80708D523460B
:1031D00010220D996FF00100AFF3008080E007E04E
:1031E000102223460D996FF00100FFF755FC77E0A0
:1031F0004FF0000963284F46C8464B46CB4602D0E5
:103200005B2806D038E0E80601D40120A060012741
:1032100032E06269D4F80CB00B98012190475E2827
:1032200007D14FF0010949466269D4F80CB00B98F8
:103230009047216939B900210A4603AB43F82120A0
:10324000491C0829FADBD8B3216949B308F1010800
:1032500062690B98012190475D28F4D1B9F1000F04
:1032600009D0002003A951F82020D24341F82020A2
:10327000401C0828F7DB03AB2069002820794FEABF
:1032800040701ED05B462246CDF80080CDE9019704
:103290000D9900286FF0010020DAAFF300801FE0E5
:1032A000C11703AA00EBD1614B1121F01F0102EB02
:1032B0008302411A13680120884003431360C7E763
:1032C00019E00D99224600286FF00100009702DAFC
:1032D000AFF3008004E0FFF785FC01E0AFF300806E
:1032E00000280ADA401C06D10C9820B14FF0FF30BC
:1032F0000FB0BDE8F08F5046FAE7E90701D10AF1B7
:10330000010A064400200C9054E60000CCCCCC0C02
:10331000CA68431C0FD00D4B1A420CD1D3070AD0F8
:1033200081F825004B680B6300238B6012F0C06F9F
:103330000B6003D004E04FF0FF30704742F00072A2
:10334000034B1A40034B1A43CA60704780200800A1
:10335000BFFFDFFF0010480010B50446AFF3008048
:103360002046BDE81040FCF76CBF000010B5FFF729
:10337000A1FD001D10BD00BF1500000030380A2857
:1033800001D20120704700207047000010B50029CD
:103390000AD00878002807D005487844FFF792FC47
:1033A000002801D0002010BD0248784410BD000064
:1033B0005A000000520000004FF04070E1EE100A89
:1033C0007047040000080000000000000002000137
:1033D000000010000435000800000020400000003C
:1033E000C4010008443500084000002060060000C9
:1033F000E00100081001000043000000F8FFFFFF9B
:1034000000404040404040404040414141414140F7
:1034100040404040404040404040404040404040AC
:10342000400502020202020202020202020202023B
:103430000220202020202020202020020202020240
:103440000202909090909090101010101010101098
:1034500010101010101010101010101002020202A4
:1034600002028888888888880808080808080808E8
:1034700008080808080808080808080802020202E4
:1034800040000000000000000000000000000000FC
:10349000000000000000000000000000000000002C
:1034A000000000000000000000000000000000001C
:1034B000000000000000000000000000000000000C
:1034C00000000000000000000000000000000000FC
:1034D00000000000000000000000000000000000EC
:1034E00000000000000000000000000000000000DC
:1034F00000000000000000000000000000000000CC
:1035000000000000000000000102030401020304A7
:10351000060708090000000000000000000000008D
:10352000000000000000000000000000000000009B
:10353000007A030A000000000000000001020304FA
:043540000607080969
:040000050800018965
:00000001FF
