:020000040800F2
:10000000680900203D5500081D2C00081F2C000821
:10001000232C0008272C00082B2C000800000000CF
:100020000000000000000000000000002F2C00086D
:10003000312C000800000000332C0008352C00088B
:1000400057550008575500085755000857550008E0
:1000500057550008575500085755000857550008D0
:1000600057550008575500085755000857550008C0
:1000700057550008575500085755000857550008B0
:1000800057550008575500085755000857550008A0
:100090005755000857550008575500085D2C0008B3
:1000A0005755000857550008575500085755000880
:1000B0005755000857550008575500085755000870
:1000C0005755000857550008575500085755000860
:1000D0005755000857550008575500085755000850
:1000E0005755000857550008575500085755000840
:1000F0005755000857550008575500085755000830
:10010000575500085755000857550008575500081F
:10011000575500085755000857550008575500080F
:1001200057550008575500085755000857550008FF
:1001300057550008575500085755000857550008EF
:1001400057550008575500085755000857550008DF
:1001500057550008575500085755000857550008CF
:1001600057550008575500085755000857550008BF
:1001700057550008575500085755000857550008AF
:10018000575500085755000800F002F800F058F8DD
:100190000AA090E8000C82448344AAF10107DA45E2
:1001A00001D100F04DF8AFF2090EBAE80F0013F0DC
:1001B000010F18BFFB1A43F0010318470C7500002C
:1001C0002C750000103A24BF78C878C1FAD85207BD
:1001D00024BF30C830C144BF04680C6070470000C1
:1001E0000023002400250026103A28BF78C1FBD840
:1001F000520728BF30C148BF0B607047662907F01F
:100200007980642905F08C83632906F06080732966
:1002100006F06580002070471FB507F066F806F00D
:100220008FF804000020002106F0D2FF401C60601F
:100230000020002106F0B6FFE0601FBD10B510BD24
:1002400006F0B8F91146FFF7E7FF02F02BFC06F0C5
:10025000BDFB03B4FFF7F2FF03BC04F024FB000076
:1002600032490143324A1160704770B500210023C2
:100270000F22C4781CB32E4C246804F4E064C4F547
:10028000E064C4F30721C1F10404E3B20A414478F5
:100290009C40E1B28478144021430C07210E254C88
:1002A00005786155047804F01F050124AC400578F9
:1002B0006D11AD0005F1E025C5F8004109E00478B5
:1002C00004F01F050124AC401B4D0678761145F85B
:1002D000264070BD194A0A400243154B1B1F1A6085
:1002E000704739B1124A121D12680243104B1B1D90
:1002F0001A6006E00E4A121D126882430C4B1B1D49
:100300001A607047042808D14FF0E021096941F0D4
:1003100004014FF0E022116107E04FF0E02109698C
:1003200021F004014FF0E022116170470000FA054E
:100330000CED00E000E400E080E100E080FFFF1F42
:1003400010B50121080201F079F800214FF4807006
:1003500001F074F810BD30B502460020002350684B
:10036000F84C20400D790C6844EA05242043506085
:100370009068F54C2040D1E903542C438D682C4300
:100380004D7944EA450420439060D06A20F470001F
:100390000C7D641EE4B2234340EA0350D06230BDBA
:1003A00000210160017141718160C1600161012121
:1003B000017570470021E54A1168E54A1140D0E90E
:1003C00000231A4383681A43C3681A431143E14A5E
:1003D000C2F8041370470021016041608160C16070
:1003E000704721B1826842F00102826003E08268B6
:1003F00022F00102826070470A4600214168D64B14
:1004000019401143416070474162826270470A4659
:100410000021416821F01F0111434160704738B14C
:10042000CA49096841F40001CA4AC2F8041306E047
:10043000C649096821F40001C64AC2F8041370478E
:1004400038B1C249096841F48001C24AC2F80413B4
:1004500006E0BE49096821F48001BE4AC2F80413CF
:100460007047F0B504460D4600200021092D11DD2E
:10047000E068A5F10A0606EB4607072606FA07F12B
:100480008843A5F10A0606EB460603FA06F108437F
:10049000E0600CE0206905EB4507072606FA07F146
:1004A000884305EB450603FA06F108432061072A55
:1004B0000FDA606B561E06EB86071F2606FA07F159
:1004C0008843561E06EB860605FA06F1084360636C
:1004D00022E00D2A0FDA206BD61F06EB86071F26B7
:1004E00006FA07F18843D61F06EB860605FA06F1E1
:1004F0000843206310E0E06AA2F10D0606EB8607D0
:100500001F2606FA07F18843A2F10D0606EB8606C0
:1005100005FA06F10843E062F0BD816841F08041D0
:1005200081607047014600208A6802F480020AB1A7
:10053000012000E00020704721B1826842F480620F
:10054000826003E0826822F480628260704721B199
:10055000826842F00202826003E0826822F00202B6
:100560008260704710B50A4600210023416821F4DB
:100570006041531E41EA4331416010BD21B14268E0
:1005800042F40062426003E0426822F4006242608A
:1005900070470146C86C80B270476C48001D006807
:1005A000704721B1826842F48072826003E0826801
:1005B00022F480728260704721B1826842F4007236
:1005C000826003E0826822F400728260704738B172
:1005D0005E49096841F400515E4AC2F8041306E01E
:1005E0005A49096821F400515A4AC2F80413704765
:1005F000F0B504461546002000220026092911DD29
:10060000E068A1F10A0707EB470C072707FA0CF28D
:100610009043A1F10A0707EB470703FA07F21043DB
:10062000E0600CE0206901EB410C072707FA0CF2AF
:10063000904301EB410703FA07F210432061A06BDE
:10064000C0F30156EF1C06F1010CA7EB0C0707EBFA
:10065000870C1F2707FA0CF29043EF1C06F1010CE0
:10066000A7EB0C0707EB870701FA07F21043A0631B
:10067000F0BD10B50A4600210023816B21F4401122
:10068000531E41EA0351816310BD08B50023009356
:100690000090009B0B440093009B1A6008BD0A4623
:1006A0000021816821F470211143816070470A465E
:1006B0000021816821F440111143816070478168F5
:1006C00041F4800181607047014600208A6802F48D
:1006D00080020AB1012000E00020704721B1426889
:1006E00042F48062426003E0426822F48062426029
:1006F000704721B1426842F48052426003E0426890
:1007000022F480524260704708B5024600200090F3
:10071000009201F12800009B1844009000980068A6
:1007200080B208BD10B50B460021D9B2012404FAED
:1007300001F11AB144680C43446002E044688C4300
:10074000446010BDFFFEFFFCFDF7FFC00423014025
:10075000E030FCFF00200140FFFD3FFF024600208B
:1007600013680B400BB1012000E000207047CA4322
:100770000260704770B502460020002300240B126F
:10078000556801268E4005EA060415681D4015B11E
:100790000CB1012000E0002070BD00220A12D343FA
:1007A00003607047002044490860091D0860091D66
:1007B0000860091D086041483F49143108607047CE
:1007C00000213D498279002A3AD00A46126803681E
:1007D0009A430B461A600A1D126803689A430B1D60
:1007E0001A60027911440A6803681A430A60324A9F
:1007F0000832126803689A432F4B08331A601A1D97
:10080000126803689A432C4B0C331A604279102A01
:100810000ED11A1F126803681A43274B08331A6057
:100820001A1D126803681A43234B0C331A600DE03B
:100830002149427911440A6803681A430A6005E0B5
:10084000027911440A6803689A430A6070470021DC
:10085000016001710C2141710021817170471649BD
:10086000103109680143144A103211607047014683
:100870000020114A143212680A400AB1012000E037
:10088000002070470C491431086070470146002071
:100890000022094B1B6803EA0102074B14331B6853
:1008A0000B4013B10AB1012000E00020704702495B
:1008B0001431086070470000003C0140FFFF7F00DA
:1008C000FE4A1070704730B1FC49096841F48071EC
:1008D000FA4A116005E0F949096821F48071F74A84
:1008E0001160704730B1F549096841F40071F34A6D
:1008F000116005E0F149096821F40071EF4A1160C7
:10090000704730B1ED49096841F48061EB4A1160EC
:1009100005E0EA49096821F48061E84A11607047FE
:10092000E648006840F40060E44908607047E34826
:10093000006840F48050E14908607047DF4810309B
:10094000006800F0004028B1DD48DC49091D08605E
:10095000DC4808607047D9481030006840F000401B
:10096000D6491031086070470820D4490C31096815
:1009700001F48031B1F5803F01D1012018E0CF4969
:100980000C31096801F0100109B1052010E0CB49D4
:100990000C31096801F0EF0109B1062008E0C749F0
:1009A0000C31096801F0020109B1072000E00820BC
:1009B000704708B508200090FFF7D6FF009002E0CE
:1009C000FFF7D2FF00909DF800000128F8D09DF8B5
:1009D000000008BD70B504460A460026082502B985
:1009E00009E0012A01D1160205E0022A01D116020E
:1009F00001E04FF44076FFF7DCFF0546082D2DD1CE
:100A0000AE481030006820F44070AC4910310860E6
:100A100008460068304308600846006820F0F80087
:100A200008600846006844F002010843A3491031F9
:100A300008600846006840F480300860FFF7B9FF9E
:100A400005469E481030006820F002009B49103196
:100A500008600846006820F0F8000860284670BD6D
:100A600030B5024600250824FFF7A3FF044602B96B
:100A700009E0012A01D1150205E0022A01D115027F
:100A800001E04FF44075082C20D18C4810300068EC
:100A900020F44070894910310860084600682843F6
:100AA00008600846006840F00400086008460068D6
:100AB00040F480300860FFF77CFF04467F48103028
:100AC000006820F004007D4910310860204630BDE8
:100AD00070B5064614461D460822FFF76AFF024617
:100AE000082A1ED175481030006820F44070734900
:100AF000103108600846006840F4407008600846FD
:100B0000006840F00100086034607560FFF751FF35
:100B100002466A481030006820F001006749103131
:100B20000860104670BD30B502460C460825FFF738
:100B300040FF0546082D1DD160481030006820F4A4
:100B400040705E49103108600846006840F400704B
:100B500008600846006840F0010008601460FFF774
:100B600028FF054655481030006820F00100534921
:100B700010310860284630BD30B502460C460825C5
:100B8000FFF717FF0546082D1DD14C4810300068AF
:100B900020F440704949103108600846006840F46C
:100BA000807008600846006840F00100086014800A
:100BB000FFF7FFFE054641481030006820F00100B5
:100BC0003E4910310860284630BD30B502460C461B
:100BD0000825FFF7EEFE0546082D1BD137481030DB
:100BE000006820F4407035491031086008460068FC
:100BF00008600846006840F0010008601470FFF7C4
:100C0000D8FE05462D481030006820F001002B4921
:100C100010310860284630BD28481430006800F0C4
:100C2000010028B128482549083108602748086094
:100C3000704722481430006840F001001F49143109
:100C40000860704730B502460C460825FFF7B1FE34
:100C50000546082D10D13CB1184816300088904345
:100C600016491631088007E014481630008891B202
:100C7000084312491631088030BD10B502460824D9
:100C8000FFF797FE0446082C02D10C48153002707D
:100C900010BDF0B504460D46FF260827FFF789FE74
:100CA0000746082F16D105481430007800F00F06CB
:100CB00045EA060010432043004909E0003C024099
:100CC00023016745AB89EFCD3B2A19087F6E5D4C48
:100CD00014310870F0BD2849097821F00C01264A2A
:100CE00011701146097801431170704700B5082250
:100CF0002148007840F002001F490870FFF759FEB4
:100D00000246104600BD1C480068C0F347107047FB
:100D10001948801C0088704700201749491C097831
:100D2000AA2901D0012000E0002070471248007875
:100D300000F00C00704739B10F4A121F12680243CD
:100D40000D4B1B1F1A6006E00B4A121F12688243EC
:100D5000094B1B1F1A60704701460020064A083ADB
:100D600012680A400AB1012000E0002070470249E1
:100D70000839086070470000143C024010B5044672
:100D80008C48844208D10121084600F000FB002174
:100D9000012000F0FCFA5EE08748844208D101217E
:100DA000022000F0F4FA0021022000F0F0FA52E0F4
:100DB0008248844208D10121042000F0E8FA002191
:100DC000042000F0E4FA46E07D48844208D1012185
:100DD000082000F0DCFA0021082000F0D8FA3AE000
:100DE0007848844208D10121102000F0D0FA002177
:100DF000102000F0CCFA2EE07348844208D1012183
:100E0000202000F0C4FA0021202000F0C0FA22E0E7
:100E10006E48844208D10121402000F0B8FA002138
:100E2000402000F0B4FA16E06948844208D101215C
:100E3000802000F0ACFA0021802000F0A8FA0AE03F
:100E40006448844207D10121801500F0A0FA0021F6
:100E5000A01500F09CFA10BDF0B50A460021002351
:100E6000002400BF3DE0012505FA01F3156805EAFD
:100E700003049C4234D105684F000326BE40B543AD
:100E8000056015794E00B540066835430560157953
:100E9000012D02D01579022D16D185684F00032649
:100EA000BE40B543856055794E00B54086683543F0
:100EB0008560456801268E40B54345604568967952
:100EC0008E40B6B235434560C5684F000326BE402C
:100ED000B543C560D5794E00B540C6683543C56099
:100EE000491C1029BFD3F0BD4FF6FF7101600021EE
:100EF000017141718171C171704708B54FF4803241
:100F00000092009A0A430092009AC261C161009A5D
:100F1000C261C2690092C269009208BD0246002007
:100F200013690B400BB1012000E00020704701461F
:100F3000086980B270470246002053690B400BB12C
:100F4000012000E0002070470146486980B27047E8
:100F500001837047418370470AB1018300E04183F8
:100F600070474161704742694A4042617047F0B53D
:100F7000002300244D07ED0E02FA05F3CE1000F118
:100F8000200555F826504E07F70E0F26BE40B543F4
:100F9000CF1000F1200646F82750CE1000F12005B2
:100FA00055F8265045EA0304CE1000F1200545F817
:100FB0002640F0BD0000024000040240000802404C
:100FC000000C0240001002400014024000180240D1
:100FD000001C024000200240FA48006840F0010076
:100FE000F84908600020F74908310860F5480068B2
:100FF000F5490840F3490860F448091D0860081FD6
:10100000006820F48020091F08600020ED490C31A1
:10101000086070470021EB4A921C1170114608705D
:10102000704710B501460022002300204A11012A12
:1010300002D1E44C236808E0022A03D1E14C703469
:10104000236802E0DF4C7434236801F01F0201249E
:1010500094401C400CB1012000E0002010BD38B5C8
:10106000002000900024002500BF3120FFF7D9FFA9
:1010700005460098401C00900098B0F5A06F01D084
:10108000002DF2D03120FFF7CCFF08B1012400E0A1
:101090000024204638BD01460020CA4A106820F0CE
:1010A000F80040EAC10010607047C9490860704705
:1010B0000021C44A703211701170012802D0042836
:1010C0000AD104E00121BF4A7032117005E0052108
:1010D000BC4A7032117000E000BF00BF7047BD49CC
:1010E0000860704770B5049C41EA82150126C6EB82
:1010F000530645EA0645054345EA0465B14E361DEB
:10110000356070BDB24908667047820142EA0172DB
:10111000AC4B84331A607047AD4988667047AC4960
:10112000C864704702460020A64B0833186820F0B8
:10113000EC6042EA01031843A24B08331860704781
:10114000024600209F4B0833186820F0784042EA9E
:10115000010318439B4B0833186070470146002079
:10116000984A0832106820F0030008431060704766
:1011700094480830006800F00C00704701460020D9
:10118000904A0832106820F0F00008431060704761
:10119000014600208B4A0832106820F4E0500843D2
:1011A0001060704701460020864A0832106820F41B
:1011B000604040EAC10010607047F0B50021002295
:1011C00000240225002602237E4F08373F6807F0DF
:1011D0000C0121B1042905D0082937D105E07E4F43
:1011E000076036E07D4F076033E0764F3F1D3F6874
:1011F000C7F38056734F3F1D3F6807F03F036EB142
:10120000764FB7FBF3F7DFF8BCC10CF1040CDCF848
:1012100000C0CCF3881C07FB0CF40CE06E4FB7FB4E
:10122000F3F7DFF8A0C10CF1040CDCF800C0CCF33C
:10123000881C07FB0CF4634F3F1D3F68C7F3014751
:101240007F1C7D00B4FBF5F7076002E0624F07608A
:1012500000BF00BF5B4F08373F6807F0F001090986
:101260005F4F7A5C0768D7404760564F08373F6842
:1012700007F4E051890A5A4F7A5C4768D740876083
:10128000504F08373F6807F46041490B544F7A5C70
:101290004768D740C760F0BD002100F44072B2F546
:1012A000407F0AD1474A0832116821F4F8114D4AAB
:1012B00002401143434A08321160424A70321268B8
:1012C000C0F30B031A433F4B70331A607047414918
:1012D0004439086070473F494039086070474249C7
:1012E0000860704739B1374A303212680243354BD3
:1012F00030331A6006E0334A303212688243314B91
:1013000030331A60704739B12E4A343212680243C2
:101310002C4B34331A6006E02A4A34321268824376
:10132000284B34331A60704739B1264A3832126874
:101330000243244B38331A6006E0224A38321268DE
:101340008243204B38331A60704739B11D4A40320E
:10135000126802431B4B40331A6006E0194A4032C0
:1013600012688243174B40331A60704739B1154AEF
:10137000443212680243134B44331A6006E0114AA8
:101380004432126882430F4B44331A60704739B1BC
:101390000C4A1032126802430A4B10331A6006E0FE
:1013A000084A103212688243064B10331A607047A5
:1013B000E1B1044A143212680243024B14331A603A
:1013C00019E0000000380240FFFFF6FE1030002454
:1013D00000004742800E47420024F40000127A00C9
:1013E00000000020FFFCFF0F5C0147425B4A1268CF
:1013F00082435A4B1A60704739B1584A121D12681D
:101400000243564B1B1D1A6006E0544A121D126817
:101410008243524B1B1D1A60704739B14F4A0C3240
:10142000126802434D4B0C331A6006E04B4A0C32F3
:1014300012688243494B0C331A60704739B1474AEE
:10144000103212680243454B10331A6006E0434ADB
:10145000103212688243414B10331A60704739B121
:101460003E4A3C32126802433C4B3C331A6006E071
:101470003A4A3C3212688243384B3C331A60704718
:1014800039B1364A403212680243344B40331A6055
:1014900006E0324A403212688243304B40331A60D1
:1014A000704739B12D4A4432126802432B4B443302
:1014B0001A6006E0294A443212688243274B4433BB
:1014C0001A60704739B1254A4C3212680243234BE7
:1014D0004C331A6006E0214A4C32126882431F4B9B
:1014E0004C331A60704739B11C4A503212680243BB
:1014F0001A4B50331A6006E0184A50321268824381
:10150000164B50331A60704739B1144AD21F127803
:101510000243124BDB1F1A7006E0104AD21F1278EA
:1015200082430E4BDB1F1A7070470C486030006816
:1015300040F0807009496031086070470146002022
:10154000064A083A12680A400AB1012000E0002069
:1015500070470249891F0870704700001438024024
:1015600010B50446F748844208D101218014FFF7E2
:1015700065FF0021A014FFF761FF16E0F2488442E6
:1015800008D101210014FFF748FF00212014FFF7C4
:1015900044FF0AE0ED48844207D10121C013FFF760
:1015A0003CFF0021E013FFF738FF10BD10B500220B
:1015B000028802F441520B884C8823438C882343D1
:1015C000CC8823430C8923434C8923438C892343B0
:1015D000CC8923431A430280838B4FF2FF7423404C
:1015E00083830B8A038210BD2DE9F04F002502236F
:1015F0000024012700220026944690469146B0F828
:101600001CA04FF2400B0AEA0B0AA0F81CA04FF0F6
:10161000020AA0F820A0858BD1F808A0BAF1020F29
:1016200001D100BF6CE0B1F804A0BAF1000F01D104
:10163000012700E00227DFF818A3DAF800A00AF477
:10164000000ABAF1000F09D0DFF804A3DAF800A00D
:101650002AF4000ADFF8F8B2CBF800A0DFF8F0A215
:101660000AF17C0ADAF800A0CAF38818DFF8E0A2D1
:101670000AF17C0ADAF800A0CAF30279DFF8D0A2F6
:10168000AAF1040ADAF800A00AF03F0CDFF8C4A2BD
:10169000BAFBFCFA0AFB08FABAFBF9F6B1F806A0A5
:1016A000BAF5007F0ED14FEA162A0AEB8A0A4FEAF2
:1016B0004A0AD1F808B0BAFBFBFA0AF1050A1FFA88
:1016C0008AF20FE04FEA471AB6FBFAFA0AEB8A0AE7
:1016D0004FEA4A0AD1F808B0BAFBFBFA0AF1050A48
:1016E0001FFA8AF24FF00A0AB2FBFAF202F0010482
:1016F000A2EB040ACAF34F034FF6FF7A0AEA042466
:10170000022B01DBFF2B01DD02230024B1F806A030
:101710004AEA040A4AEA030AA0F820A0B1F804A0A1
:10172000B1F80CB04AEA0B0AB1F802B04AEA0B0A67
:10173000B1F800B04AEA0B0A4AF4006A4AEA050521
:101740008583BDE8F08F0021018041808180C180C8
:10175000018141818181C18107210182704700217E
:10176000018041808180C1800221816000218181CE
:10177000704721B1028842F04002028004E00288F2
:101780004FF6BF731A400280704721B1828B42F43A
:101790008062828304E0828B4FF6FF331A4082839B
:1017A000704702884FF2FF731A40028002880A4392
:1017B00002807047B1F5804F04D1028842F4804224
:1017C000028004E002884BF6FF731A4002807047E3
:1017D0004FF6FF62914204D0028842F48072028088
:1017E00004E002884FF6FF631A400280704721B17F
:1017F000828842F00402828004E082884FF6FB7304
:101800001A408280704721B1828842F010028280A3
:1018100004E082884FF6EF731A408280704730B53B
:1018200000220023848B4FF240052C408483022445
:101830000484828B0C88B4F5007F01D00C8814B925
:101840004FF4807308E00C88B4F5407F03D00C8817
:10185000B4F5807F00D100238C888D892C434D887E
:101860002C431C4344F400642243828330BD014670
:10187000888970478181704721B1028842F4005203
:10188000028004E002884DF6FF731A400280704720
:10189000018841F4805101807047024600200129EF
:1018A00001D0108B00E0908A70470146088A70478B
:1018B0001AB183880B43838002E083888B43838043
:1018C000704730B5002400230C110125A540ABB2B0
:1018D0001AB185881D43858002E085889D438580F7
:1018E00030BD0246002013890B400BB1012000E0FF
:1018F00000207047CA4302817047F0B502460020BD
:1019000000240023002501F00F070126BE40B4B2D9
:101910000B1101269E40B3B2968806EA030516898C
:10192000264016B10DB1012000E00020F0BD10B539
:10193000002201F00F040123A3409AB2D343038194
:1019400010BD00000030014000380040003C004065
:101950000838024000127A0010B501218803FFF711
:101960006DFD00214FF48040FFF768FD10BD1A495E
:101970000860704730B500228B071C0F0F2303FA55
:1019800004F2154B08338C1053F824309343124C57
:1019900008348D1044F8253023468C1053F8243039
:1019A0008C07240F00FA04F423430B4C08348D10E9
:1019B00044F8253030BD094908607047084908607F
:1019C0007047002004492031096801F4807109B191
:1019D000012000E00020704700380140DC00274271
:1019E0000004274210B50446FE48844208D1012174
:1019F0000846FFF723FD00210120FFF71FFD9DE0B2
:101A0000B4F1804F08D101210846FFF706FD0021FF
:101A10000120FFF702FD91E0F348844208D1012143
:101A20000220FFF7FAFC00210220FFF7F6FC85E018
:101A3000EE48844208D101210420FFF7EEFC00218A
:101A40000420FFF7EAFC79E0E948844208D101214B
:101A50000820FFF7E2FC00210820FFF7DEFC6DE024
:101A6000E448844208D101211020FFF7D6FC002170
:101A70001020FFF7D2FC61E0DF48844208D1012149
:101A80002020FFF7CAFC00212020FFF7C6FC55E00C
:101A9000DA48844208D101210220FFF7CFFC00215F
:101AA0000220FFF7CBFC49E0D548844209D101214F
:101AB0000804FFF7C3FC00214FF48030FFF7BEFCA1
:101AC0003CE0D048844209D101214804FFF7B6FC2C
:101AD00000214FF40030FFF7B1FC2FE0CA488442E8
:101AE00009D101218804FFF7A9FC00214FF48020CF
:101AF000FFF7A4FC22E0C548844208D10121402020
:101B0000FFF78BFC00214020FFF787FC16E0C04860
:101B1000844208D101218020FFF77FFC0021802032
:101B2000FFF77BFC0AE0BB48844207D10121801506
:101B3000FFF773FC0021A015FFF76FFC10BD00221A
:101B40000288A84B98420ED0AC4B98420BD0B0F113
:101B5000804F08D0A44B984205D0A44B984202D0A5
:101B6000A34B984204D14FF68F731A404B881A4307
:101B7000A04B984207D0A04B984204D04FF6FF43A9
:101B80001A400B891A4302804B68C3620B88038595
:101B9000944B984202D0994B984201D18B7A03869C
:101BA0000123838270474FF0FF31416000210180A3
:101BB00001814180817270470185828270470A46A7
:101BC000002101884FF68F7319401143018070473F
:101BD00041627047C16270470146486A70470146DA
:101BE000088D704721B1028842F00202028004E0B1
:101BF00002884FF6FD731A400280704721B10288B7
:101C000042F00402028004E002884FF6FB731A409F
:101C10000280704721B1028842F08002028004E015
:101C200002884FF67F731A400280704702884FF691
:101C3000F7731A40028002880A43028070470288C4
:101C40004FF6FF431A40028002880A430280704721
:101C500021B1028842F00102028004E002884FF6BE
:101C6000FE731A400280704770B5002400220023E2
:101C7000058C4FF6FE7635400584028C8388048BF4
:101C80004FF68F752C40B51E2C400D882C43751EC9
:101C90002A408D892A434D882A43524DA84202D0BA
:101CA000564DA84213D14FF6F7752A40CD892A43E5
:101CB0004FF6FB752A408D882A434FF6FF652B406F
:101CC0004FF6FF552B400D8A2B434D8A2B438380C3
:101CD00004838D684563028470BD70B500240022C2
:101CE0000023058C4FF6EF7635400584028C8388FF
:101CF000048B48F6FF752C404FF6FF452C400D88AD
:101D00004FF6FF7606EA05252C434FF6DF752A408D
:101D10008D8906EA05152A434D8806EA05152A43EA
:101D2000304DA84202D0354DA8421DD14FF67F75E7
:101D30002A40CD894FF6FF7606EA05152A434FF66D
:101D4000BF752A408D8806EA05152A434FF6FF35F0
:101D50002B404FF2FF752B400D8A06EA85052B4379
:101D60004D8A06EA85052B43838004838D6885634D
:101D7000028470BD70B5002400220023058C4FF64C
:101D8000FF6635400584028C8388848B4FF68F75FF
:101D90002C404FF6FC752C400D882C434FF6FF5518
:101DA0002A408D894FF6FF7606EA05252A434D889D
:101DB00006EA05252A430B4DA84202D00F4DA84242
:101DC00038D14FF2FF752A40CD894FF6FF7606EAEB
:101DD00005252A434FF6FF352A408D8806EA05255A
:101DE0002A4319E0000001400004004000080040C0
:101DF000000C0040001000400014004000040140AE
:101E000000400140004401400048014000180040EB
:101E1000001C0040002000404EF6FF752B404DF6A0
:101E2000FF752B400D8A06EA05152B434D8A06EAFD
:101E300005152B43838084838D68C563028470BD40
:101E400070B5002200230024058C4EF6FF76354045
:101E50000584038C8488828B48F6FF752A404FF6F0
:101E6000FF452A400D884FF6FF7606EA05252A43EE
:101E70004DF6FF752B408D8906EA05352B434D88BD
:101E800006EA05352B43FE4DA84202D0FD4DA8427F
:101E900008D14BF6FF752C400D8A4FF6FF7606EA07
:101EA00085152C43848082838D680564038470BD0E
:101EB000002101804180818081608181C181018216
:101EC0004182704770B50346002000241846183040
:101ED00001258D40ACB21D8CA5431D8409B1082994
:101EE0000AD100EB610005684FF68F76354005603A
:101EF0000568154305600FE00D1FC5F34E05284426
:101F0000056848F6FF763540056005684FF6FF76B0
:101F100006EA02263543056070BD41637047816360
:101F20007047C1637047016470470A460021018B06
:101F30004FF68F7319401143018370470A46002101
:101F4000018B48F6FF7319404FF6FF7303EA022333
:101F50001943018370470A460021818B4FF68F7326
:101F600019401143818370470A460021818B48F64E
:101F7000FF7319404FF6FF7303EA0223194381836D
:101F800070470A460021018B4FF6F7731940114341
:101F9000018370470A460021018B4FF2FF731940FD
:101FA0004FF6FF7303EA02231943018370470A4681
:101FB0000021818B4FF6F7731940114381837047DD
:101FC0000A460021818B4FF2FF7319404FF6FF73D1
:101FD00003EA02231943818370470A460021018BDB
:101FE0004FF6FB7319401143018370470A460021E5
:101FF000018B4FF6FF3319404FF6FF7303EA0223BC
:102000001943018370470A460021818B4FF6FB7309
:1020100019401143818370470A460021818B4FF696
:10202000FF3319404FF6FF7303EA022319438183FC
:1020300070470A460021018B4FF67F731940114308
:10204000018370470A460021018BC1F30E014FF650
:10205000FF7303EA02231943018370470A460021F4
:10206000818B4FF67F7319401143818370470A4675
:102070000021818BC1F30E014FF6FF7303EA0223A7
:102080001943818370470A460021018C4FF6FD7386
:1020900019401143018470470A460021018C4FF614
:1020A000F77319401143018470470A460021018CDF
:1020B0004FF6DF7319404FF6FF7303EA021319431B
:1020C000018470470A460021018C4FF67F73194046
:1020D0004FF6FF7303EA02131943018470470A465F
:1020E0000021018C4FF6FF5319404FF6FF7303EAAE
:1020F00002231943018470470A460021018C4FF2E4
:10210000FF7319404FF6FF7303EA0223194301845A
:1021100070470A460021018C4DF6FF7319404FF6B7
:10212000FF7303EA023319430184704730B500237B
:1021300001248C40A3B2048C9C430484048C02FAD6
:1021400001F5ADB22C43048430BD30B50023042426
:102150008C40A3B2048C9C430484048C02FA01F5E5
:10216000ADB22C43048430BD828B4FF2FF331A4052
:102170008283828B4FF6FF7303EA01231A43828323
:102180007047F0B50C461546002100220026078C4A
:102190004EF6FF7C07EA0C070784818B028C4FF612
:1021A000FF7707EA043640F6FF4739404FF6FF77DE
:1021B00007EA052739434FF6FF7707EA0337394324
:1021C00045F6FF773A4046F480573A4381830284CC
:1021D000F0BD828B4FF6F3731A408283828B0A43E1
:1021E00082837047F0B50C46154600210022002678
:1021F000078C4FF6FF6C07EA0C070784818B028C73
:102200004FF6FF7707EA04264FF60C7739404FF672
:10221000FF7707EA03172F4339434FF2FF573A403E
:1022200046F480773A4381830284F0BD028B4FF2FB
:10223000FF331A400283028B4FF6FF7303EA012338
:102240001A4302837047F0B50C4615460021002260
:102250000026078C4FF6EF7C07EA0C070784018BFA
:10226000028C4FF6FF7707EA041640F6FF47394025
:102270004FF6FF7707EA033739434FF6FF7703E05E
:10228000000001400004014007EA052739434FF6EA
:102290005F773A4046F010073A4301830284F0BD6D
:1022A000028B4FF6F3731A400283028B0A430283B8
:1022B0007047F0B50C46154600210022068C4FF6FB
:1022C000FE773E400684018B028C4FF60C7631403F
:1022D0007E1C06EA03162E4331434FF6F576324054
:1022E00044F00106324301830284F0BD70B5054617
:1022F0000C46208850B92389A28861882846FFF7B8
:10230000D8FFE1882846FFF7CBFF25E02088042886
:102310000AD12389A28861882846FFF794FFE188C3
:102320002846FFF783FF17E0208808280AD1238971
:10233000A28861882846FFF755FFE1882846FFF705
:1023400048FF09E02389A28861882846FFF719FF22
:10235000E1882846FFF708FF70BD00210180418019
:10236000012181800021C180018170472DE9F04168
:1023700005460C4600260127608808B9022600E0C1
:102380000026A088012801D1022700E0012720882B
:10239000A0B92389A28861882846FFF78AFFE188CF
:1023A0002846FFF77DFF23893A4631462846FFF746
:1023B0004AFFE1882846FFF739FF13E02389A28806
:1023C00061882846FFF73FFFE1882846FFF72EFF88
:1023D00023893A4631462846FFF76BFFE1882846B5
:1023E000FFF75EFFBDE8F0810146486B704701468C
:1023F000886B70470146C86B70470146086C704790
:102400000A884B881A438B881A43CB881A430B8956
:102410001A434B891A438B891A43A0F8442070470A
:102420000021018041808180C180018141818181C1
:10243000704731B1B0F8442042F40042A0F8442083
:1024400005E0B0F84420C2F30E02A0F84420704723
:1024500021B1828842F00402828004E082884FF633
:10246000FB731A408280704721B1828842F00102DA
:10247000828004E082884FF6FE731A4082807047A3
:102480001AB183890B43838102E083898B43838163
:1024900070478182704702460020138A0B400BB1BF
:1024A000012000E000207047CA430282704730B527
:1024B0000246002000230024158A05EA01039589BD
:1024C00005EA010413B10CB1012000E0002030BD89
:1024D000CA430282704741EA0203A0F848307047BD
:1024E0001AB183890B43838102E083898B43838103
:1024F000704721B1828842F00802828004E082881D
:102500004FF6F7731A408280704701894FF6F872D0
:102510001140018170470A46002101894FF68F73EF
:10252000194011430181704730B504460D462946D4
:102530002046FFF7F0FF208940F00700208130BDE2
:102540002DE9F04104460D4616461F46602D06D182
:102550003B46012231462046FFF775FE05E03B462B
:10256000012231462046FFF7A4FE29462046FFF708
:10257000D2FF208940F007002081BDE8F08130B50E
:102580000C4600210189C9B24FF6FF7505EA032503
:10259000154325432943018130BD2DE9F04105460E
:1025A0000E4617469846002443463A46314628468A
:1025B000FFF7E5FF2C894FF6F870044044F007045C
:1025C0004FF68F70044044F070042C81BDE8F08118
:1025D000F0B504460D4616461F463B463246294690
:1025E0002046FFF7CCFF208940F480402081F0BDD9
:1025F00082884FF68F731A40828082880A438280D5
:10260000704702894FF6F8731A40028102890A4323
:102610000281704702894FF67F731A400281028956
:102620000A4302817047F0B50C4615461E4600214C
:10263000002200230189028B038C4FF6F877394082
:1026400021434FF6FC473A4040F201173A434FF618
:10265000DD773B404FF6FF7707EA06172F433B43F2
:10266000018102830384F0BD21B1828842F080029F
:10267000828004E082884FF67F731A408280704720
:10268000A0F850107047000010B50446F748844287
:1026900008D101211020FEF7D1FE00211020FEF705
:1026A000CDFE3EE0F248844209D101214804FEF704
:1026B000B4FE00214FF40030FEF7AFFE31E0ED48EC
:1026C000844209D101218804FEF7A7FE00214FF4BE
:1026D0008020FEF7A2FE24E0E748844209D10121D0
:1026E000C804FEF79AFE00214FF40020FEF795FE85
:1026F00017E0E248844209D101210805FEF78DFE6A
:1027000000214FF48010FEF788FE0AE0DC48844286
:1027100007D101212020FEF791FE00212020FEF7A5
:102720008DFE10BD2DE9FF4705460E460024A1464B
:1027300000BFA046B08900B100BF2C8A24F44054E9
:10274000F08804432C82AC8941F20C608443B08849
:1027500031890843718908430443AC81AC8A24F46D
:102760004074B0890443AC826846FEF726FDBF483A
:10277000854202D0C248854202D1DDF80C9001E0CA
:10278000DDF80890A88900F4004040B109EBC900C9
:1027900000EB091031684900B0FBF1F707E009EBE5
:1027A000C90000EB091031688900B0FBF1F7642023
:1027B000B7FBF0F004012009642101FB1078A8891F
:1027C00000F4004040B1322000EBC800B0FBF1F053
:1027D00000F00700044308E0322000EB08106421F9
:1027E000B0FBF1F000F00F0004432C81BDE8FF873F
:1027F0004FF41651016000218180C18001810C21BC
:10280000418100218181704710B502460020108A65
:1028100020F470600B884C8823438C882343CC8839
:1028200023431843108210BD002101804180818024
:10283000C180704721B1828942F40052828104E054
:1028400082894DF6FF731A4082817047028B02F431
:102850007F420283028B0A430283704721B182893F
:1028600042F40042828103E08289C2F30E02828137
:10287000704721B1828A42F40062828204E0828A37
:102880004FF2FF731A4082827047C1F308028280C0
:10289000704701468888C0F308007047028A4FF6E7
:1028A000F0731A400282028A0A430282704721B101
:1028B000828942F00202828104E082894FF6FD7330
:1028C0001A408281704782894FF2FF731A408281D9
:1028D00082890A4382817047028A4FF6DF731A4069
:1028E0000282028A0A430282704721B1028A42F4BC
:1028F0008042028204E0028A4BF6FF731A40028291
:102900007047818941F001018181704721B1828A3C
:1029100042F00802828204E0828A4FF6F7731A407E
:1029200082827047028BD2B20283028B42EA01227A
:102930000283704721B1828A42F02002828204E041
:10294000828A4FF6DF731A408282704721B1828AF1
:1029500042F01002828204E0828A4FF6EF731A403E
:1029600082827047828A4FF6FB731A408282828A83
:102970000A438282704721B1828A42F00202828237
:1029800004E0828A4FF6FD731A40828270471AB1C2
:10299000838A0B43838202E0838A8B43838270475E
:1029A000F0B50346002400260025002040F66A17F3
:1029B000B94200D100BF1846C1F3421401F01F060E
:1029C000012707FA06F5012C01D10C3004E0022C96
:1029D00001D1103000E014301AB107682F430760AE
:1029E00002E00768AF430760F0BD02460020B1F582
:1029F000007F00D100BF13880B400BB1012000E025
:102A00000020704701F40072B2F5007F00D100BFD2
:102A1000CA430280704770B5024600240023002597
:102A2000002040F66A16B14200D100BFC1F3421542
:102A300001F01F03012606FA03F3012D02D1968946
:102A4000334006E0022D02D1168A334001E0968A17
:102A500033400C12012606FA04F41688344013B1F0
:102A60000CB1012000E0002070BD0000001001400A
:102A70000044004000480040004C0040005000402E
:102A80000014014010B50022002340F66A14A14250
:102A900000D100BF0A1201249440A3B2DC43048099
:102AA00010BD000000F0FCF84FF400414A48FEF76A
:102AB00051FA0020494908704870494908700024BB
:102AC00010E000250AE00020464901EB840148554A
:102AD000454901EB84014855681CC5B2042DF2DB61
:102AE000601CC4B2042CECDB00241FE03E4810F84C
:102AF000240040F004003C4901F824000846005D31
:102B000040F008000855084600EB8400C07840F00B
:102B1000010001EB8401C87033480C30005D40F0C7
:102B2000020131480C300155601CC4B2042CDDDBBD
:102B30002D48007840F002002B4908704AE02B48ED
:102B4000007806283FD2DFE800F0030E1A2C323757
:102B50003C2001F06EF901202449087001031E4851
:102B6000FEF7F8F935E0502001F0ECFB07201F4993
:102B700008704FF400511848FEF7ECF929E000F016
:102B80001FFF1B4801681BA002F054FE1D4801688E
:102B90001DA002F04FFE4FF480410F48FEF7DAF916
:102BA00017E04FF400410C48FEF7D4F911E0402142
:102BB0001948FEF7CFF90CE000F003FA802116481F
:102BC000FEF7C8F905E04FF400410348FEF7C2F9EB
:102BD00000BF00BFB3E70000000402401100002066
:102BE00010000020D8000020C800002015000020A0
:102BF00070000020464C53656E736F723A20256456
:102C00000A00000074000020465253656E736F7214
:102C10003A2025640A0A000000080240704700BFFD
:102C2000FEE700BFFEE700BFFEE700BFFEE770471C
:102C30007047704710B518480068401C1649086076
:102C40000846006800F0010038B9144800780128EF
:102C500003D102F0D9FB00F07DFB10BD10B52020A0
:102C6000FDF714FE40B1C82001F099FC00F073FBA1
:102C70002020FDF71CFE0DE04FF48070FDF706FEEE
:102C800040B1C82001F08BFC00F06CFB4FF4807069
:102C9000FDF70DFE10BD00004800002014000020CC
:102CA00010B501F033FC01F0ADFC01F009FD4FF46B
:102CB000165001F053FD02F088F802F002F902F01C
:102CC00063F94FF48051FC48FEF742F94FF400518C
:102CD000F948FEF73DF94FF48041F748FEF738F91F
:102CE0004FF40041F448FEF733F94021F348FEF772
:102CF0002FF98021F148FEF72BF9002002F06BF844
:102D0000002002F095F841F2883001F048FC10BD37
:102D10002DE9FE4F8046894617469A460026B8F1AF
:102D2000000F0AD1B9F1000F07D1384602F078F848
:102D3000504602F0A2F8BDE8FE8F02F019F90290A9
:102D400002F012F90190384602F06AF8504602F09B
:102D500094F80F2097FBF0F581E057457FD102F002
:102D60009FF9D74800683238D6490968884225DA81
:102D7000D54800683238D549096888421EDAC82E1D
:102D80001ADDD0480068D1490968401ACC49096861
:102D9000CD4A1268891A401A192190FBF1F4AC420D
:102DA00000DD2C466842844200DA6C42C848046068
:102DB0006042C849086052E0761C50E0C048006894
:102DC0003238C049096888421DDAC82E19DDBD486D
:102DD0000068BB490968401A192190FBF1F414F10D
:102DE0000F0F01DA002406E0AC4200DD2C466842F9
:102DF000844200DA6C42B64804606042B54908601B
:102E00002DE0761C2BE0B04800683238AF490968E5
:102E100088421DDAC82E19DDAC480068AA49096845
:102E2000401A192190FBF1F414F10F0F01DA00247C
:102E300006E0AC4200DD2C466842844200DA6C4277
:102E40006042A3490860A348046008E0761C06E0DD
:102E50000026002400209E4908609E49086002F078
:102E600087F80299401A0090002801DB009801E0E1
:102E7000009840424045FFF670AF02F075F80199A6
:102E8000A0EB010BBBF1000F01DB584601E0CBF1D9
:102E900000004845EFDB00208D4908608D4908603F
:102EA00000BF48E770B5002001F0BAFF002001F034
:102EB000E4FFFDF743FDF120FDF759FF0221582003
:102EC000FDF788FD002410E000250BE0824A02EBAC
:102ED0008402515D05EB8402804B03EB8200FDF719
:102EE0004BFE6D1C042DF1DB641C042CECDB7448E0
:102EF000008881B27A48FDF73FFE7348008881B2AE
:102F00007748001DFDF738FE7648008881B2744886
:102F10000830FDF731FE7448008881B270480C30EB
:102F2000FDF72AFEFDF717FD70BD00200EE0002121
:102F300009E001EB8002694B13F82220664B03EB9A
:102F400080035A54491C0429F3D3401C0428EED3AF
:102F5000704763480830B0F900005949086060487C
:102F60000830B0F90000584908605D480830B0F9F1
:102F700000005D4908605A480830B0F9000059491E
:102F80000860704710B5002402F08AF857480068BE
:102F9000FA2806DD56480068B0F5AF7F01DD44F041
:102FA00001044A480068B0F5967F01DD44F0020450
:102FB00044480068B0F5AF7F01DD44F008042046C6
:102FC00010BD70B54FF4FA6001F0E9FA4FF480518A
:102FD0003948FDF7BDFF4FF400513748FDF7B8FF02
:102FE0004FF480413448FDF7B3FF4FF400413248BD
:102FF000FDF7AEFF40213148FDF7AAFF80212F48A1
:10300000FDF7A6FF4FF480512B48FDF7A3FF4FF4C7
:1030100080412948FDF79EFF1E2001F001FF1E2080
:1030200001F02BFF00240DE002F03AF8254800786B
:1030300030490855254800782F4908550F2001F0E0
:10304000AEFA641CFF2CEFDD002001F0E9FE002049
:1030500001F013FF41F2883001F0A1FA00250024AD
:1030600003E02448005D0544641CFF2CF9DD28467C
:10307000E91705EB11610912204A11604FF48076BF
:10308000002410E01B49095D1C4A1268881A0028B8
:1030900001DB014600E04142962903DD1548005D51
:1030A0002D1A761E641CFF2CECDD95FBF6F01349FF
:1030B00008600025002427E00004024000080240C8
:1030C00018000020780000201C0000207C00002058
:1030D0008C00002090000020C800002000000408A0
:1030E00000010408240000202000002070000020BF
:1030F00074000020F8000020F801002028000020C3
:10310000FE48005D0544641CFF2CF9DD2846E917E4
:1031100005EB11610912FA4A11604FF48076002420
:1031200010E0F649095DF64A1268881A002801DBAA
:10313000014600E04142962903DDF048005D2D1A6A
:10314000761E641CFF2CECDD95FBF6F0EC49086064
:103150004FF48051EB48FDF7FBFE4FF48041E94806
:10316000FDF7F6FE42F2107001F019FA4FF400512B
:10317000E448FDF7EFFE4FF40041E248FDF7EAFEB8
:1031800041F2883001F00BFA00240DE001F088FFD5
:10319000DD480078DD490855DD480078D7490855F5
:1031A0000A2001F0FCF9641CFF2CEFDD002001F087
:1031B00037FE002001F061FE4FF4FA6001F0EFF9F4
:1031C0000025002403E0D148005D0544641CFF2C69
:1031D000F9DD2846E91705EB11610912CD4A1160A6
:1031E0004FF48076002410E0C849095DC94A12688E
:1031F000881A002801DB014600E04142962903DDE0
:10320000C248005D2D1A761E641CFF2CECDD95FB78
:10321000F6F0C04908600025002403E0B748005DCF
:103220000544641CFF2CF9DD2846E91705EB116104
:103230000912B94A11604FF48076002410E0AF49BA
:10324000095DB54A1268881A002801DB014600E0D2
:103250004142962903DDA948005D2D1A761E641CA3
:10326000FF2CECDD95FBF6F0AB4908604FF4005104
:10327000A448FDF76DFE4FF40041A248FDF768FE3B
:1032800041F2883001F08BF9FFF70CFEFFF761FE89
:1032900070BD10B501F004FFA0480068B0F5967F3E
:1032A00001DD012010BD0020FCE710B501F0F8FEA3
:1032B0009B480068B0F5AF7F01DD012010BD002004
:1032C000FCE710B501F0ECFE8F480068FA2806DD37
:1032D0008F480068B0F5AF7F01DD012010BD0020F0
:1032E000FCE770B500262BE001F0DAFE8D4800689F
:1032F00085490968401A162190FBF1F48A48006854
:1033000083490968401A162190FBF1F5082C00DD6D
:10331000082414F1080F01DA6FF00704082D00DD0E
:10332000082515F1080F01DA6FF00705204601F0B6
:1033300077FD284601F0A1FD012001F030F9761C4F
:10334000B6F5C87FD0DB002001F06AFD002001F057
:1033500094FD70BD704710B54FF400516948FDF7FA
:10336000F9FD10BD70B50126002001F059FD0020C7
:1033700001F083FD01F09CFD01F09EFD00206B49F2
:10338000087098E101F0F0FD044601F0F1FD0546FA
:10339000002647E001F0ECFD05464FF48051594806
:1033A000FDF7D8FD4FF400515648FDF7D3FD4FF41B
:1033B00080415448FDF7CEFD4FF400415148FDF7E0
:1033C000C9FD40215A48FDF7C5FD80215848FDF749
:1033D000C1FD4FF4967001F0E2F84FF48051494876
:1033E000FDF7B6FD4FF400514648FDF7B1FD4FF42F
:1033F00080414448FDF7ACFD4FF400414148FDF7E2
:10340000A7FD40214A48FDF7A3FD80214848FDF76C
:103410009FFD4FF4967001F0C2F8761C0A2E01D180
:10342000444D02E0B5F5FA6FB4DC00BF40F6B930A8
:10343000844224DA0020404908704FF4805131481A
:10344000FDF786FD4FF400512E48FDF781FD4FF446
:1034500080412C48FDF77CFD4FF400412948FDF7E1
:1034600077FD40213248FDF773FD80213048FDF79C
:103470006FFD4FF480512348FDF76CFD1BE140F6D2
:10348000B830844227DD41F28930844223DA0120BA
:103490002949087001031B48FDF75AFD4FF40051FC
:1034A0001848FDF755FD4FF480411648FDF750FDD3
:1034B0004FF400411348FDF74BFD40211C48FDF738
:1034C00047FD80211A48FDF743FD4FF400510D4898
:1034D000FDF740FDEFE041F28830844248DD41F6DF
:1034E0005930844244DA022013490870C102054869
:1034F000FDF72EFD4FF4005102481FE0F8010020B7
:103500002C0000200004024070000020F800002081
:103510007400002030000020340000207C000020D7
:10352000780000202400002020000020140000204B
:1035300000080240A086010015000020FDF708FDEC
:103540004FF480416548FDF703FD4FF400416348A7
:10355000FDF7FEFC40216248FDF7FAFC802160483F
:10356000FDF7F6FC4FF480415C48FDF7F3FCA2E068
:1035700041F65830844228DD42F22930844224DA70
:103580000320584908704FF480515448FDF7E0FC7F
:103590004FF400515148FDF7DBFC4FF480414F4898
:1035A000FDF7D6FC4FF400414C48FDF7D1FC40211B
:1035B0004B48FDF7CDFC80214948FDF7C9FC4FF48D
:1035C00000414648FDF7C6FC75E042F228308442CF
:1035D00026DD42F6F920844222DA042041490870AF
:1035E00081023E48FDF7B4FC4FF400513B48FDF723
:1035F000AFFC4FF480413948FDF7AAFC4FF400417D
:103600003648FDF7A5FC40213548FDF7A1FC802197
:103610003348FDF79DFC40213148FDF79BFC4AE013
:1036200042F6F820844227DD43F2C920844223DA9F
:1036300005202C4908704FF480512848FDF788FC7C
:103640004FF400512548FDF783FC4FF48041234897
:10365000FDF77EFC4FF400412048FDF779FC402146
:103660001F48FDF775FC80211D48FDF771FC802186
:103670001B48FDF76FFC1EE007201A4908704FF445
:1036800080511648FDF764FC4FF400511348FDF7D4
:103690005FFC4FF480411148FDF75AFC4FF40041A4
:1036A0000E48FDF755FC40210D48FDF751FC8021E7
:1036B0000B48FDF74DFC0C4885427FF463AE01F0EA
:1036C000F7FB01F0F9FB002001F0AAFB002001F05C
:1036D000D4FB01200549087070BD000000040240C1
:1036E0000008024015000020A08601001400002000
:1036F0002DE9F05F05468A4616462C46002D07DA6E
:1037000000231A4619461846FFF702FBBDE8F09F52
:103710005A2D0CDDA5F15A02582302FB03F102FBDE
:1037200003F033463246FFF7F3FA5A2400E02C4602
:103730004820C0EB440047F6B721484342F21071DD
:1037400090FBF1F05821484300FB0AF04FF4B471AC
:1037500090FBF1F7482000EB440047F6B7214843BF
:1037600042F2107190FBF1F05821484300FB0AF03F
:103770004FF4B47190FBF1F8002F00DA7F42B8F1FA
:10378000000F01DAC8F1000894B16100483901FB6B
:1037900006F000EBD071491091FBF4FB6100483159
:1037A00001FB06F000EBD071491091FBF4F902E047
:1037B000C6F1000BB1464B465A4641463846FFF724
:1037C000A7FA3346324600210846FFF7A1FA00BFA8
:1037D0009CE72DE9F05F0546884616462C46002DED
:1037E00007DA00231A4619461846FFF791FABDE892
:1037F000F09F5A2D0CDDA5F15A02582302FB03F16C
:1038000002FB03F033463246FFF782FA5A2400E007
:103810002C46482000EB440047F6B721484342F2CB
:10382000107190FBF1F05821484300FB08F04FF471
:10383000B47190FBF1FA4820C0EB440047F6B72181
:10384000484342F2107190FBF1F05821484300FBCD
:1038500008F04FF4B47190FBF1FB94B16100483172
:1038600001FB06F000EBD071491091FBF4F7610009
:10387000483901FB06F000EBD071491091FBF4F9D7
:1038800002E03746C6F100094B463A4659465046D3
:10389000FFF73EFA3346324600210846FFF738FA72
:1038A00000BFA4E770B505460C4605E02346224656
:1038B00000210846FFF72CFAFFF7EBFC0028F5D0B3
:1038C00005E02346224600210846FFF721FAFFF7CC
:1038D000E0FC0028F5D1234622464FF42561084636
:1038E000FFF716FA224629465A20FFF772FF70BDED
:1038F00070B505460C4605E02346224600210846E1
:10390000FFF706FAFFF7C5FC0028F5D005E02346CF
:10391000224600210846FFF7FBF9FFF7BAFC002812
:10392000F5D1234622464FF425610846FFF7F0F90A
:10393000224629465A20FFF7DBFE70BD2DE9F041F3
:1039400007460E463C4620490968204A12688818F6
:1039500000EBD0714D10B54216DA07E0641E2D1D44
:103960002B462A4658210846FFF7D2F9012C01DDE3
:10397000B542F3DB582204FB02F104FB02F02B46B4
:103980002A46FFF7C5F915E007E0A41E6D1E2B4679
:103990002A46B0210846FFF7BBF9022C01DDB542EB
:1039A000F3DC582204FB02F104FB02F033463246FA
:1039B000FFF7AEF9BDE8F08110B5FFF792FC10BD3E
:1039C00010B5FFF7DFFA10BD5C000020600000209A
:1039D000F0B503460C46002018E0002112E0C51A9D
:1039E000002D01DB2E4600E06E420A1B002A01DB9F
:1039F000174600E057423E44FE4F07EB80077E54D7
:103A00004A1CD1B20429EADB421CD0B20428E4DB10
:103A1000F0BD30B502460B4600200CE0002106E068
:103A20000F24F44D05EB80056C544C1CE1B20429C5
:103A3000F6DB441CE0B20428F0DB0024ED4D05EB7E
:103A40008205EC5430BD30B5002367E0002061E012
:103A500000215BE0E84C04EB8004645C04F010049B
:103A6000002C51D00F22E44C04EB8004645C04F081
:103A700001045CB9DF4C04EB80054C1C2C5D9442C6
:103A800004DADC4C04EB80054C1C2A5DDA4C04EBB8
:103A90008004645C04F0020454B9D64D441C05EB68
:103AA0008404645C944203DA441C05EB8404625C85
:103AB000D14C04EB8004645C04F004045CB9CD4C8C
:103AC00004EB80054C1E2C5D944204DAC94C04EBD7
:103AD00080054C1E2A5DC84C04EB8004645C04F035
:103AE000080454B9441EC34D05EB8404645C94423D
:103AF00003DA441E05EB8404625C0F2A04DA541CCA
:103B0000BC4D05EB80056C544C1CE1B20429A1DBD3
:103B1000441CE0B204289BDB5C1CE3B2102B95DB59
:103B200030BD70B5002419E0B4A001F083FE00257B
:103B30000EE0B04800EB8400405D04EB440205EB6E
:103B40004202AF4B98540146AEA001F073FE6D1CCB
:103B5000042DEEDBADA001F06DFE641C042CE3DB54
:103B600070BD2DE9FE4F06460F4600244FF48051EC
:103B7000A748FDF7EFF90020A64908709E48007895
:103B800040F010009C490870084600EB8600C05DBC
:103B900020F0100001EB8601C85539463046FFF78A
:103BA00038FFFFF750FF944800EB8600C05D40F0FF
:103BB0001000914901EB8601C855FFF7B2FFA146FD
:103BC00007E00020944901F8090009F1010000F024
:103BD000FF09B9F1100FF4DB00208DF808008DF813
:103BE0000900F8E09DF80800824901EB80009DF88B
:103BF000091010F801809DF808007F4901EB800052
:103C00009DF80910405C00F00100D0B983480078AD
:103C1000784901EB800181484078401C11F800A0F0
:103C20000AF1010080450CD19DF80800724901EBB2
:103C300080019DF80900401C085C00F0100000B1F4
:103C400000259DF808006C4901EB80009DF80910E3
:103C5000405C00F00800D0B99DF80800401E65499E
:103C600001EB80009DF80910405C00900098401C1A
:103C700080450CD19DF80800401E5F4901EB800093
:103C80009DF80910405C00F0100000B103259DF87C
:103C90000800594901EB80009DF80910405C00F0D4
:103CA0000400D0B99DF80800524901EB80019DF84D
:103CB0000900401E11F800B00BF1010080450CD145
:103CC0009DF808004C4901EB80019DF80900401E59
:103CD000085C00F0100000B102259DF8080046497C
:103CE00001EB80009DF80910405C00F00200D0B9A3
:103CF0009DF80800401C3F4901EB80009DF8091029
:103D0000405C01900198401C80450CD19DF8080052
:103D1000401C394901EB80009DF80910405C00F01F
:103D2000100000B10125A54205D100203A49394AC9
:103D30001278885427E0032C01D1002000E0601C99
:103D4000A84205D101203449324A127888541AE039
:103D50000CB9032000E0601EA84205D103202E49C3
:103D60002C4A127888540EE0012C01D1032003E084
:103D70000CB9022000E0A01EA84204D1022026496E
:103D8000244A127888542C4634B99DF80900401C06
:103D9000C0B28DF8090019E0012C06D19DF8080089
:103DA000401CC0B28DF8080010E0022C06D19DF82E
:103DB0000900401EC0B28DF8090007E0032C05D1B0
:103DC0009DF80800401EC0B28DF808001148007828
:103DD000401C104908709DF80800032803D19DF885
:103DE0000900032804D00B4800780E28FFF6FAAE2D
:103DF00016E00000D8000020C80000207C00000071
:103E0000E80000202533647C000000000A00000068
:103E10000004024040000020F802002011000020B1
:103E20004FF48051FE48FDF793F8FE480078BDE856
:103E3000FE8F2DE9F04707464FF0000901260324C5
:103E4000032500210846FFF779FD4FF47A7000F052
:103E5000A6FB00BFFFF7B4FD00F001000028F9D079
:103E60004FF48051EE48FDF773F800BFFFF7A8FD4F
:103E700000F001000028F9D14FF48051E848FDF727
:103E800069F84FF4FA6000F08AFB29462046FFF7F4
:103E90009FFD39465A20FFF751FD1E20E249087068
:103EA000E2484078401CE149487045E297E1FFF75D
:103EB00087FDDF49087008460078DE4909788840A8
:103EC000DC490978C1F10402D94909781141084354
:103ED00000F00F00D84908700846007840F0100044
:103EE0000870D2480078D04901EB8000CF4949786A
:103EF000405CD14909780843CC490978CA4A02EBA9
:103F00008101CA4A52788854FFF79DFD0F20CB49A2
:103F10000870C948007800F00100B0B9C3480078C3
:103F2000C74901EB8001C1484078401C085CC54985
:103F30000870C24800780978884206DBC1480078DA
:103F4000BE4908700020C0490870BB48007800F0E6
:103F50000800B0B9B5480078401EB94901EB8000AF
:103F6000B2494978405CB9490870B448007809788A
:103F7000884206DDB5480078B04908700320B24990
:103F80000870AD48007800F00400B0B9A748007888
:103F9000AB4901EB8001A5484078401E085CAC4964
:103FA0000870A64800780978884206DDA84800789D
:103FB000A24908700220A44908709F48007800F0C8
:103FC0000200B0B999480078401C9D4901EB80007F
:103FD00096494978405C9F4908709848007809786C
:103FE000884206DB9B480078944908700120964976
:103FF0000870954800788F490978884204D139467D
:10400000B420FFF79BFCC4E08A480078032801D164
:10401000002002E087480078401C8B4909788842DC
:1040200027D139465A20FFF789FC8148007800F0F3
:10403000010010B1FFF7C0FC03E000210846FFF7C4
:104040007DFC642000F0ABFA3A4658210020FFF7CF
:10405000C0FB00210846FFF771FC322000F09FFAF8
:1040600039465A20FFF76AFC774800787149087092
:104070008FE07048007808B9032002E06D480078AE
:10408000401E71490978884227D139465A20FFF7E6
:1040900055FC6748007800F0010010B1FFF78CFC78
:1040A00003E000210846FFF749FC642000F077FA9E
:1040B0003A465A210020FFF71BFB00210846FFF774
:1040C0003DFC322000F06BFA39465A20FFF736FCEF
:1040D0005D480078574908705BE056480078012831
:1040E00001D1032007E05348007808B9022002E01C
:1040F00050480078801E54490978884237D13946A3
:104100005A20FFF71BFC4A48007800F0010008B174
:10411000FFF752FC3A465A210020FFF7E9FA4448DB
:10412000007800F0010008B1FFF746FC3A465A213A
:104130000020FFF7DDFA3E48007800F0010008B1EA
:10414000FFF73AFC39465A20FFF7F8FB3948007868
:10415000012801D1032007E03648007808B9022081
:1041600002E034480078801E3249087011E00FE008
:10417000C82000F014FA4FF480412948FCF7EAFE09
:10418000C82000F00CFA4FF480412548FCF7E0FE0F
:10419000EEE72848007828B924484078401C234995
:1041A00048701CE023480078012805D11F4800789A
:1041B000401C1E49087012E01E480078022805D1F4
:1041C0001A484078401E1949487008E0194800789C
:1041D000032804D115480078401E1449087013487C
:1041E0000078A0427FF463AE10484078A842F9D12D
:1041F0000324032529462046FFF7B3FC8046B8F187
:104200000B0F3ADA052E38D0074800EB8400405DEA
:1042100040F01000044901EB8401485500241BE0E4
:104220000004024040000020C800002011000020CF
:104230003900002010000020380000203B00002042
:10424000D80000203C0000203A0000203F00002061
:104250003E0000203D000020002529462046FFF7B3
:10426000B7FB9E4800EB8400405D20F010009B49A6
:1042700001EB8401485505265EE0012E1BD19748CD
:1042800000EB8400405D40F01000944901EB840194
:1042900048550024002529462046FFF799FB8F4802
:1042A00000EB8400405D20F010008C4901EB84019C
:1042B0004855022640E0022E1ED100210846FFF795
:1042C0003DFB4FF47A7000F06AF939465A20FFF747
:1042D00035FB3A465A210020FFF70AFAFFF76CFB3C
:1042E0003A465A210020FFF703FA00210846FFF75B
:1042F00025FB4FF001091FE0052E1DD100210846C6
:10430000FFF71CFB4FF47A7000F049F939465A2048
:10431000FFF714FB3A465A210020FFF7E9F9FFF7AF
:104320004BFB3A465A210020FFF7E2F900210846EC
:10433000FFF704FB4FF00109B9F1000F3FF4B6ADF0
:10434000BDE8F08770B5054600210846FFF7F6FA8C
:1043500000BFFFF735FB00F001000028F9D04FF453
:1043600000515F48FCF7F4FD00BFFFF729FB00F0A8
:1043700001000028F9D14FF400515948FCF7EAFD3B
:104380004FF4FA6000F00BF901244DE05548005D50
:1043900020B1012831D0032843D138E05149601CB5
:1043A000085C01280FD129465A20FFF7C7FA2A4690
:1043B0005A210846FFF70DFA29465A20FFF7BEFAA0
:1043C000601CC4B218E04749601C085C03280FD188
:1043D00029465A20FFF7B2FA2A465A210846FFF723
:1043E00087F929465A20FFF7A9FA601CC4B203E0F6
:1043F0002946B420FFF7A2FA13E02A465A210020EA
:10440000FFF7E7F92946B420FFF798FA09E02A46B2
:104410005A210020FFF76CF92946B420FFF78EFAE5
:1044200000BF00BF601CC4B22F4800788442ADDBDF
:1044300000210846FFF782FA70BD70B505460024DA
:1044400043E02848005D20B1012827D0032839D156
:104450002EE02449601C085C01280AD129465A2014
:10446000FFF720FA29465A20FFF768FA601CC4B209
:1044700013E01C49601C085C03280AD129465A2015
:10448000FFF736FA29465A20FFF758FA601CC4B2E3
:1044900003E02946B420FFF751FA13E02A465A21D7
:1044A0000020FFF796F92946B420FFF747FA09E004
:1044B0002A465A210020FFF71BF92946B420FFF7AE
:1044C0003DFA00BF00BF601CC4B2074800788442B8
:1044D000B7DB00210846FFF731FA70BDC8000020A5
:1044E00000040240F80200204000002010B500281F
:1044F00007DA0A07140E3E4A00F00F031B1FD454BC
:1045000003E00A07130E3B4A135410BD10B501F027
:10451000F6F801F020F9384800684FF47A71B0FBE2
:10452000F1F4601EB0F1807F01D301200FE0601E26
:104530004FF0E02148610F214FF0FF30FFF7D6FF29
:1045400000204FF0E021886107200861002008B1B9
:1045500000BFFEE74FF44070FBF782FE0021481ECB
:10456000FFF7C4FF00202549086010BD4FF0E02090
:104570008069A821B0FBF1F02049096801EB4102F4
:10458000C2EBC1114FF47A7202EBC101081A1C4947
:104590000860084600687047184800687047174A66
:1045A000116800BF154A1268521A821AFAD1704770
:1045B00010B50346FFF7DAFF044600BFFFF7D6FF4A
:1045C000001B181AFAD110BD10B503460C4600BFE7
:1045D000FFF7CCFF001B9842FAD310BD00B502468E
:1045E00000BFFFF7D9FF401A9042FAD300BD000088
:1045F00018ED00E000E400E0B400002048000020D6
:10460000440000201CB501210846FCF76BFE012187
:104610000220FCF767FE01210420FCF763FE012164
:104620000820FCF75FFE41F60410009001208DF891
:10463000040000208DF8060003208DF805000020FE
:104640008DF8070069461B48FCF706FC4FF47040E4
:10465000009069461848FCF7FFFBC02000906946AF
:104660001648FCF7F9FB6020009002208DF8070047
:1046700069461048FCF7F0FB4FF4406000900220C0
:104680008DF8070069460C48FCF7E6FB2021094835
:10469000FCF760FC40210748FCF75CFC4FF48061AC
:1046A0000548FCF757FC4FF400610348FCF752FC47
:1046B0001CBD00000000024000040240000802404F
:1046C00000B585B001218803FCF750FE01210620CA
:1046D000FCF708FE05210120FDF74CF90821022016
:1046E000FDF748F900208DF808008DF80B00202018
:1046F000019001A91748FCF7AFFB00208DF80800D6
:104700008DF80B004FF48070019001A91248FCF75E
:10471000A3FB4FF49070039000208DF81000082048
:104720008DF8110001208DF8120003A8FCF748F85D
:1047300017208DF8000001208DF8010000208DF871
:10474000020001208DF803006846FBF78EFD05B0DE
:1047500000BD0000000402400008024010B588B00F
:10476000044601210220FCF7BDFD01211020FCF7C9
:10477000FDFD07220921A548FCF7F9FB07220A21C4
:10478000A248FCF7F4FB00208DF81E0001208DF8F4
:104790001F0002208DF81C004FF4C060069002201C
:1047A0008DF81D0006A99948FCF756FB0121984891
:1047B000FEF754F802940020ADF80C00ADF80E009E
:1047C000ADF81000ADF814000C20ADF81200002078
:1047D000ADF800004FF48060ADF802000020ADF8A5
:1047E0000600ADF8040002A98948FDF79BFF694661
:1047F0008748FEF709F801218548FEF71BF808B045
:1048000010BD10B588B0044601210846FCF76AFDCA
:1048100001214804FCF799FD072202217B48FCF79F
:10482000A6FB072203217948FCF7A1FB00208DF8A5
:104830001E0001208DF81F0002208DF81C000C20A6
:10484000069002208DF81D0006A97048FCF704FBB5
:1048500001217048FEF702F802940020ADF80C0028
:10486000ADF80E00ADF81000ADF814000C20ADF856
:1048700012000020ADF800004FF48060ADF8020097
:104880000020ADF80600ADF8040002A96148FDF76C
:1048900049FF69465F48FDF7B7FF01215D48FDF715
:1048A000C9FF08B010BD014600BF704770B504468F
:1048B0000D46E1B25648FDF7E8FF00BF802154489D
:1048C000FEF793F80028F9D0204670BD014600BFDE
:1048D0004F4A128802F02002002AF9D04C4A9288EE
:1048E000C2F30800704710B5044600BF8021484855
:1048F000FEF77BF80028F9D0A1B24548FDF7C5FFC7
:10490000204610BD10B544A000F094FF00BF202148
:104910003F48FEF76AF80028F9D03D48FDF7B9FF97
:10492000C0B210BD10B545A000F084FF00BF20212B
:104930003748FEF75AF80028F9D03548FDF7A9FFA7
:104940000446214645A000F075FF3148FDF7A1FF60
:10495000C0B210BD10B543A000F06CFF00BF202115
:104960002B48FEF742F80028F9D02948FDF791FFBF
:10497000A0F13004214642A000F05CFF2448FDF77E
:1049800088FF303810BD10B586B0044621463EA0E1
:1049900000F050FF01A943A001F09AF801A942A03C
:1049A00000F048FF0BE0214641A000F043FF01A9C1
:1049B0003CA001F08DF801A93BA000F03BFF21468F
:1049C00001A801F0ABF90028EDD106B010BD38B553
:1049D0000446214641A000F02DFF694646A001F0A3
:1049E00077F827A0009900F025FF0BE0214643A0AF
:1049F00000F020FF694640A001F06AF820A000996D
:104A000000F018FF0098A042F0D138BD000002402D
:104A100000100140004400400D0A7072657373205D
:104A2000616E79206B657920746F20636F6E746995
:104A30006E75652E2E2E0D0A0D0A0000706C6561D4
:104A4000736520656E7465722061206368617261B0
:104A500063746F722E2E2E0D0A00000025630D0A5E
:104A600000000000706C6561736520656E7465728E
:104A700020612064696769742E2E2E0D0A000000E3
:104A800025640D0A000000005072657373202573C1
:104A900020746F20436F6E74696E75652E2E2E2004
:104AA0003A0000002573000025730D0A0000000085
:104AB000496E76616C696420696E7075742C207023
:104AC0007265737320257320746F20436F6E746951
:104AD0006E75652E2E2E203A000000005072657310
:104AE0007320256420746F20436F6E74696E756542
:104AF0002E2E2E203A00000025640000496E7661BB
:104B00006C696420696E7075742C207072657373A3
:104B100020256420746F20436F6E74696E75652E56
:104B20002E2E203A000000002DE9F04105464FF4FA
:104B300080415948FCF70EFA40215848FCF70AFA20
:104B4000002416E0285D00EB800055494718002638
:104B50000CE000BF02215348FCF7C3FE0028F9D047
:104B600039785048FCF786FE7F1C761C052EF0DB5A
:104B7000641C042CE6DB00BF02214A48FCF7B1FEAE
:104B80000028F9D000BF80214648FCF7AAFE012882
:104B9000F9D040214148FCF7DBF9BDE8F0811CB5B4
:104BA0000446234640A20521684600F04FFE6846B1
:104BB000FFF7BAFF1CBD00B52DED048B85B0B0EE3C
:104BC000408A18EE100A02F01FFB41EC190B8DED24
:104BD000009B37A2052103A800F038FE03A8FFF7C9
:104BE000A3FF05B0BDEC048B00BD1CB504462346F5
:104BF00031A20521684600F029FE6846FFF794FFC0
:104C00001CBD70B50546002406E0285D18B928468D
:104C1000FFF78AFF70BD641C032CF6DB002407E05D
:104C20002819FFF781FF4FF47A70FFF7B8FC641C76
:104C3000E01C285C0028F3D100BFEBE710B54FF46F
:104C400080411548FCF786F940211448FCF782F9A9
:104C500000240BE000BF02211248FCF742FE0028AE
:104C6000F9D000210F48FCF705FE641C142CF1DB81
:104C700000BF02210B48FCF734FE0028F9D000BF2A
:104C800080210848FCF72DFE0128F9D04021034877
:104C9000FCF75EF910BD000000040240000802406D
:104CA000F8720008003800404525303364000000E9
:104CB000252E31660000000025303464000000001D
:104CC0001CB501210420FCF740FB4FF470700090EC
:104CD00002208DF8040003208DF8050000208DF8D7
:104CE00006008DF8070069466848FCF7B5F802220F
:104CF00006216648FCF73BF9022207216348FCF7CE
:104D000036F9022208216148FCF731F90222092113
:104D10005E48FCF72CF91CBD00B589B040F2E730C5
:104D200007900320ADF818000020ADF82000ADF882
:104D30001A0006A95648FCF702FF6020ADF80400EF
:104D40000120ADF806005348008803900020ADF81C
:104D5000100001A94E48FCF787FF08214C48FDF7D9
:104D600010F90120ADF806004B480088039001A916
:104D70004748FCF7B2FF08214548FDF70BF9012031
:104D8000ADF8060045480088039001A94048FCF7AB
:104D9000F1FF08213E48FDF70AF90120ADF80600B1
:104DA0003F480088039001A93948FDF749F80821D8
:104DB0003748FDF705F901213548FCF72BFF0121A4
:104DC0003348FCF745FF09B000BD10B5FFF778FF89
:104DD000FFF7A2FF10BDB0F57A7F01DB40F2E730AC
:104DE00010F57A7F00DC2F48002807DB284938318E
:104DF00008600021264A3432116006E00021244A6E
:104E0000383211604142121F11602149383109685E
:104E1000204A11801E49343109681F4A11807047A9
:104E200000B50346204803601846FFF7D4FF00BDD5
:104E3000B0F57A7F01DB40F2E73010F57A7F00DCD5
:104E40001848002807DB12493C3108600021104A4D
:104E50004032116006E000210D4A3C3211604142AF
:104E6000121D11600A493C3109680C4A1180084939
:104E7000403109680A4A1180704700B503460B4863
:104E800003601846FFF7D4FF00BD00000004024095
:104E90000008004054000020560000205800002068
:104EA0005A00002019FCFFFF5C0000206000002079
:104EB000002032490860704700204FF0804148626E
:104EC00070471CB501210920FCF73FFA02208DF83C
:104ED000040001208DF8070048F2030000906946A5
:104EE0002748FBF7B9FF0820009069462548FBF7E3
:104EF000B3FF022200212248FCF739F802220121E7
:104F00001F48FCF734F801220F211D48FCF72FF849
:104F1000012203211B48FCF72AF84FF0FF31174804
:104F20002438FCF757FE4FF0FF314FF08040FCF77C
:104F300051FE00231A46032110482438FDF773FB65
:104F40000223002203215807FDF76DFB01210B48C6
:104F50002438FCF77DFE01218807FCF779FEFFF776
:104F6000ABFFFFF7A5FF1CBD044800684042704737
:104F70004FF08040406A404270470000240C0040DF
:104F8000000002400004024000B58DB0012108027B
:104F9000FCF7ECF901210846FCF7A4F990200190F8
:104FA00003208DF8080000208DF80B0001A9384877
:104FB000FBF752FF01210220FCF794F90320019036
:104FC0008DF8080000208DF80B0001A93148FBF78F
:104FD00043FF01210420FCF785F9202001900320E4
:104FE0008DF8080000208DF80B0001A92A48FBF776
:104FF00033FFFBF7A5F9002003904FF480300490B5
:10500000002005904FF47060069003A8FBF7D2F9DA
:10501000002007908DF820008DF8210009900B905A
:1050200001208DF8300007A91C48FBF794F90121F5
:105030001A48FBF7D6F940211548FBF78BFF4FF4D0
:1050400080611448FBF786FF4FF400611148FBF7BD
:1050500081FF20210E48FBF77DFF0DB000BD70B52C
:1050600005460E4614462346012231462846FBF7E4
:10507000F8F92846FBF751FA00BF02212846FBF752
:105080006DFB0028F9D02846FBF783FA70BD0000BD
:1050900000000240000402400008024000200140DD
:1050A00010B504220821C848FFF7D9FFC749086096
:1050B00004221146C448FFF7D2FFC5490860042204
:1050C0000F21C148FFF7CBFFC24908600422072126
:1050D000BD48FFF7C4FFC0490860FFF747FA044620
:1050E0004021BE48FBF734FF4FF48061BC48FBF71A
:1050F0002FFF21463220FFF767FA04220821B24829
:10510000FFF7ADFFB1490968401AB0490860402176
:10511000B248FBF71FFF4FF48061B148FBF71AFF5D
:10512000AA480068002802DA0020A8490860214641
:105130009620FFF749FA4021A848FBF709FF4FF4F2
:105140008061A748FBF704FF2146C820FFF73CFA1F
:10515000042211469C48FFF782FF9D490968401AC6
:105160009B49086040219D48FBF7F4FE4FF48061A5
:105170009B48FBF7EFFE96480068002802DA002003
:105180009349086021464FF49670FFF71DFA4FF4DB
:1051900000619348FBF7DCFE21464FF4AF70FFF748
:1051A00013FA04220F218848FFF759FF894909683B
:1051B000401A884908604FF400618948FBF7CAFE2D
:1051C00084480068002802DA0020824908602146ED
:1051D0004FF4C870FFF7F8F920218048FBF7B8FEBC
:1051E00021464FF4E170FFF7EFF9042207217648DA
:1051F000FFF735FF78490968401A77490860202190
:105200007648FBF7A7FE74480068002802DA002001
:1052100071490860214640F22620FFF7D5F96B4816
:1052200000687049096848434FF47A7190FBF1F0C7
:1052300066490860664800686A49096848434FF44F
:105240007A7190FBF1F06249086062480068654934
:10525000096848434FF47A7190FBF1F05D490860AA
:105260005D4800685F49096848434FF47A7190FBD4
:10527000F1F05949086010BD70B5142500205A4955
:10528000086000240AE0042203214F48FFF7E7FEEC
:1052900055490968084454490860641CAC42F2DB73
:1052A0004CF2503090FBF5F04F49096848434E49A5
:1052B0000860084600684D49401A4B490860084696
:1052C00000684CF2503190FBF1F0474908600868E3
:1052D000C11700EB91718910434A1160444800687E
:1052E0001146096808444249086070BD10B504229F
:1052F00009213548FFF7B3FE3E49086008460068BB
:1053000040F2293148434FF44B6190FBF1F03A49A8
:10531000086010BD10B538480068B0F52F7F4ADA34
:105320000020FFF758FD0020FFF782FD42E033A088
:10533000FFF7FAFB4FF480512948FBF709FE4FF4C1
:1053400000512748FBF704FE4FF480412448FBF747
:10535000FFFD4FF400412248FBF7FAFD40212948A8
:10536000FBF7F6FD80212748FBF7F2FDC820FFF789
:1053700016F9FFF763FC4FF480511948FBF7EAFD7B
:105380004FF400511648FBF7E5FD4FF480411448F7
:10539000FBF7E0FD4FF400411148FBF7DBFD402136
:1053A0001848FBF7D7FD80211648FBF7D3FDC8202E
:1053B000FFF7F5F8BBE710480068FFF716FC4FF45D
:1053C0007A70FFF7ECF810BD00200140700000205B
:1053D00074000020780000207C00002000000240C3
:1053E00000040240640000208400002020C38A05DD
:1053F00088000020680000206C0000204C6261746E
:1054000000000000000802402DE9F041FFF7B0FD68
:1054100005463E4800682E1A3C4805603C48006836
:105420003C4909680844841B3B480068A4EB000819
:1054300004EBC40000EB04103849096801EB80005C
:105440003649086040F24C4060430968112202FB73
:1054500001001C2101FB08064FF47A7096FBF0F660
:105460002D4804602E48006829490968884208D000
:10547000274800682A490860002028490860264912
:105480000860FFF771FD0546264800682F1A254879
:10549000056025480068254909680844C41B24485C
:1054A0000068A4EB000804EBC40000EB04102149E1
:1054B000096801EB80001F49086040F24C406043DE
:1054C0000968112202FB01001C2101FB08074FF4AF
:1054D0007A7097FBF0F7104804601748006812498B
:1054E0000968884208D01048006813490860002005
:1054F000104908600E4908603046FFF76CFC3846DA
:10550000FFF796FCBDE8F081704700009400002092
:105510005C0000208C0000209C000020A0000020E7
:1055200098000020A40000206000002090000020CF
:10553000AC000020B0000020A800002009488047EF
:1055400009480047FEE7FEE7FEE7FEE7FEE7FEE765
:10555000FEE7FEE7FEE7FEE704480549054A064B7D
:1055600070470000FF56000889010008680300200A
:105570006809002068050020680500200CB500209F
:10558000019000909F48006840F480309D49086079
:1055900000BF9C48006800F4003000900198401C57
:1055A0000190009818B90198B0F5A06FF1D1954815
:1055B000006800F4003010B10120009001E00020EC
:1055C00000900098012847D18E484030006840F094
:1055D00080508C49403108608B48006840F480401E
:1055E00089490860874808300068864908310860A2
:1055F0000846006840F4004008600846006840F42F
:10560000A05008608148091F0860081F006840F02A
:105610008070091F086000BF7A48006800F00070C1
:105620000028F9D040F205607949086075480830D3
:10563000006820F0030073490831086008460068DC
:1056400040F00200086000BF6E480830006800F0BB
:105650000C000828F8D151E06A4800686D490840FC
:10566000684908600846006840F001000860654825
:105670004030006840F08050624940310860624824
:10568000006840F48040604908605E480830006867
:105690005C49083108600846006840F40040086032
:1056A0000846006840F4A05008605848091F086088
:1056B000081F006840F08070091F086000BF514853
:1056C000006800F000700028F9D040F205605049F1
:1056D00008604C480830006820F003004949083150
:1056E00008600846006840F00200086000BF4548B6
:1056F0000830006800F00C000828F8D10CBD10B587
:105700004548006840F47000434908603D4800681F
:1057100040F001003B49086000203A490831086028
:10572000384800683B490840364908603B48091D35
:105730000860081F006820F48020091F086000200E
:1057400030490C310860FFF719FF4FF00060324913
:105750008039086010BD70B50020002202230024AB
:105760000221284D08352D6805F00C0020B10428D1
:1057700006D0082834D107E0294D2A4E356033E0A1
:10578000294D284E35602FE01E4D2D1D2D68C5F387
:1057900080541C4D2D1D2D6805F03F0154B1224D44
:1057A000B5FBF1F5174E361D3668C6F3881605FBB6
:1057B00006F209E01A4DB5FBF1F5124E361D3668BA
:1057C000C6F3881605FB06F20E4D2D1D2D68C5F398
:1057D00001456D1C6B00B2FBF3F5124E356003E022
:1057E0000F4D104E356000BF00BF064D08352D68C7
:1057F000C5F303150D4E705D0A4D2D68C540094E69
:10580000356070BD00380240007000401054000741
:10581000003C0240FFFFF6FE88ED00E0103000245F
:105820000024F400B400002000127A00B800002028
:10583000704700000FB4044910B503AA029800F0A5
:1058400053FD10BC5DF814FB4C0000200FB41CB5D8
:105850000C0007AA009001D02044401E074B7B4457
:1058600069460190069800F008FD002C03D06946B7
:10587000002000F015FD1CBC5DF814FB490A000077
:1058800070B5044685690068C10601D5302600E080
:105890002026C00707D070BDD4E9012130469047CB
:1058A000206A401C20626D1EF6D570BD70B504469E
:1058B00085690078C00707D170BDD4E90121202097
:1058C0009047206A401C20626D1EF6D570BD70B5F1
:1058D0000C460546012A05D02878800600D5EA69DD
:1058E000002302E0012305E05B1C934202D2E05C4E
:1058F0000028F9D1A869E618C01AA861286A1844D6
:1059000028622846FFF7BCFF04E0D5E9012114F81E
:10591000010B9047B442F8D32846FFF7C7FF70BD8C
:105920002DE9F0410646002410687529314616A578
:1059300010D0AFF30080002802DA404213A507E040
:1059400031688A0701D512A502E0490704D511A5DF
:10595000012401E0AFF3008000210A2206F12407B0
:1059600009E0B0FBF2FCB0FBF2F302FB1C003030AC
:1059700078541846491C0028F3D123462A4630465D
:10598000BDE8F04100F00EBA000000002D0000005C
:105990002B000000200000002DE9F05F894604463E
:1059A0004FF0000ADFF824B1FB44C0F820A02046E5
:1059B000E168884700287DD0252806D0D4E9012158
:1059C0009047206A401C2062F1E700255F46204690
:1059D000E16888472028064607DB312E05D2B81932
:1059E00010F8200C08B10543F1E7A80701D525F010
:1059F0000405C4F81CA00027C4F818A02A2E09D05A
:105A0000304601F0C8FB38B304EB8708303EC8F8D5
:105A1000186019E059F8041B204604EB87029161D5
:105A2000E1688847012F064618D1E069002820DA8E
:105A300025F020051DE0D8F8180000EB800006EBEB
:105A400040003038C8F818002046E168884706460C
:105A500001F0A1FB0028EED1012F0AD02E2E08D193
:105A60002046E16888477F1C0646022F45F0200546
:105A7000C4DBA069002803DA404245F00105A061BB
:105A8000E80701D025F01005A6B1A6F141001928BC
:105A900002D8203645F400654A4631462046256046
:105AA0004D46FAF7ABFB60B1012807D0ED1D25F09C
:105AB000070000E007E000F1080978E705F10409B4
:105AC00075E730467AE7206ABDE8F09F761C000053
:105AD0000FB400B589B00BA86A46009003480A9934
